{
	"NftExchanger.sol": {
		"NftExchanger": {
			"abi": [
				{
					"anonymous": false,
					"inputs": [
						{
							"indexed": true,
							"internalType": "address",
							"name": "applyer",
							"type": "address"
						},
						{
							"indexed": false,
							"internalType": "uint256",
							"name": "",
							"type": "uint256"
						},
						{
							"indexed": false,
							"internalType": "uint256",
							"name": "",
							"type": "uint256"
						}
					],
					"name": "ApplySale",
					"type": "event"
				},
				{
					"anonymous": false,
					"inputs": [
						{
							"indexed": true,
							"internalType": "address",
							"name": "CA",
							"type": "address"
						}
					],
					"name": "CheckId",
					"type": "event"
				},
				{
					"anonymous": false,
					"inputs": [
						{
							"indexed": true,
							"internalType": "address",
							"name": "buyer",
							"type": "address"
						},
						{
							"indexed": true,
							"internalType": "address",
							"name": "seller",
							"type": "address"
						},
						{
							"indexed": false,
							"internalType": "uint256",
							"name": "",
							"type": "uint256"
						},
						{
							"indexed": false,
							"internalType": "uint256",
							"name": "",
							"type": "uint256"
						}
					],
					"name": "Sale",
					"type": "event"
				},
				{
					"anonymous": false,
					"inputs": [
						{
							"indexed": false,
							"internalType": "string",
							"name": "CA",
							"type": "string"
						},
						{
							"indexed": true,
							"internalType": "address",
							"name": "from",
							"type": "address"
						},
						{
							"indexed": true,
							"internalType": "address",
							"name": "to",
							"type": "address"
						},
						{
							"indexed": false,
							"internalType": "uint256",
							"name": "",
							"type": "uint256"
						}
					],
					"name": "TransferFrom",
					"type": "event"
				},
				{
					"inputs": [
						{
							"internalType": "string",
							"name": "key",
							"type": "string"
						},
						{
							"internalType": "address",
							"name": "CA",
							"type": "address"
						}
					],
					"name": "addNftList",
					"outputs": [],
					"stateMutability": "nonpayable",
					"type": "function"
				},
				{
					"inputs": [
						{
							"internalType": "string",
							"name": "nftKey",
							"type": "string"
						},
						{
							"internalType": "uint256",
							"name": "tokenId",
							"type": "uint256"
						},
						{
							"internalType": "uint256",
							"name": "price",
							"type": "uint256"
						}
					],
					"name": "applySale",
					"outputs": [],
					"stateMutability": "nonpayable",
					"type": "function"
				},
				{
					"inputs": [
						{
							"internalType": "string",
							"name": "nftKey",
							"type": "string"
						},
						{
							"internalType": "uint256",
							"name": "tokenId",
							"type": "uint256"
						}
					],
					"name": "buySale",
					"outputs": [],
					"stateMutability": "payable",
					"type": "function"
				},
				{
					"inputs": [
						{
							"internalType": "string",
							"name": "key",
							"type": "string"
						}
					],
					"name": "getNftList",
					"outputs": [
						{
							"internalType": "address",
							"name": "",
							"type": "address"
						}
					],
					"stateMutability": "view",
					"type": "function"
				},
				{
					"inputs": [
						{
							"internalType": "string",
							"name": "nftKey",
							"type": "string"
						},
						{
							"internalType": "uint256",
							"name": "tokenId",
							"type": "uint256"
						}
					],
					"name": "getSales",
					"outputs": [
						{
							"internalType": "address",
							"name": "",
							"type": "address"
						},
						{
							"internalType": "uint256",
							"name": "",
							"type": "uint256"
						},
						{
							"internalType": "uint256",
							"name": "",
							"type": "uint256"
						}
					],
					"stateMutability": "view",
					"type": "function"
				},
				{
					"inputs": [
						{
							"internalType": "string",
							"name": "key",
							"type": "string"
						},
						{
							"internalType": "address",
							"name": "from",
							"type": "address"
						},
						{
							"internalType": "address",
							"name": "to",
							"type": "address"
						},
						{
							"internalType": "uint256",
							"name": "tokenId",
							"type": "uint256"
						}
					],
					"name": "makeTransfer",
					"outputs": [],
					"stateMutability": "nonpayable",
					"type": "function"
				},
				{
					"inputs": [
						{
							"internalType": "string",
							"name": "",
							"type": "string"
						}
					],
					"name": "nftList",
					"outputs": [
						{
							"internalType": "address",
							"name": "",
							"type": "address"
						}
					],
					"stateMutability": "view",
					"type": "function"
				},
				{
					"inputs": [
						{
							"internalType": "string",
							"name": "nftKey",
							"type": "string"
						},
						{
							"internalType": "address",
							"name": "from",
							"type": "address"
						},
						{
							"internalType": "address",
							"name": "to",
							"type": "address"
						},
						{
							"internalType": "uint256",
							"name": "tokenId",
							"type": "uint256"
						}
					],
					"name": "transferFrom",
					"outputs": [
						{
							"internalType": "bool",
							"name": "",
							"type": "bool"
						}
					],
					"stateMutability": "nonpayable",
					"type": "function"
				}
			],
			"devdoc": {
				"kind": "dev",
				"methods": {},
				"version": 1
			},
			"evm": {
				"assembly": "    /* \"NftExchanger.sol\":117:3025  contract NftExchanger {... */\n  mstore(0x40, 0x80)\n  callvalue\n  dup1\n  iszero\n  tag_1\n  jumpi\n  0x00\n  dup1\n  revert\ntag_1:\n  pop\n  dataSize(sub_0)\n  dup1\n  dataOffset(sub_0)\n  0x00\n  codecopy\n  0x00\n  return\nstop\n\nsub_0: assembly {\n        /* \"NftExchanger.sol\":117:3025  contract NftExchanger {... */\n      mstore(0x40, 0x80)\n      jumpi(tag_1, lt(calldatasize, 0x04))\n      shr(0xe0, calldataload(0x00))\n      dup1\n      0x62a638b9\n      gt\n      tag_10\n      jumpi\n      dup1\n      0x62a638b9\n      eq\n      tag_6\n      jumpi\n      dup1\n      0x6f45c033\n      eq\n      tag_7\n      jumpi\n      dup1\n      0x7cb95147\n      eq\n      tag_8\n      jumpi\n      dup1\n      0xd72df326\n      eq\n      tag_9\n      jumpi\n      jump(tag_1)\n    tag_10:\n      dup1\n      0x0f554ee1\n      eq\n      tag_2\n      jumpi\n      dup1\n      0x189ac995\n      eq\n      tag_3\n      jumpi\n      dup1\n      0x1fc38a8b\n      eq\n      tag_4\n      jumpi\n      dup1\n      0x3c6a15a7\n      eq\n      tag_5\n      jumpi\n    tag_1:\n      0x00\n      dup1\n      revert\n        /* \"NftExchanger.sol\":1613:2024  function applySale(... */\n    tag_2:\n      callvalue\n      dup1\n      iszero\n      tag_11\n      jumpi\n      0x00\n      dup1\n      revert\n    tag_11:\n      pop\n      tag_12\n      0x04\n      dup1\n      calldatasize\n      sub\n      dup2\n      add\n      swap1\n      tag_13\n      swap2\n      swap1\n      tag_14\n      jump\t// in\n    tag_13:\n      tag_15\n      jump\t// in\n    tag_12:\n      stop\n        /* \"NftExchanger.sol\":1199:1398  function makeTransfer(... */\n    tag_3:\n      callvalue\n      dup1\n      iszero\n      tag_16\n      jumpi\n      0x00\n      dup1\n      revert\n    tag_16:\n      pop\n      tag_17\n      0x04\n      dup1\n      calldatasize\n      sub\n      dup2\n      add\n      swap1\n      tag_18\n      swap2\n      swap1\n      tag_19\n      jump\t// in\n    tag_18:\n      tag_20\n      jump\t// in\n    tag_17:\n      stop\n        /* \"NftExchanger.sol\":671:1193  function transferFrom(... */\n    tag_4:\n      callvalue\n      dup1\n      iszero\n      tag_21\n      jumpi\n      0x00\n      dup1\n      revert\n    tag_21:\n      pop\n      tag_22\n      0x04\n      dup1\n      calldatasize\n      sub\n      dup2\n      add\n      swap1\n      tag_23\n      swap2\n      swap1\n      tag_19\n      jump\t// in\n    tag_23:\n      tag_24\n      jump\t// in\n    tag_22:\n      mload(0x40)\n      tag_25\n      swap2\n      swap1\n      tag_26\n      jump\t// in\n    tag_25:\n      mload(0x40)\n      dup1\n      swap2\n      sub\n      swap1\n      return\n        /* \"NftExchanger.sol\":1404:1496  function addNftList(string memory key, address CA) public {... */\n    tag_5:\n      callvalue\n      dup1\n      iszero\n      tag_27\n      jumpi\n      0x00\n      dup1\n      revert\n    tag_27:\n      pop\n      tag_28\n      0x04\n      dup1\n      calldatasize\n      sub\n      dup2\n      add\n      swap1\n      tag_29\n      swap2\n      swap1\n      tag_30\n      jump\t// in\n    tag_29:\n      tag_31\n      jump\t// in\n    tag_28:\n      stop\n        /* \"NftExchanger.sol\":2450:3023  function buySale(string memory nftKey, uint256 tokenId) public payable {... */\n    tag_6:\n      tag_32\n      0x04\n      dup1\n      calldatasize\n      sub\n      dup2\n      add\n      swap1\n      tag_33\n      swap2\n      swap1\n      tag_34\n      jump\t// in\n    tag_33:\n      tag_35\n      jump\t// in\n    tag_32:\n      stop\n        /* \"NftExchanger.sol\":553:594  mapping(string => address) public nftList */\n    tag_7:\n      callvalue\n      dup1\n      iszero\n      tag_36\n      jumpi\n      0x00\n      dup1\n      revert\n    tag_36:\n      pop\n      tag_37\n      0x04\n      dup1\n      calldatasize\n      sub\n      dup2\n      add\n      swap1\n      tag_38\n      swap2\n      swap1\n      tag_39\n      jump\t// in\n    tag_38:\n      tag_40\n      jump\t// in\n    tag_37:\n      mload(0x40)\n      tag_41\n      swap2\n      swap1\n      tag_42\n      jump\t// in\n    tag_41:\n      mload(0x40)\n      dup1\n      swap2\n      sub\n      swap1\n      return\n        /* \"NftExchanger.sol\":1502:1607  function getNftList(string memory key) public view returns (address) {... */\n    tag_8:\n      callvalue\n      dup1\n      iszero\n      tag_43\n      jumpi\n      0x00\n      dup1\n      revert\n    tag_43:\n      pop\n      tag_44\n      0x04\n      dup1\n      calldatasize\n      sub\n      dup2\n      add\n      swap1\n      tag_45\n      swap2\n      swap1\n      tag_39\n      jump\t// in\n    tag_45:\n      tag_46\n      jump\t// in\n    tag_44:\n      mload(0x40)\n      tag_47\n      swap2\n      swap1\n      tag_42\n      jump\t// in\n    tag_47:\n      mload(0x40)\n      dup1\n      swap2\n      sub\n      swap1\n      return\n        /* \"NftExchanger.sol\":2030:2444  function getSales(string memory nftKey, uint256 tokenId)... */\n    tag_9:\n      callvalue\n      dup1\n      iszero\n      tag_48\n      jumpi\n      0x00\n      dup1\n      revert\n    tag_48:\n      pop\n      tag_49\n      0x04\n      dup1\n      calldatasize\n      sub\n      dup2\n      add\n      swap1\n      tag_50\n      swap2\n      swap1\n      tag_34\n      jump\t// in\n    tag_50:\n      tag_51\n      jump\t// in\n    tag_49:\n      mload(0x40)\n      tag_52\n      swap4\n      swap3\n      swap2\n      swap1\n      tag_53\n      jump\t// in\n    tag_52:\n      mload(0x40)\n      dup1\n      swap2\n      sub\n      swap1\n      return\n        /* \"NftExchanger.sol\":1613:2024  function applySale(... */\n    tag_15:\n        /* \"NftExchanger.sol\":1799:1809  msg.sender */\n      caller\n        /* \"NftExchanger.sol\":1754:1809  IERC721(nftList[nftKey]).ownerOf(tokenId) == msg.sender */\n      0xffffffffffffffffffffffffffffffffffffffff\n      and\n        /* \"NftExchanger.sol\":1762:1769  nftList */\n      0x00\n        /* \"NftExchanger.sol\":1770:1776  nftKey */\n      dup5\n        /* \"NftExchanger.sol\":1762:1777  nftList[nftKey] */\n      mload(0x40)\n      tag_55\n      swap2\n      swap1\n      tag_56\n      jump\t// in\n    tag_55:\n      swap1\n      dup2\n      mstore\n      0x20\n      add\n      mload(0x40)\n      dup1\n      swap2\n      sub\n      swap1\n      keccak256\n      0x00\n      swap1\n      sload\n      swap1\n      0x0100\n      exp\n      swap1\n      div\n      0xffffffffffffffffffffffffffffffffffffffff\n      and\n        /* \"NftExchanger.sol\":1754:1786  IERC721(nftList[nftKey]).ownerOf */\n      0xffffffffffffffffffffffffffffffffffffffff\n      and\n      0x6352211e\n        /* \"NftExchanger.sol\":1787:1794  tokenId */\n      dup5\n        /* \"NftExchanger.sol\":1754:1795  IERC721(nftList[nftKey]).ownerOf(tokenId) */\n      mload(0x40)\n      dup3\n      0xffffffff\n      and\n      0xe0\n      shl\n      dup2\n      mstore\n      0x04\n      add\n      tag_57\n      swap2\n      swap1\n      tag_58\n      jump\t// in\n    tag_57:\n      0x20\n      mload(0x40)\n      dup1\n      dup4\n      sub\n      dup2\n      dup7\n      gas\n      staticcall\n      iszero\n      dup1\n      iszero\n      tag_60\n      jumpi\n      returndatasize\n      0x00\n      dup1\n      returndatacopy\n      revert(0x00, returndatasize)\n    tag_60:\n      pop\n      pop\n      pop\n      pop\n      mload(0x40)\n      returndatasize\n      not(0x1f)\n      0x1f\n      dup3\n      add\n      and\n      dup3\n      add\n      dup1\n      0x40\n      mstore\n      pop\n      dup2\n      add\n      swap1\n      tag_61\n      swap2\n      swap1\n      tag_62\n      jump\t// in\n    tag_61:\n        /* \"NftExchanger.sol\":1754:1809  IERC721(nftList[nftKey]).ownerOf(tokenId) == msg.sender */\n      0xffffffffffffffffffffffffffffffffffffffff\n      and\n      eq\n        /* \"NftExchanger.sol\":1733:1858  require(... */\n      tag_63\n      jumpi\n      mload(0x40)\n      0x08c379a000000000000000000000000000000000000000000000000000000000\n      dup2\n      mstore\n      0x04\n      add\n      tag_64\n      swap1\n      tag_65\n      jump\t// in\n    tag_64:\n      mload(0x40)\n      dup1\n      swap2\n      sub\n      swap1\n      revert\n    tag_63:\n        /* \"NftExchanger.sol\":1868:1881  address owner */\n      0x00\n        /* \"NftExchanger.sol\":1884:1894  msg.sender */\n      caller\n        /* \"NftExchanger.sol\":1868:1894  address owner = msg.sender */\n      swap1\n      pop\n        /* \"NftExchanger.sol\":1939:1970  SaleInfo(owner, tokenId, price) */\n      mload(0x40)\n      dup1\n      0x60\n      add\n      0x40\n      mstore\n      dup1\n        /* \"NftExchanger.sol\":1948:1953  owner */\n      dup3\n        /* \"NftExchanger.sol\":1939:1970  SaleInfo(owner, tokenId, price) */\n      0xffffffffffffffffffffffffffffffffffffffff\n      and\n      dup2\n      mstore\n      0x20\n      add\n        /* \"NftExchanger.sol\":1955:1962  tokenId */\n      dup5\n        /* \"NftExchanger.sol\":1939:1970  SaleInfo(owner, tokenId, price) */\n      dup2\n      mstore\n      0x20\n      add\n        /* \"NftExchanger.sol\":1964:1969  price */\n      dup4\n        /* \"NftExchanger.sol\":1939:1970  SaleInfo(owner, tokenId, price) */\n      dup2\n      mstore\n      pop\n        /* \"NftExchanger.sol\":1904:1910  _sales */\n      0x01\n        /* \"NftExchanger.sol\":1904:1927  _sales[nftList[nftKey]] */\n      0x00\n        /* \"NftExchanger.sol\":1911:1918  nftList */\n      dup1\n        /* \"NftExchanger.sol\":1919:1925  nftKey */\n      dup8\n        /* \"NftExchanger.sol\":1911:1926  nftList[nftKey] */\n      mload(0x40)\n      tag_66\n      swap2\n      swap1\n      tag_56\n      jump\t// in\n    tag_66:\n      swap1\n      dup2\n      mstore\n      0x20\n      add\n      mload(0x40)\n      dup1\n      swap2\n      sub\n      swap1\n      keccak256\n      0x00\n      swap1\n      sload\n      swap1\n      0x0100\n      exp\n      swap1\n      div\n      0xffffffffffffffffffffffffffffffffffffffff\n      and\n        /* \"NftExchanger.sol\":1904:1927  _sales[nftList[nftKey]] */\n      0xffffffffffffffffffffffffffffffffffffffff\n      and\n      0xffffffffffffffffffffffffffffffffffffffff\n      and\n      dup2\n      mstore\n      0x20\n      add\n      swap1\n      dup2\n      mstore\n      0x20\n      add\n      0x00\n      keccak256\n        /* \"NftExchanger.sol\":1904:1936  _sales[nftList[nftKey]][tokenId] */\n      0x00\n        /* \"NftExchanger.sol\":1928:1935  tokenId */\n      dup6\n        /* \"NftExchanger.sol\":1904:1936  _sales[nftList[nftKey]][tokenId] */\n      dup2\n      mstore\n      0x20\n      add\n      swap1\n      dup2\n      mstore\n      0x20\n      add\n      0x00\n      keccak256\n        /* \"NftExchanger.sol\":1904:1970  _sales[nftList[nftKey]][tokenId] = SaleInfo(owner, tokenId, price) */\n      0x00\n      dup3\n      add\n      mload\n      dup2\n      0x00\n      add\n      exp(0x0100, 0x00)\n      dup2\n      sload\n      dup2\n      0xffffffffffffffffffffffffffffffffffffffff\n      mul\n      not\n      and\n      swap1\n      dup4\n      0xffffffffffffffffffffffffffffffffffffffff\n      and\n      mul\n      or\n      swap1\n      sstore\n      pop\n      0x20\n      dup3\n      add\n      mload\n      dup2\n      0x01\n      add\n      sstore\n      0x40\n      dup3\n      add\n      mload\n      dup2\n      0x02\n      add\n      sstore\n      swap1\n      pop\n      pop\n        /* \"NftExchanger.sol\":1995:2000  owner */\n      dup1\n        /* \"NftExchanger.sol\":1985:2017  ApplySale(owner, tokenId, price) */\n      0xffffffffffffffffffffffffffffffffffffffff\n      and\n      0xb911999c14e328ac8b7fb638c99b435e23409f78db3d8c0c0be0494fdbfa076b\n        /* \"NftExchanger.sol\":2002:2009  tokenId */\n      dup5\n        /* \"NftExchanger.sol\":2011:2016  price */\n      dup5\n        /* \"NftExchanger.sol\":1985:2017  ApplySale(owner, tokenId, price) */\n      mload(0x40)\n      tag_67\n      swap3\n      swap2\n      swap1\n      tag_68\n      jump\t// in\n    tag_67:\n      mload(0x40)\n      dup1\n      swap2\n      sub\n      swap1\n      log2\n        /* \"NftExchanger.sol\":1723:2024  {... */\n      pop\n        /* \"NftExchanger.sol\":1613:2024  function applySale(... */\n      pop\n      pop\n      pop\n      jump\t// out\n        /* \"NftExchanger.sol\":1199:1398  function makeTransfer(... */\n    tag_20:\n        /* \"NftExchanger.sol\":1346:1353  nftList */\n      0x00\n        /* \"NftExchanger.sol\":1354:1357  key */\n      dup5\n        /* \"NftExchanger.sol\":1346:1358  nftList[key] */\n      mload(0x40)\n      tag_70\n      swap2\n      swap1\n      tag_56\n      jump\t// in\n    tag_70:\n      swap1\n      dup2\n      mstore\n      0x20\n      add\n      mload(0x40)\n      dup1\n      swap2\n      sub\n      swap1\n      keccak256\n      0x00\n      swap1\n      sload\n      swap1\n      0x0100\n      exp\n      swap1\n      div\n      0xffffffffffffffffffffffffffffffffffffffff\n      and\n        /* \"NftExchanger.sol\":1338:1372  IERC721(nftList[key]).transferFrom */\n      0xffffffffffffffffffffffffffffffffffffffff\n      and\n      0x23b872dd\n        /* \"NftExchanger.sol\":1373:1377  from */\n      dup5\n        /* \"NftExchanger.sol\":1379:1381  to */\n      dup5\n        /* \"NftExchanger.sol\":1383:1390  tokenId */\n      dup5\n        /* \"NftExchanger.sol\":1338:1391  IERC721(nftList[key]).transferFrom(from, to, tokenId) */\n      mload(0x40)\n      dup5\n      0xffffffff\n      and\n      0xe0\n      shl\n      dup2\n      mstore\n      0x04\n      add\n      tag_71\n      swap4\n      swap3\n      swap2\n      swap1\n      tag_72\n      jump\t// in\n    tag_71:\n      0x00\n      mload(0x40)\n      dup1\n      dup4\n      sub\n      dup2\n      0x00\n      dup8\n      dup1\n      extcodesize\n      iszero\n      dup1\n      iszero\n      tag_73\n      jumpi\n      0x00\n      dup1\n      revert\n    tag_73:\n      pop\n      gas\n      call\n      iszero\n      dup1\n      iszero\n      tag_75\n      jumpi\n      returndatasize\n      0x00\n      dup1\n      returndatacopy\n      revert(0x00, returndatasize)\n    tag_75:\n      pop\n      pop\n      pop\n      pop\n        /* \"NftExchanger.sol\":1199:1398  function makeTransfer(... */\n      pop\n      pop\n      pop\n      pop\n      jump\t// out\n        /* \"NftExchanger.sol\":671:1193  function transferFrom(... */\n    tag_24:\n        /* \"NftExchanger.sol\":812:816  bool */\n      0x00\n        /* \"NftExchanger.sol\":829:841  bool success */\n      dup1\n        /* \"NftExchanger.sol\":843:860  bytes memory data */\n      0x00\n        /* \"NftExchanger.sol\":864:871  nftList */\n      dup1\n        /* \"NftExchanger.sol\":872:878  nftKey */\n      dup8\n        /* \"NftExchanger.sol\":864:879  nftList[nftKey] */\n      mload(0x40)\n      tag_77\n      swap2\n      swap1\n      tag_56\n      jump\t// in\n    tag_77:\n      swap1\n      dup2\n      mstore\n      0x20\n      add\n      mload(0x40)\n      dup1\n      swap2\n      sub\n      swap1\n      keccak256\n      0x00\n      swap1\n      sload\n      swap1\n      0x0100\n      exp\n      swap1\n      div\n      0xffffffffffffffffffffffffffffffffffffffff\n      and\n        /* \"NftExchanger.sol\":864:884  nftList[nftKey].call */\n      0xffffffffffffffffffffffffffffffffffffffff\n      and\n        /* \"NftExchanger.sol\":996:1000  from */\n      dup7\n        /* \"NftExchanger.sol\":1018:1020  to */\n      dup7\n        /* \"NftExchanger.sol\":1038:1045  tokenId */\n      dup7\n        /* \"NftExchanger.sol\":898:1059  abi.encodeWithSignature(... */\n      add(0x24, mload(0x40))\n      tag_78\n      swap4\n      swap3\n      swap2\n      swap1\n      tag_72\n      jump\t// in\n    tag_78:\n      mload(0x40)\n      0x20\n      dup2\n      dup4\n      sub\n      sub\n      dup2\n      mstore\n      swap1\n      0x40\n      mstore\n      and(not(0xffffffffffffffffffffffffffffffffffffffffffffffffffffffff), 0x23b872dd00000000000000000000000000000000000000000000000000000000)\n      0x20\n      dup3\n      add\n      dup1\n      mload\n      0xffffffffffffffffffffffffffffffffffffffffffffffffffffffff\n      dup4\n      dup2\n      dup4\n      and\n      or\n      dup4\n      mstore\n      pop\n      pop\n      pop\n      pop\n        /* \"NftExchanger.sol\":864:1069  nftList[nftKey].call(... */\n      mload(0x40)\n      tag_79\n      swap2\n      swap1\n      tag_80\n      jump\t// in\n    tag_79:\n      0x00\n      mload(0x40)\n      dup1\n      dup4\n      sub\n      dup2\n      0x00\n      dup7\n      gas\n      call\n      swap2\n      pop\n      pop\n      returndatasize\n      dup1\n      0x00\n      dup2\n      eq\n      tag_83\n      jumpi\n      mload(0x40)\n      swap2\n      pop\n      and(add(returndatasize, 0x3f), not(0x1f))\n      dup3\n      add\n      0x40\n      mstore\n      returndatasize\n      dup3\n      mstore\n      returndatasize\n      0x00\n      0x20\n      dup5\n      add\n      returndatacopy\n      jump(tag_82)\n    tag_83:\n      0x60\n      swap2\n      pop\n    tag_82:\n      pop\n        /* \"NftExchanger.sol\":828:1069  (bool success, bytes memory data) = nftList[nftKey].call(... */\n      swap2\n      pop\n      swap2\n      pop\n        /* \"NftExchanger.sol\":1092:1099  nftList */\n      0x00\n        /* \"NftExchanger.sol\":1100:1106  nftKey */\n      dup8\n        /* \"NftExchanger.sol\":1092:1107  nftList[nftKey] */\n      mload(0x40)\n      tag_84\n      swap2\n      swap1\n      tag_56\n      jump\t// in\n    tag_84:\n      swap1\n      dup2\n      mstore\n      0x20\n      add\n      mload(0x40)\n      dup1\n      swap2\n      sub\n      swap1\n      keccak256\n      0x00\n      swap1\n      sload\n      swap1\n      0x0100\n      exp\n      swap1\n      div\n      0xffffffffffffffffffffffffffffffffffffffff\n      and\n        /* \"NftExchanger.sol\":1084:1108  CheckId(nftList[nftKey]) */\n      0xffffffffffffffffffffffffffffffffffffffff\n      and\n      0x3c0af5799896f1f2f61091409db5bc7fde7d0c8fd19edbfd9ea9ec04004d0d21\n      mload(0x40)\n      mload(0x40)\n      dup1\n      swap2\n      sub\n      swap1\n      log2\n        /* \"NftExchanger.sol\":1150:1152  to */\n      dup5\n        /* \"NftExchanger.sol\":1123:1162  TransferFrom(nftKey, from, to, tokenId) */\n      0xffffffffffffffffffffffffffffffffffffffff\n      and\n        /* \"NftExchanger.sol\":1144:1148  from */\n      dup7\n        /* \"NftExchanger.sol\":1123:1162  TransferFrom(nftKey, from, to, tokenId) */\n      0xffffffffffffffffffffffffffffffffffffffff\n      and\n      0x243b02b83fe16d70aa7408b729fd58347590d697b36ad1dd7a0796bb236efd3f\n        /* \"NftExchanger.sol\":1136:1142  nftKey */\n      dup10\n        /* \"NftExchanger.sol\":1154:1161  tokenId */\n      dup8\n        /* \"NftExchanger.sol\":1123:1162  TransferFrom(nftKey, from, to, tokenId) */\n      mload(0x40)\n      tag_85\n      swap3\n      swap2\n      swap1\n      tag_86\n      jump\t// in\n    tag_85:\n      mload(0x40)\n      dup1\n      swap2\n      sub\n      swap1\n      log3\n        /* \"NftExchanger.sol\":1179:1186  success */\n      dup2\n        /* \"NftExchanger.sol\":1172:1186  return success */\n      swap3\n      pop\n      pop\n      pop\n        /* \"NftExchanger.sol\":671:1193  function transferFrom(... */\n      swap5\n      swap4\n      pop\n      pop\n      pop\n      pop\n      jump\t// out\n        /* \"NftExchanger.sol\":1404:1496  function addNftList(string memory key, address CA) public {... */\n    tag_31:\n        /* \"NftExchanger.sol\":1487:1489  CA */\n      dup1\n        /* \"NftExchanger.sol\":1472:1479  nftList */\n      0x00\n        /* \"NftExchanger.sol\":1480:1483  key */\n      dup4\n        /* \"NftExchanger.sol\":1472:1484  nftList[key] */\n      mload(0x40)\n      tag_88\n      swap2\n      swap1\n      tag_56\n      jump\t// in\n    tag_88:\n      swap1\n      dup2\n      mstore\n      0x20\n      add\n      mload(0x40)\n      dup1\n      swap2\n      sub\n      swap1\n      keccak256\n      0x00\n        /* \"NftExchanger.sol\":1472:1489  nftList[key] = CA */\n      0x0100\n      exp\n      dup2\n      sload\n      dup2\n      0xffffffffffffffffffffffffffffffffffffffff\n      mul\n      not\n      and\n      swap1\n      dup4\n      0xffffffffffffffffffffffffffffffffffffffff\n      and\n      mul\n      or\n      swap1\n      sstore\n      pop\n        /* \"NftExchanger.sol\":1404:1496  function addNftList(string memory key, address CA) public {... */\n      pop\n      pop\n      jump\t// out\n        /* \"NftExchanger.sol\":2450:3023  function buySale(string memory nftKey, uint256 tokenId) public payable {... */\n    tag_35:\n        /* \"NftExchanger.sol\":2532:2546  address _owner */\n      0x00\n        /* \"NftExchanger.sol\":2548:2564  uint256 _tokenId */\n      dup1\n        /* \"NftExchanger.sol\":2566:2580  uint256 _price */\n      0x00\n        /* \"NftExchanger.sol\":2584:2643  getSales(... */\n      tag_90\n        /* \"NftExchanger.sol\":2606:2612  nftKey */\n      dup6\n        /* \"NftExchanger.sol\":2626:2633  tokenId */\n      dup6\n        /* \"NftExchanger.sol\":2584:2592  getSales */\n      tag_51\n        /* \"NftExchanger.sol\":2584:2643  getSales(... */\n      jump\t// in\n    tag_90:\n        /* \"NftExchanger.sol\":2531:2643  (address _owner, uint256 _tokenId, uint256 _price) = getSales(... */\n      swap3\n      pop\n      swap3\n      pop\n      swap3\n      pop\n        /* \"NftExchanger.sol\":2671:2680  msg.value */\n      callvalue\n        /* \"NftExchanger.sol\":2661:2667  _price */\n      dup2\n        /* \"NftExchanger.sol\":2661:2680  _price == msg.value */\n      eq\n        /* \"NftExchanger.sol\":2653:2681  require(_price == msg.value) */\n      tag_91\n      jumpi\n      0x00\n      dup1\n      revert\n    tag_91:\n        /* \"NftExchanger.sol\":2691:2713  address payable seller */\n      0x00\n        /* \"NftExchanger.sol\":2724:2730  _owner */\n      dup4\n        /* \"NftExchanger.sol\":2691:2731  address payable seller = payable(_owner) */\n      swap1\n      pop\n        /* \"NftExchanger.sol\":2741:2754  address buyer */\n      0x00\n        /* \"NftExchanger.sol\":2757:2767  msg.sender */\n      caller\n        /* \"NftExchanger.sol\":2741:2767  address buyer = msg.sender */\n      swap1\n      pop\n        /* \"NftExchanger.sol\":2777:2783  seller */\n      dup2\n        /* \"NftExchanger.sol\":2777:2792  seller.transfer */\n      0xffffffffffffffffffffffffffffffffffffffff\n      and\n        /* \"NftExchanger.sol\":2777:2803  seller.transfer(msg.value) */\n      0x08fc\n        /* \"NftExchanger.sol\":2793:2802  msg.value */\n      callvalue\n        /* \"NftExchanger.sol\":2777:2803  seller.transfer(msg.value) */\n      swap1\n      dup2\n      iszero\n      mul\n      swap1\n      mload(0x40)\n      0x00\n      mload(0x40)\n      dup1\n      dup4\n      sub\n      dup2\n      dup6\n      dup9\n      dup9\n      call\n      swap4\n      pop\n      pop\n      pop\n      pop\n      iszero\n      dup1\n      iszero\n      tag_93\n      jumpi\n      returndatasize\n      0x00\n      dup1\n      returndatacopy\n      revert(0x00, returndatasize)\n    tag_93:\n      pop\n        /* \"NftExchanger.sol\":2870:2914  makeTransfer(nftKey, _owner, buyer, tokenId) */\n      tag_94\n        /* \"NftExchanger.sol\":2883:2889  nftKey */\n      dup8\n        /* \"NftExchanger.sol\":2891:2897  _owner */\n      dup7\n        /* \"NftExchanger.sol\":2899:2904  buyer */\n      dup4\n        /* \"NftExchanger.sol\":2906:2913  tokenId */\n      dup10\n        /* \"NftExchanger.sol\":2870:2882  makeTransfer */\n      tag_20\n        /* \"NftExchanger.sol\":2870:2914  makeTransfer(nftKey, _owner, buyer, tokenId) */\n      jump\t// in\n    tag_94:\n        /* \"NftExchanger.sol\":2931:2937  _sales */\n      0x01\n        /* \"NftExchanger.sol\":2931:2954  _sales[nftList[nftKey]] */\n      0x00\n        /* \"NftExchanger.sol\":2938:2945  nftList */\n      dup1\n        /* \"NftExchanger.sol\":2946:2952  nftKey */\n      dup10\n        /* \"NftExchanger.sol\":2938:2953  nftList[nftKey] */\n      mload(0x40)\n      tag_95\n      swap2\n      swap1\n      tag_56\n      jump\t// in\n    tag_95:\n      swap1\n      dup2\n      mstore\n      0x20\n      add\n      mload(0x40)\n      dup1\n      swap2\n      sub\n      swap1\n      keccak256\n      0x00\n      swap1\n      sload\n      swap1\n      0x0100\n      exp\n      swap1\n      div\n      0xffffffffffffffffffffffffffffffffffffffff\n      and\n        /* \"NftExchanger.sol\":2931:2954  _sales[nftList[nftKey]] */\n      0xffffffffffffffffffffffffffffffffffffffff\n      and\n      0xffffffffffffffffffffffffffffffffffffffff\n      and\n      dup2\n      mstore\n      0x20\n      add\n      swap1\n      dup2\n      mstore\n      0x20\n      add\n      0x00\n      keccak256\n        /* \"NftExchanger.sol\":2931:2964  _sales[nftList[nftKey]][_tokenId] */\n      0x00\n        /* \"NftExchanger.sol\":2955:2963  _tokenId */\n      dup6\n        /* \"NftExchanger.sol\":2931:2964  _sales[nftList[nftKey]][_tokenId] */\n      dup2\n      mstore\n      0x20\n      add\n      swap1\n      dup2\n      mstore\n      0x20\n      add\n      0x00\n      keccak256\n      0x00\n        /* \"NftExchanger.sol\":2924:2964  delete _sales[nftList[nftKey]][_tokenId] */\n      dup1\n      dup3\n      add\n      exp(0x0100, 0x00)\n      dup2\n      sload\n      swap1\n      0xffffffffffffffffffffffffffffffffffffffff\n      mul\n      not\n      and\n      swap1\n      sstore\n      0x01\n      dup3\n      add\n      0x00\n      swap1\n      sstore\n      0x02\n      dup3\n      add\n      0x00\n      swap1\n      sstore\n      pop\n      pop\n        /* \"NftExchanger.sol\":2991:2997  seller */\n      dup2\n        /* \"NftExchanger.sol\":2979:3016  Sale(buyer, seller, _tokenId, _price) */\n      0xffffffffffffffffffffffffffffffffffffffff\n      and\n        /* \"NftExchanger.sol\":2984:2989  buyer */\n      dup2\n        /* \"NftExchanger.sol\":2979:3016  Sale(buyer, seller, _tokenId, _price) */\n      0xffffffffffffffffffffffffffffffffffffffff\n      and\n      0x681ddc67ea8796d2489979f5fc2ea2eb0f2d44ff3f11f061a191928a1f3d9a06\n        /* \"NftExchanger.sol\":2999:3007  _tokenId */\n      dup7\n        /* \"NftExchanger.sol\":3009:3015  _price */\n      dup7\n        /* \"NftExchanger.sol\":2979:3016  Sale(buyer, seller, _tokenId, _price) */\n      mload(0x40)\n      tag_96\n      swap3\n      swap2\n      swap1\n      tag_68\n      jump\t// in\n    tag_96:\n      mload(0x40)\n      dup1\n      swap2\n      sub\n      swap1\n      log3\n        /* \"NftExchanger.sol\":2521:3023  {... */\n      pop\n      pop\n      pop\n      pop\n      pop\n        /* \"NftExchanger.sol\":2450:3023  function buySale(string memory nftKey, uint256 tokenId) public payable {... */\n      pop\n      pop\n      jump\t// out\n        /* \"NftExchanger.sol\":553:594  mapping(string => address) public nftList */\n    tag_40:\n      0x00\n      dup2\n      dup1\n      mload\n      0x20\n      dup2\n      add\n      dup3\n      add\n      dup1\n      mload\n      dup5\n      dup3\n      mstore\n      0x20\n      dup4\n      add\n      0x20\n      dup6\n      add\n      keccak256\n      dup2\n      dup4\n      mstore\n      dup1\n      swap6\n      pop\n      pop\n      pop\n      pop\n      pop\n      pop\n      0x00\n      swap2\n      pop\n      sload\n      swap1\n      0x0100\n      exp\n      swap1\n      div\n      0xffffffffffffffffffffffffffffffffffffffff\n      and\n      dup2\n      jump\t// out\n        /* \"NftExchanger.sol\":1502:1607  function getNftList(string memory key) public view returns (address) {... */\n    tag_46:\n        /* \"NftExchanger.sol\":1562:1569  address */\n      0x00\n        /* \"NftExchanger.sol\":1588:1595  nftList */\n      dup1\n        /* \"NftExchanger.sol\":1596:1599  key */\n      dup3\n        /* \"NftExchanger.sol\":1588:1600  nftList[key] */\n      mload(0x40)\n      tag_98\n      swap2\n      swap1\n      tag_56\n      jump\t// in\n    tag_98:\n      swap1\n      dup2\n      mstore\n      0x20\n      add\n      mload(0x40)\n      dup1\n      swap2\n      sub\n      swap1\n      keccak256\n      0x00\n      swap1\n      sload\n      swap1\n      0x0100\n      exp\n      swap1\n      div\n      0xffffffffffffffffffffffffffffffffffffffff\n      and\n        /* \"NftExchanger.sol\":1581:1600  return nftList[key] */\n      swap1\n      pop\n        /* \"NftExchanger.sol\":1502:1607  function getNftList(string memory key) public view returns (address) {... */\n      swap2\n      swap1\n      pop\n      jump\t// out\n        /* \"NftExchanger.sol\":2030:2444  function getSales(string memory nftKey, uint256 tokenId)... */\n    tag_51:\n        /* \"NftExchanger.sol\":2145:2152  address */\n      0x00\n        /* \"NftExchanger.sol\":2166:2173  uint256 */\n      dup1\n        /* \"NftExchanger.sol\":2187:2194  uint256 */\n      0x00\n        /* \"NftExchanger.sol\":2219:2240  SaleInfo memory _sale */\n      dup1\n        /* \"NftExchanger.sol\":2243:2249  _sales */\n      0x01\n        /* \"NftExchanger.sol\":2243:2266  _sales[nftList[nftKey]] */\n      0x00\n        /* \"NftExchanger.sol\":2250:2257  nftList */\n      dup1\n        /* \"NftExchanger.sol\":2258:2264  nftKey */\n      dup9\n        /* \"NftExchanger.sol\":2250:2265  nftList[nftKey] */\n      mload(0x40)\n      tag_100\n      swap2\n      swap1\n      tag_56\n      jump\t// in\n    tag_100:\n      swap1\n      dup2\n      mstore\n      0x20\n      add\n      mload(0x40)\n      dup1\n      swap2\n      sub\n      swap1\n      keccak256\n      0x00\n      swap1\n      sload\n      swap1\n      0x0100\n      exp\n      swap1\n      div\n      0xffffffffffffffffffffffffffffffffffffffff\n      and\n        /* \"NftExchanger.sol\":2243:2266  _sales[nftList[nftKey]] */\n      0xffffffffffffffffffffffffffffffffffffffff\n      and\n      0xffffffffffffffffffffffffffffffffffffffff\n      and\n      dup2\n      mstore\n      0x20\n      add\n      swap1\n      dup2\n      mstore\n      0x20\n      add\n      0x00\n      keccak256\n        /* \"NftExchanger.sol\":2243:2275  _sales[nftList[nftKey]][tokenId] */\n      0x00\n        /* \"NftExchanger.sol\":2267:2274  tokenId */\n      dup7\n        /* \"NftExchanger.sol\":2243:2275  _sales[nftList[nftKey]][tokenId] */\n      dup2\n      mstore\n      0x20\n      add\n      swap1\n      dup2\n      mstore\n      0x20\n      add\n      0x00\n      keccak256\n        /* \"NftExchanger.sol\":2219:2275  SaleInfo memory _sale = _sales[nftList[nftKey]][tokenId] */\n      mload(0x40)\n      dup1\n      0x60\n      add\n      0x40\n      mstore\n      swap1\n      dup2\n      0x00\n      dup3\n      add\n      0x00\n      swap1\n      sload\n      swap1\n      0x0100\n      exp\n      swap1\n      div\n      0xffffffffffffffffffffffffffffffffffffffff\n      and\n      0xffffffffffffffffffffffffffffffffffffffff\n      and\n      0xffffffffffffffffffffffffffffffffffffffff\n      and\n      dup2\n      mstore\n      0x20\n      add\n      0x01\n      dup3\n      add\n      sload\n      dup2\n      mstore\n      0x20\n      add\n      0x02\n      dup3\n      add\n      sload\n      dup2\n      mstore\n      pop\n      pop\n      swap1\n      pop\n        /* \"NftExchanger.sol\":2285:2299  address _owner */\n      0x00\n        /* \"NftExchanger.sol\":2302:2307  _sale */\n      dup2\n        /* \"NftExchanger.sol\":2302:2313  _sale.onwer */\n      0x00\n      add\n      mload\n        /* \"NftExchanger.sol\":2285:2313  address _owner = _sale.onwer */\n      swap1\n      pop\n        /* \"NftExchanger.sol\":2323:2339  uint256 _tokenId */\n      0x00\n        /* \"NftExchanger.sol\":2342:2347  _sale */\n      dup3\n        /* \"NftExchanger.sol\":2342:2355  _sale.tokenId */\n      0x20\n      add\n      mload\n        /* \"NftExchanger.sol\":2323:2355  uint256 _tokenId = _sale.tokenId */\n      swap1\n      pop\n        /* \"NftExchanger.sol\":2365:2379  uint256 _price */\n      0x00\n        /* \"NftExchanger.sol\":2382:2387  _sale */\n      dup4\n        /* \"NftExchanger.sol\":2382:2393  _sale.price */\n      0x40\n      add\n      mload\n        /* \"NftExchanger.sol\":2365:2393  uint256 _price = _sale.price */\n      swap1\n      pop\n        /* \"NftExchanger.sol\":2412:2418  _owner */\n      dup3\n        /* \"NftExchanger.sol\":2420:2428  _tokenId */\n      dup3\n        /* \"NftExchanger.sol\":2430:2436  _price */\n      dup3\n        /* \"NftExchanger.sol\":2404:2437  return (_owner, _tokenId, _price) */\n      swap7\n      pop\n      swap7\n      pop\n      swap7\n      pop\n      pop\n      pop\n      pop\n      pop\n        /* \"NftExchanger.sol\":2030:2444  function getSales(string memory nftKey, uint256 tokenId)... */\n      swap3\n      pop\n      swap3\n      pop\n      swap3\n      jump\t// out\n        /* \"#utility.yul\":7:82   */\n    tag_101:\n        /* \"#utility.yul\":40:46   */\n      0x00\n        /* \"#utility.yul\":73:75   */\n      0x40\n        /* \"#utility.yul\":67:76   */\n      mload\n        /* \"#utility.yul\":57:76   */\n      swap1\n      pop\n        /* \"#utility.yul\":7:82   */\n      swap1\n      jump\t// out\n        /* \"#utility.yul\":88:205   */\n    tag_102:\n        /* \"#utility.yul\":197:198   */\n      0x00\n        /* \"#utility.yul\":194:195   */\n      dup1\n        /* \"#utility.yul\":187:199   */\n      revert\n        /* \"#utility.yul\":211:328   */\n    tag_103:\n        /* \"#utility.yul\":320:321   */\n      0x00\n        /* \"#utility.yul\":317:318   */\n      dup1\n        /* \"#utility.yul\":310:322   */\n      revert\n        /* \"#utility.yul\":334:451   */\n    tag_104:\n        /* \"#utility.yul\":443:444   */\n      0x00\n        /* \"#utility.yul\":440:441   */\n      dup1\n        /* \"#utility.yul\":433:445   */\n      revert\n        /* \"#utility.yul\":457:574   */\n    tag_105:\n        /* \"#utility.yul\":566:567   */\n      0x00\n        /* \"#utility.yul\":563:564   */\n      dup1\n        /* \"#utility.yul\":556:568   */\n      revert\n        /* \"#utility.yul\":580:682   */\n    tag_106:\n        /* \"#utility.yul\":621:627   */\n      0x00\n        /* \"#utility.yul\":672:674   */\n      0x1f\n        /* \"#utility.yul\":668:675   */\n      not\n        /* \"#utility.yul\":663:665   */\n      0x1f\n        /* \"#utility.yul\":656:661   */\n      dup4\n        /* \"#utility.yul\":652:666   */\n      add\n        /* \"#utility.yul\":648:676   */\n      and\n        /* \"#utility.yul\":638:676   */\n      swap1\n      pop\n        /* \"#utility.yul\":580:682   */\n      swap2\n      swap1\n      pop\n      jump\t// out\n        /* \"#utility.yul\":688:868   */\n    tag_107:\n        /* \"#utility.yul\":736:813   */\n      0x4e487b7100000000000000000000000000000000000000000000000000000000\n        /* \"#utility.yul\":733:734   */\n      0x00\n        /* \"#utility.yul\":726:814   */\n      mstore\n        /* \"#utility.yul\":833:837   */\n      0x41\n        /* \"#utility.yul\":830:831   */\n      0x04\n        /* \"#utility.yul\":823:838   */\n      mstore\n        /* \"#utility.yul\":857:861   */\n      0x24\n        /* \"#utility.yul\":854:855   */\n      0x00\n        /* \"#utility.yul\":847:862   */\n      revert\n        /* \"#utility.yul\":874:1155   */\n    tag_108:\n        /* \"#utility.yul\":957:984   */\n      tag_146\n        /* \"#utility.yul\":979:983   */\n      dup3\n        /* \"#utility.yul\":957:984   */\n      tag_106\n      jump\t// in\n    tag_146:\n        /* \"#utility.yul\":949:955   */\n      dup2\n        /* \"#utility.yul\":945:985   */\n      add\n        /* \"#utility.yul\":1087:1093   */\n      dup2\n        /* \"#utility.yul\":1075:1085   */\n      dup2\n        /* \"#utility.yul\":1072:1094   */\n      lt\n        /* \"#utility.yul\":1051:1069   */\n      0xffffffffffffffff\n        /* \"#utility.yul\":1039:1049   */\n      dup3\n        /* \"#utility.yul\":1036:1070   */\n      gt\n        /* \"#utility.yul\":1033:1095   */\n      or\n        /* \"#utility.yul\":1030:1118   */\n      iszero\n      tag_147\n      jumpi\n        /* \"#utility.yul\":1098:1116   */\n      tag_148\n      tag_107\n      jump\t// in\n    tag_148:\n        /* \"#utility.yul\":1030:1118   */\n    tag_147:\n        /* \"#utility.yul\":1138:1148   */\n      dup1\n        /* \"#utility.yul\":1134:1136   */\n      0x40\n        /* \"#utility.yul\":1127:1149   */\n      mstore\n        /* \"#utility.yul\":917:1155   */\n      pop\n        /* \"#utility.yul\":874:1155   */\n      pop\n      pop\n      jump\t// out\n        /* \"#utility.yul\":1161:1290   */\n    tag_109:\n        /* \"#utility.yul\":1195:1201   */\n      0x00\n        /* \"#utility.yul\":1222:1242   */\n      tag_150\n      tag_101\n      jump\t// in\n    tag_150:\n        /* \"#utility.yul\":1212:1242   */\n      swap1\n      pop\n        /* \"#utility.yul\":1251:1284   */\n      tag_151\n        /* \"#utility.yul\":1279:1283   */\n      dup3\n        /* \"#utility.yul\":1271:1277   */\n      dup3\n        /* \"#utility.yul\":1251:1284   */\n      tag_108\n      jump\t// in\n    tag_151:\n        /* \"#utility.yul\":1161:1290   */\n      swap2\n      swap1\n      pop\n      jump\t// out\n        /* \"#utility.yul\":1296:1604   */\n    tag_110:\n        /* \"#utility.yul\":1358:1362   */\n      0x00\n        /* \"#utility.yul\":1448:1466   */\n      0xffffffffffffffff\n        /* \"#utility.yul\":1440:1446   */\n      dup3\n        /* \"#utility.yul\":1437:1467   */\n      gt\n        /* \"#utility.yul\":1434:1490   */\n      iszero\n      tag_153\n      jumpi\n        /* \"#utility.yul\":1470:1488   */\n      tag_154\n      tag_107\n      jump\t// in\n    tag_154:\n        /* \"#utility.yul\":1434:1490   */\n    tag_153:\n        /* \"#utility.yul\":1508:1537   */\n      tag_155\n        /* \"#utility.yul\":1530:1536   */\n      dup3\n        /* \"#utility.yul\":1508:1537   */\n      tag_106\n      jump\t// in\n    tag_155:\n        /* \"#utility.yul\":1500:1537   */\n      swap1\n      pop\n        /* \"#utility.yul\":1592:1596   */\n      0x20\n        /* \"#utility.yul\":1586:1590   */\n      dup2\n        /* \"#utility.yul\":1582:1597   */\n      add\n        /* \"#utility.yul\":1574:1597   */\n      swap1\n      pop\n        /* \"#utility.yul\":1296:1604   */\n      swap2\n      swap1\n      pop\n      jump\t// out\n        /* \"#utility.yul\":1610:1756   */\n    tag_111:\n        /* \"#utility.yul\":1707:1713   */\n      dup3\n        /* \"#utility.yul\":1702:1705   */\n      dup2\n        /* \"#utility.yul\":1697:1700   */\n      dup4\n        /* \"#utility.yul\":1684:1714   */\n      calldatacopy\n        /* \"#utility.yul\":1748:1749   */\n      0x00\n        /* \"#utility.yul\":1739:1745   */\n      dup4\n        /* \"#utility.yul\":1734:1737   */\n      dup4\n        /* \"#utility.yul\":1730:1746   */\n      add\n        /* \"#utility.yul\":1723:1750   */\n      mstore\n        /* \"#utility.yul\":1610:1756   */\n      pop\n      pop\n      pop\n      jump\t// out\n        /* \"#utility.yul\":1762:2187   */\n    tag_112:\n        /* \"#utility.yul\":1840:1845   */\n      0x00\n        /* \"#utility.yul\":1865:1931   */\n      tag_158\n        /* \"#utility.yul\":1881:1930   */\n      tag_159\n        /* \"#utility.yul\":1923:1929   */\n      dup5\n        /* \"#utility.yul\":1881:1930   */\n      tag_110\n      jump\t// in\n    tag_159:\n        /* \"#utility.yul\":1865:1931   */\n      tag_109\n      jump\t// in\n    tag_158:\n        /* \"#utility.yul\":1856:1931   */\n      swap1\n      pop\n        /* \"#utility.yul\":1954:1960   */\n      dup3\n        /* \"#utility.yul\":1947:1952   */\n      dup2\n        /* \"#utility.yul\":1940:1961   */\n      mstore\n        /* \"#utility.yul\":1992:1996   */\n      0x20\n        /* \"#utility.yul\":1985:1990   */\n      dup2\n        /* \"#utility.yul\":1981:1997   */\n      add\n        /* \"#utility.yul\":2030:2033   */\n      dup5\n        /* \"#utility.yul\":2021:2027   */\n      dup5\n        /* \"#utility.yul\":2016:2019   */\n      dup5\n        /* \"#utility.yul\":2012:2028   */\n      add\n        /* \"#utility.yul\":2009:2034   */\n      gt\n        /* \"#utility.yul\":2006:2118   */\n      iszero\n      tag_160\n      jumpi\n        /* \"#utility.yul\":2037:2116   */\n      tag_161\n      tag_105\n      jump\t// in\n    tag_161:\n        /* \"#utility.yul\":2006:2118   */\n    tag_160:\n        /* \"#utility.yul\":2127:2181   */\n      tag_162\n        /* \"#utility.yul\":2174:2180   */\n      dup5\n        /* \"#utility.yul\":2169:2172   */\n      dup3\n        /* \"#utility.yul\":2164:2167   */\n      dup6\n        /* \"#utility.yul\":2127:2181   */\n      tag_111\n      jump\t// in\n    tag_162:\n        /* \"#utility.yul\":1846:2187   */\n      pop\n        /* \"#utility.yul\":1762:2187   */\n      swap4\n      swap3\n      pop\n      pop\n      pop\n      jump\t// out\n        /* \"#utility.yul\":2207:2547   */\n    tag_113:\n        /* \"#utility.yul\":2263:2268   */\n      0x00\n        /* \"#utility.yul\":2312:2315   */\n      dup3\n        /* \"#utility.yul\":2305:2309   */\n      0x1f\n        /* \"#utility.yul\":2297:2303   */\n      dup4\n        /* \"#utility.yul\":2293:2310   */\n      add\n        /* \"#utility.yul\":2289:2316   */\n      slt\n        /* \"#utility.yul\":2279:2401   */\n      tag_164\n      jumpi\n        /* \"#utility.yul\":2320:2399   */\n      tag_165\n      tag_104\n      jump\t// in\n    tag_165:\n        /* \"#utility.yul\":2279:2401   */\n    tag_164:\n        /* \"#utility.yul\":2437:2443   */\n      dup2\n        /* \"#utility.yul\":2424:2444   */\n      calldataload\n        /* \"#utility.yul\":2462:2541   */\n      tag_166\n        /* \"#utility.yul\":2537:2540   */\n      dup5\n        /* \"#utility.yul\":2529:2535   */\n      dup3\n        /* \"#utility.yul\":2522:2526   */\n      0x20\n        /* \"#utility.yul\":2514:2520   */\n      dup7\n        /* \"#utility.yul\":2510:2527   */\n      add\n        /* \"#utility.yul\":2462:2541   */\n      tag_112\n      jump\t// in\n    tag_166:\n        /* \"#utility.yul\":2453:2541   */\n      swap2\n      pop\n        /* \"#utility.yul\":2269:2547   */\n      pop\n        /* \"#utility.yul\":2207:2547   */\n      swap3\n      swap2\n      pop\n      pop\n      jump\t// out\n        /* \"#utility.yul\":2553:2630   */\n    tag_114:\n        /* \"#utility.yul\":2590:2597   */\n      0x00\n        /* \"#utility.yul\":2619:2624   */\n      dup2\n        /* \"#utility.yul\":2608:2624   */\n      swap1\n      pop\n        /* \"#utility.yul\":2553:2630   */\n      swap2\n      swap1\n      pop\n      jump\t// out\n        /* \"#utility.yul\":2636:2758   */\n    tag_115:\n        /* \"#utility.yul\":2709:2733   */\n      tag_169\n        /* \"#utility.yul\":2727:2732   */\n      dup2\n        /* \"#utility.yul\":2709:2733   */\n      tag_114\n      jump\t// in\n    tag_169:\n        /* \"#utility.yul\":2702:2707   */\n      dup2\n        /* \"#utility.yul\":2699:2734   */\n      eq\n        /* \"#utility.yul\":2689:2752   */\n      tag_170\n      jumpi\n        /* \"#utility.yul\":2748:2749   */\n      0x00\n        /* \"#utility.yul\":2745:2746   */\n      dup1\n        /* \"#utility.yul\":2738:2750   */\n      revert\n        /* \"#utility.yul\":2689:2752   */\n    tag_170:\n        /* \"#utility.yul\":2636:2758   */\n      pop\n      jump\t// out\n        /* \"#utility.yul\":2764:2903   */\n    tag_116:\n        /* \"#utility.yul\":2810:2815   */\n      0x00\n        /* \"#utility.yul\":2848:2854   */\n      dup2\n        /* \"#utility.yul\":2835:2855   */\n      calldataload\n        /* \"#utility.yul\":2826:2855   */\n      swap1\n      pop\n        /* \"#utility.yul\":2864:2897   */\n      tag_172\n        /* \"#utility.yul\":2891:2896   */\n      dup2\n        /* \"#utility.yul\":2864:2897   */\n      tag_115\n      jump\t// in\n    tag_172:\n        /* \"#utility.yul\":2764:2903   */\n      swap3\n      swap2\n      pop\n      pop\n      jump\t// out\n        /* \"#utility.yul\":2909:3708   */\n    tag_14:\n        /* \"#utility.yul\":2996:3002   */\n      0x00\n        /* \"#utility.yul\":3004:3010   */\n      dup1\n        /* \"#utility.yul\":3012:3018   */\n      0x00\n        /* \"#utility.yul\":3061:3063   */\n      0x60\n        /* \"#utility.yul\":3049:3058   */\n      dup5\n        /* \"#utility.yul\":3040:3047   */\n      dup7\n        /* \"#utility.yul\":3036:3059   */\n      sub\n        /* \"#utility.yul\":3032:3064   */\n      slt\n        /* \"#utility.yul\":3029:3148   */\n      iszero\n      tag_174\n      jumpi\n        /* \"#utility.yul\":3067:3146   */\n      tag_175\n      tag_102\n      jump\t// in\n    tag_175:\n        /* \"#utility.yul\":3029:3148   */\n    tag_174:\n        /* \"#utility.yul\":3215:3216   */\n      0x00\n        /* \"#utility.yul\":3204:3213   */\n      dup5\n        /* \"#utility.yul\":3200:3217   */\n      add\n        /* \"#utility.yul\":3187:3218   */\n      calldataload\n        /* \"#utility.yul\":3245:3263   */\n      0xffffffffffffffff\n        /* \"#utility.yul\":3237:3243   */\n      dup2\n        /* \"#utility.yul\":3234:3264   */\n      gt\n        /* \"#utility.yul\":3231:3348   */\n      iszero\n      tag_176\n      jumpi\n        /* \"#utility.yul\":3267:3346   */\n      tag_177\n      tag_103\n      jump\t// in\n    tag_177:\n        /* \"#utility.yul\":3231:3348   */\n    tag_176:\n        /* \"#utility.yul\":3372:3435   */\n      tag_178\n        /* \"#utility.yul\":3427:3434   */\n      dup7\n        /* \"#utility.yul\":3418:3424   */\n      dup3\n        /* \"#utility.yul\":3407:3416   */\n      dup8\n        /* \"#utility.yul\":3403:3425   */\n      add\n        /* \"#utility.yul\":3372:3435   */\n      tag_113\n      jump\t// in\n    tag_178:\n        /* \"#utility.yul\":3362:3435   */\n      swap4\n      pop\n        /* \"#utility.yul\":3158:3445   */\n      pop\n        /* \"#utility.yul\":3484:3486   */\n      0x20\n        /* \"#utility.yul\":3510:3563   */\n      tag_179\n        /* \"#utility.yul\":3555:3562   */\n      dup7\n        /* \"#utility.yul\":3546:3552   */\n      dup3\n        /* \"#utility.yul\":3535:3544   */\n      dup8\n        /* \"#utility.yul\":3531:3553   */\n      add\n        /* \"#utility.yul\":3510:3563   */\n      tag_116\n      jump\t// in\n    tag_179:\n        /* \"#utility.yul\":3500:3563   */\n      swap3\n      pop\n        /* \"#utility.yul\":3455:3573   */\n      pop\n        /* \"#utility.yul\":3612:3614   */\n      0x40\n        /* \"#utility.yul\":3638:3691   */\n      tag_180\n        /* \"#utility.yul\":3683:3690   */\n      dup7\n        /* \"#utility.yul\":3674:3680   */\n      dup3\n        /* \"#utility.yul\":3663:3672   */\n      dup8\n        /* \"#utility.yul\":3659:3681   */\n      add\n        /* \"#utility.yul\":3638:3691   */\n      tag_116\n      jump\t// in\n    tag_180:\n        /* \"#utility.yul\":3628:3691   */\n      swap2\n      pop\n        /* \"#utility.yul\":3583:3701   */\n      pop\n        /* \"#utility.yul\":2909:3708   */\n      swap3\n      pop\n      swap3\n      pop\n      swap3\n      jump\t// out\n        /* \"#utility.yul\":3714:3840   */\n    tag_117:\n        /* \"#utility.yul\":3751:3758   */\n      0x00\n        /* \"#utility.yul\":3791:3833   */\n      0xffffffffffffffffffffffffffffffffffffffff\n        /* \"#utility.yul\":3784:3789   */\n      dup3\n        /* \"#utility.yul\":3780:3834   */\n      and\n        /* \"#utility.yul\":3769:3834   */\n      swap1\n      pop\n        /* \"#utility.yul\":3714:3840   */\n      swap2\n      swap1\n      pop\n      jump\t// out\n        /* \"#utility.yul\":3846:3942   */\n    tag_118:\n        /* \"#utility.yul\":3883:3890   */\n      0x00\n        /* \"#utility.yul\":3912:3936   */\n      tag_183\n        /* \"#utility.yul\":3930:3935   */\n      dup3\n        /* \"#utility.yul\":3912:3936   */\n      tag_117\n      jump\t// in\n    tag_183:\n        /* \"#utility.yul\":3901:3936   */\n      swap1\n      pop\n        /* \"#utility.yul\":3846:3942   */\n      swap2\n      swap1\n      pop\n      jump\t// out\n        /* \"#utility.yul\":3948:4070   */\n    tag_119:\n        /* \"#utility.yul\":4021:4045   */\n      tag_185\n        /* \"#utility.yul\":4039:4044   */\n      dup2\n        /* \"#utility.yul\":4021:4045   */\n      tag_118\n      jump\t// in\n    tag_185:\n        /* \"#utility.yul\":4014:4019   */\n      dup2\n        /* \"#utility.yul\":4011:4046   */\n      eq\n        /* \"#utility.yul\":4001:4064   */\n      tag_186\n      jumpi\n        /* \"#utility.yul\":4060:4061   */\n      0x00\n        /* \"#utility.yul\":4057:4058   */\n      dup1\n        /* \"#utility.yul\":4050:4062   */\n      revert\n        /* \"#utility.yul\":4001:4064   */\n    tag_186:\n        /* \"#utility.yul\":3948:4070   */\n      pop\n      jump\t// out\n        /* \"#utility.yul\":4076:4215   */\n    tag_120:\n        /* \"#utility.yul\":4122:4127   */\n      0x00\n        /* \"#utility.yul\":4160:4166   */\n      dup2\n        /* \"#utility.yul\":4147:4167   */\n      calldataload\n        /* \"#utility.yul\":4138:4167   */\n      swap1\n      pop\n        /* \"#utility.yul\":4176:4209   */\n      tag_188\n        /* \"#utility.yul\":4203:4208   */\n      dup2\n        /* \"#utility.yul\":4176:4209   */\n      tag_119\n      jump\t// in\n    tag_188:\n        /* \"#utility.yul\":4076:4215   */\n      swap3\n      swap2\n      pop\n      pop\n      jump\t// out\n        /* \"#utility.yul\":4221:5166   */\n    tag_19:\n        /* \"#utility.yul\":4317:4323   */\n      0x00\n        /* \"#utility.yul\":4325:4331   */\n      dup1\n        /* \"#utility.yul\":4333:4339   */\n      0x00\n        /* \"#utility.yul\":4341:4347   */\n      dup1\n        /* \"#utility.yul\":4390:4393   */\n      0x80\n        /* \"#utility.yul\":4378:4387   */\n      dup6\n        /* \"#utility.yul\":4369:4376   */\n      dup8\n        /* \"#utility.yul\":4365:4388   */\n      sub\n        /* \"#utility.yul\":4361:4394   */\n      slt\n        /* \"#utility.yul\":4358:4478   */\n      iszero\n      tag_190\n      jumpi\n        /* \"#utility.yul\":4397:4476   */\n      tag_191\n      tag_102\n      jump\t// in\n    tag_191:\n        /* \"#utility.yul\":4358:4478   */\n    tag_190:\n        /* \"#utility.yul\":4545:4546   */\n      0x00\n        /* \"#utility.yul\":4534:4543   */\n      dup6\n        /* \"#utility.yul\":4530:4547   */\n      add\n        /* \"#utility.yul\":4517:4548   */\n      calldataload\n        /* \"#utility.yul\":4575:4593   */\n      0xffffffffffffffff\n        /* \"#utility.yul\":4567:4573   */\n      dup2\n        /* \"#utility.yul\":4564:4594   */\n      gt\n        /* \"#utility.yul\":4561:4678   */\n      iszero\n      tag_192\n      jumpi\n        /* \"#utility.yul\":4597:4676   */\n      tag_193\n      tag_103\n      jump\t// in\n    tag_193:\n        /* \"#utility.yul\":4561:4678   */\n    tag_192:\n        /* \"#utility.yul\":4702:4765   */\n      tag_194\n        /* \"#utility.yul\":4757:4764   */\n      dup8\n        /* \"#utility.yul\":4748:4754   */\n      dup3\n        /* \"#utility.yul\":4737:4746   */\n      dup9\n        /* \"#utility.yul\":4733:4755   */\n      add\n        /* \"#utility.yul\":4702:4765   */\n      tag_113\n      jump\t// in\n    tag_194:\n        /* \"#utility.yul\":4692:4765   */\n      swap5\n      pop\n        /* \"#utility.yul\":4488:4775   */\n      pop\n        /* \"#utility.yul\":4814:4816   */\n      0x20\n        /* \"#utility.yul\":4840:4893   */\n      tag_195\n        /* \"#utility.yul\":4885:4892   */\n      dup8\n        /* \"#utility.yul\":4876:4882   */\n      dup3\n        /* \"#utility.yul\":4865:4874   */\n      dup9\n        /* \"#utility.yul\":4861:4883   */\n      add\n        /* \"#utility.yul\":4840:4893   */\n      tag_120\n      jump\t// in\n    tag_195:\n        /* \"#utility.yul\":4830:4893   */\n      swap4\n      pop\n        /* \"#utility.yul\":4785:4903   */\n      pop\n        /* \"#utility.yul\":4942:4944   */\n      0x40\n        /* \"#utility.yul\":4968:5021   */\n      tag_196\n        /* \"#utility.yul\":5013:5020   */\n      dup8\n        /* \"#utility.yul\":5004:5010   */\n      dup3\n        /* \"#utility.yul\":4993:5002   */\n      dup9\n        /* \"#utility.yul\":4989:5011   */\n      add\n        /* \"#utility.yul\":4968:5021   */\n      tag_120\n      jump\t// in\n    tag_196:\n        /* \"#utility.yul\":4958:5021   */\n      swap3\n      pop\n        /* \"#utility.yul\":4913:5031   */\n      pop\n        /* \"#utility.yul\":5070:5072   */\n      0x60\n        /* \"#utility.yul\":5096:5149   */\n      tag_197\n        /* \"#utility.yul\":5141:5148   */\n      dup8\n        /* \"#utility.yul\":5132:5138   */\n      dup3\n        /* \"#utility.yul\":5121:5130   */\n      dup9\n        /* \"#utility.yul\":5117:5139   */\n      add\n        /* \"#utility.yul\":5096:5149   */\n      tag_116\n      jump\t// in\n    tag_197:\n        /* \"#utility.yul\":5086:5149   */\n      swap2\n      pop\n        /* \"#utility.yul\":5041:5159   */\n      pop\n        /* \"#utility.yul\":4221:5166   */\n      swap3\n      swap6\n      swap2\n      swap5\n      pop\n      swap3\n      pop\n      jump\t// out\n        /* \"#utility.yul\":5172:5262   */\n    tag_121:\n        /* \"#utility.yul\":5206:5213   */\n      0x00\n        /* \"#utility.yul\":5249:5254   */\n      dup2\n        /* \"#utility.yul\":5242:5255   */\n      iszero\n        /* \"#utility.yul\":5235:5256   */\n      iszero\n        /* \"#utility.yul\":5224:5256   */\n      swap1\n      pop\n        /* \"#utility.yul\":5172:5262   */\n      swap2\n      swap1\n      pop\n      jump\t// out\n        /* \"#utility.yul\":5268:5377   */\n    tag_122:\n        /* \"#utility.yul\":5349:5370   */\n      tag_200\n        /* \"#utility.yul\":5364:5369   */\n      dup2\n        /* \"#utility.yul\":5349:5370   */\n      tag_121\n      jump\t// in\n    tag_200:\n        /* \"#utility.yul\":5344:5347   */\n      dup3\n        /* \"#utility.yul\":5337:5371   */\n      mstore\n        /* \"#utility.yul\":5268:5377   */\n      pop\n      pop\n      jump\t// out\n        /* \"#utility.yul\":5383:5593   */\n    tag_26:\n        /* \"#utility.yul\":5470:5474   */\n      0x00\n        /* \"#utility.yul\":5508:5510   */\n      0x20\n        /* \"#utility.yul\":5497:5506   */\n      dup3\n        /* \"#utility.yul\":5493:5511   */\n      add\n        /* \"#utility.yul\":5485:5511   */\n      swap1\n      pop\n        /* \"#utility.yul\":5521:5586   */\n      tag_202\n        /* \"#utility.yul\":5583:5584   */\n      0x00\n        /* \"#utility.yul\":5572:5581   */\n      dup4\n        /* \"#utility.yul\":5568:5585   */\n      add\n        /* \"#utility.yul\":5559:5565   */\n      dup5\n        /* \"#utility.yul\":5521:5586   */\n      tag_122\n      jump\t// in\n    tag_202:\n        /* \"#utility.yul\":5383:5593   */\n      swap3\n      swap2\n      pop\n      pop\n      jump\t// out\n        /* \"#utility.yul\":5599:6253   */\n    tag_30:\n        /* \"#utility.yul\":5677:5683   */\n      0x00\n        /* \"#utility.yul\":5685:5691   */\n      dup1\n        /* \"#utility.yul\":5734:5736   */\n      0x40\n        /* \"#utility.yul\":5722:5731   */\n      dup4\n        /* \"#utility.yul\":5713:5720   */\n      dup6\n        /* \"#utility.yul\":5709:5732   */\n      sub\n        /* \"#utility.yul\":5705:5737   */\n      slt\n        /* \"#utility.yul\":5702:5821   */\n      iszero\n      tag_204\n      jumpi\n        /* \"#utility.yul\":5740:5819   */\n      tag_205\n      tag_102\n      jump\t// in\n    tag_205:\n        /* \"#utility.yul\":5702:5821   */\n    tag_204:\n        /* \"#utility.yul\":5888:5889   */\n      0x00\n        /* \"#utility.yul\":5877:5886   */\n      dup4\n        /* \"#utility.yul\":5873:5890   */\n      add\n        /* \"#utility.yul\":5860:5891   */\n      calldataload\n        /* \"#utility.yul\":5918:5936   */\n      0xffffffffffffffff\n        /* \"#utility.yul\":5910:5916   */\n      dup2\n        /* \"#utility.yul\":5907:5937   */\n      gt\n        /* \"#utility.yul\":5904:6021   */\n      iszero\n      tag_206\n      jumpi\n        /* \"#utility.yul\":5940:6019   */\n      tag_207\n      tag_103\n      jump\t// in\n    tag_207:\n        /* \"#utility.yul\":5904:6021   */\n    tag_206:\n        /* \"#utility.yul\":6045:6108   */\n      tag_208\n        /* \"#utility.yul\":6100:6107   */\n      dup6\n        /* \"#utility.yul\":6091:6097   */\n      dup3\n        /* \"#utility.yul\":6080:6089   */\n      dup7\n        /* \"#utility.yul\":6076:6098   */\n      add\n        /* \"#utility.yul\":6045:6108   */\n      tag_113\n      jump\t// in\n    tag_208:\n        /* \"#utility.yul\":6035:6108   */\n      swap3\n      pop\n        /* \"#utility.yul\":5831:6118   */\n      pop\n        /* \"#utility.yul\":6157:6159   */\n      0x20\n        /* \"#utility.yul\":6183:6236   */\n      tag_209\n        /* \"#utility.yul\":6228:6235   */\n      dup6\n        /* \"#utility.yul\":6219:6225   */\n      dup3\n        /* \"#utility.yul\":6208:6217   */\n      dup7\n        /* \"#utility.yul\":6204:6226   */\n      add\n        /* \"#utility.yul\":6183:6236   */\n      tag_120\n      jump\t// in\n    tag_209:\n        /* \"#utility.yul\":6173:6236   */\n      swap2\n      pop\n        /* \"#utility.yul\":6128:6246   */\n      pop\n        /* \"#utility.yul\":5599:6253   */\n      swap3\n      pop\n      swap3\n      swap1\n      pop\n      jump\t// out\n        /* \"#utility.yul\":6259:6913   */\n    tag_34:\n        /* \"#utility.yul\":6337:6343   */\n      0x00\n        /* \"#utility.yul\":6345:6351   */\n      dup1\n        /* \"#utility.yul\":6394:6396   */\n      0x40\n        /* \"#utility.yul\":6382:6391   */\n      dup4\n        /* \"#utility.yul\":6373:6380   */\n      dup6\n        /* \"#utility.yul\":6369:6392   */\n      sub\n        /* \"#utility.yul\":6365:6397   */\n      slt\n        /* \"#utility.yul\":6362:6481   */\n      iszero\n      tag_211\n      jumpi\n        /* \"#utility.yul\":6400:6479   */\n      tag_212\n      tag_102\n      jump\t// in\n    tag_212:\n        /* \"#utility.yul\":6362:6481   */\n    tag_211:\n        /* \"#utility.yul\":6548:6549   */\n      0x00\n        /* \"#utility.yul\":6537:6546   */\n      dup4\n        /* \"#utility.yul\":6533:6550   */\n      add\n        /* \"#utility.yul\":6520:6551   */\n      calldataload\n        /* \"#utility.yul\":6578:6596   */\n      0xffffffffffffffff\n        /* \"#utility.yul\":6570:6576   */\n      dup2\n        /* \"#utility.yul\":6567:6597   */\n      gt\n        /* \"#utility.yul\":6564:6681   */\n      iszero\n      tag_213\n      jumpi\n        /* \"#utility.yul\":6600:6679   */\n      tag_214\n      tag_103\n      jump\t// in\n    tag_214:\n        /* \"#utility.yul\":6564:6681   */\n    tag_213:\n        /* \"#utility.yul\":6705:6768   */\n      tag_215\n        /* \"#utility.yul\":6760:6767   */\n      dup6\n        /* \"#utility.yul\":6751:6757   */\n      dup3\n        /* \"#utility.yul\":6740:6749   */\n      dup7\n        /* \"#utility.yul\":6736:6758   */\n      add\n        /* \"#utility.yul\":6705:6768   */\n      tag_113\n      jump\t// in\n    tag_215:\n        /* \"#utility.yul\":6695:6768   */\n      swap3\n      pop\n        /* \"#utility.yul\":6491:6778   */\n      pop\n        /* \"#utility.yul\":6817:6819   */\n      0x20\n        /* \"#utility.yul\":6843:6896   */\n      tag_216\n        /* \"#utility.yul\":6888:6895   */\n      dup6\n        /* \"#utility.yul\":6879:6885   */\n      dup3\n        /* \"#utility.yul\":6868:6877   */\n      dup7\n        /* \"#utility.yul\":6864:6886   */\n      add\n        /* \"#utility.yul\":6843:6896   */\n      tag_116\n      jump\t// in\n    tag_216:\n        /* \"#utility.yul\":6833:6896   */\n      swap2\n      pop\n        /* \"#utility.yul\":6788:6906   */\n      pop\n        /* \"#utility.yul\":6259:6913   */\n      swap3\n      pop\n      swap3\n      swap1\n      pop\n      jump\t// out\n        /* \"#utility.yul\":6919:7428   */\n    tag_39:\n        /* \"#utility.yul\":6988:6994   */\n      0x00\n        /* \"#utility.yul\":7037:7039   */\n      0x20\n        /* \"#utility.yul\":7025:7034   */\n      dup3\n        /* \"#utility.yul\":7016:7023   */\n      dup5\n        /* \"#utility.yul\":7012:7035   */\n      sub\n        /* \"#utility.yul\":7008:7040   */\n      slt\n        /* \"#utility.yul\":7005:7124   */\n      iszero\n      tag_218\n      jumpi\n        /* \"#utility.yul\":7043:7122   */\n      tag_219\n      tag_102\n      jump\t// in\n    tag_219:\n        /* \"#utility.yul\":7005:7124   */\n    tag_218:\n        /* \"#utility.yul\":7191:7192   */\n      0x00\n        /* \"#utility.yul\":7180:7189   */\n      dup3\n        /* \"#utility.yul\":7176:7193   */\n      add\n        /* \"#utility.yul\":7163:7194   */\n      calldataload\n        /* \"#utility.yul\":7221:7239   */\n      0xffffffffffffffff\n        /* \"#utility.yul\":7213:7219   */\n      dup2\n        /* \"#utility.yul\":7210:7240   */\n      gt\n        /* \"#utility.yul\":7207:7324   */\n      iszero\n      tag_220\n      jumpi\n        /* \"#utility.yul\":7243:7322   */\n      tag_221\n      tag_103\n      jump\t// in\n    tag_221:\n        /* \"#utility.yul\":7207:7324   */\n    tag_220:\n        /* \"#utility.yul\":7348:7411   */\n      tag_222\n        /* \"#utility.yul\":7403:7410   */\n      dup5\n        /* \"#utility.yul\":7394:7400   */\n      dup3\n        /* \"#utility.yul\":7383:7392   */\n      dup6\n        /* \"#utility.yul\":7379:7401   */\n      add\n        /* \"#utility.yul\":7348:7411   */\n      tag_113\n      jump\t// in\n    tag_222:\n        /* \"#utility.yul\":7338:7411   */\n      swap2\n      pop\n        /* \"#utility.yul\":7134:7421   */\n      pop\n        /* \"#utility.yul\":6919:7428   */\n      swap3\n      swap2\n      pop\n      pop\n      jump\t// out\n        /* \"#utility.yul\":7434:7552   */\n    tag_123:\n        /* \"#utility.yul\":7521:7545   */\n      tag_224\n        /* \"#utility.yul\":7539:7544   */\n      dup2\n        /* \"#utility.yul\":7521:7545   */\n      tag_118\n      jump\t// in\n    tag_224:\n        /* \"#utility.yul\":7516:7519   */\n      dup3\n        /* \"#utility.yul\":7509:7546   */\n      mstore\n        /* \"#utility.yul\":7434:7552   */\n      pop\n      pop\n      jump\t// out\n        /* \"#utility.yul\":7558:7780   */\n    tag_42:\n        /* \"#utility.yul\":7651:7655   */\n      0x00\n        /* \"#utility.yul\":7689:7691   */\n      0x20\n        /* \"#utility.yul\":7678:7687   */\n      dup3\n        /* \"#utility.yul\":7674:7692   */\n      add\n        /* \"#utility.yul\":7666:7692   */\n      swap1\n      pop\n        /* \"#utility.yul\":7702:7773   */\n      tag_226\n        /* \"#utility.yul\":7770:7771   */\n      0x00\n        /* \"#utility.yul\":7759:7768   */\n      dup4\n        /* \"#utility.yul\":7755:7772   */\n      add\n        /* \"#utility.yul\":7746:7752   */\n      dup5\n        /* \"#utility.yul\":7702:7773   */\n      tag_123\n      jump\t// in\n    tag_226:\n        /* \"#utility.yul\":7558:7780   */\n      swap3\n      swap2\n      pop\n      pop\n      jump\t// out\n        /* \"#utility.yul\":7786:7904   */\n    tag_124:\n        /* \"#utility.yul\":7873:7897   */\n      tag_228\n        /* \"#utility.yul\":7891:7896   */\n      dup2\n        /* \"#utility.yul\":7873:7897   */\n      tag_114\n      jump\t// in\n    tag_228:\n        /* \"#utility.yul\":7868:7871   */\n      dup3\n        /* \"#utility.yul\":7861:7898   */\n      mstore\n        /* \"#utility.yul\":7786:7904   */\n      pop\n      pop\n      jump\t// out\n        /* \"#utility.yul\":7910:8352   */\n    tag_53:\n        /* \"#utility.yul\":8059:8063   */\n      0x00\n        /* \"#utility.yul\":8097:8099   */\n      0x60\n        /* \"#utility.yul\":8086:8095   */\n      dup3\n        /* \"#utility.yul\":8082:8100   */\n      add\n        /* \"#utility.yul\":8074:8100   */\n      swap1\n      pop\n        /* \"#utility.yul\":8110:8181   */\n      tag_230\n        /* \"#utility.yul\":8178:8179   */\n      0x00\n        /* \"#utility.yul\":8167:8176   */\n      dup4\n        /* \"#utility.yul\":8163:8180   */\n      add\n        /* \"#utility.yul\":8154:8160   */\n      dup7\n        /* \"#utility.yul\":8110:8181   */\n      tag_123\n      jump\t// in\n    tag_230:\n        /* \"#utility.yul\":8191:8263   */\n      tag_231\n        /* \"#utility.yul\":8259:8261   */\n      0x20\n        /* \"#utility.yul\":8248:8257   */\n      dup4\n        /* \"#utility.yul\":8244:8262   */\n      add\n        /* \"#utility.yul\":8235:8241   */\n      dup6\n        /* \"#utility.yul\":8191:8263   */\n      tag_124\n      jump\t// in\n    tag_231:\n        /* \"#utility.yul\":8273:8345   */\n      tag_232\n        /* \"#utility.yul\":8341:8343   */\n      0x40\n        /* \"#utility.yul\":8330:8339   */\n      dup4\n        /* \"#utility.yul\":8326:8344   */\n      add\n        /* \"#utility.yul\":8317:8323   */\n      dup5\n        /* \"#utility.yul\":8273:8345   */\n      tag_124\n      jump\t// in\n    tag_232:\n        /* \"#utility.yul\":7910:8352   */\n      swap5\n      swap4\n      pop\n      pop\n      pop\n      pop\n      jump\t// out\n        /* \"#utility.yul\":8358:8457   */\n    tag_125:\n        /* \"#utility.yul\":8410:8416   */\n      0x00\n        /* \"#utility.yul\":8444:8449   */\n      dup2\n        /* \"#utility.yul\":8438:8450   */\n      mload\n        /* \"#utility.yul\":8428:8450   */\n      swap1\n      pop\n        /* \"#utility.yul\":8358:8457   */\n      swap2\n      swap1\n      pop\n      jump\t// out\n        /* \"#utility.yul\":8463:8611   */\n    tag_126:\n        /* \"#utility.yul\":8565:8576   */\n      0x00\n        /* \"#utility.yul\":8602:8605   */\n      dup2\n        /* \"#utility.yul\":8587:8605   */\n      swap1\n      pop\n        /* \"#utility.yul\":8463:8611   */\n      swap3\n      swap2\n      pop\n      pop\n      jump\t// out\n        /* \"#utility.yul\":8617:8863   */\n    tag_127:\n        /* \"#utility.yul\":8698:8699   */\n      0x00\n        /* \"#utility.yul\":8708:8821   */\n    tag_236:\n        /* \"#utility.yul\":8722:8728   */\n      dup4\n        /* \"#utility.yul\":8719:8720   */\n      dup2\n        /* \"#utility.yul\":8716:8729   */\n      lt\n        /* \"#utility.yul\":8708:8821   */\n      iszero\n      tag_238\n      jumpi\n        /* \"#utility.yul\":8807:8808   */\n      dup1\n        /* \"#utility.yul\":8802:8805   */\n      dup3\n        /* \"#utility.yul\":8798:8809   */\n      add\n        /* \"#utility.yul\":8792:8810   */\n      mload\n        /* \"#utility.yul\":8788:8789   */\n      dup2\n        /* \"#utility.yul\":8783:8786   */\n      dup5\n        /* \"#utility.yul\":8779:8790   */\n      add\n        /* \"#utility.yul\":8772:8811   */\n      mstore\n        /* \"#utility.yul\":8744:8746   */\n      0x20\n        /* \"#utility.yul\":8741:8742   */\n      dup2\n        /* \"#utility.yul\":8737:8747   */\n      add\n        /* \"#utility.yul\":8732:8747   */\n      swap1\n      pop\n        /* \"#utility.yul\":8708:8821   */\n      jump(tag_236)\n    tag_238:\n        /* \"#utility.yul\":8855:8856   */\n      0x00\n        /* \"#utility.yul\":8846:8852   */\n      dup5\n        /* \"#utility.yul\":8841:8844   */\n      dup5\n        /* \"#utility.yul\":8837:8853   */\n      add\n        /* \"#utility.yul\":8830:8857   */\n      mstore\n        /* \"#utility.yul\":8679:8863   */\n      pop\n        /* \"#utility.yul\":8617:8863   */\n      pop\n      pop\n      pop\n      jump\t// out\n        /* \"#utility.yul\":8869:9259   */\n    tag_128:\n        /* \"#utility.yul\":8975:8978   */\n      0x00\n        /* \"#utility.yul\":9003:9042   */\n      tag_240\n        /* \"#utility.yul\":9036:9041   */\n      dup3\n        /* \"#utility.yul\":9003:9042   */\n      tag_125\n      jump\t// in\n    tag_240:\n        /* \"#utility.yul\":9058:9147   */\n      tag_241\n        /* \"#utility.yul\":9140:9146   */\n      dup2\n        /* \"#utility.yul\":9135:9138   */\n      dup6\n        /* \"#utility.yul\":9058:9147   */\n      tag_126\n      jump\t// in\n    tag_241:\n        /* \"#utility.yul\":9051:9147   */\n      swap4\n      pop\n        /* \"#utility.yul\":9156:9221   */\n      tag_242\n        /* \"#utility.yul\":9214:9220   */\n      dup2\n        /* \"#utility.yul\":9209:9212   */\n      dup6\n        /* \"#utility.yul\":9202:9206   */\n      0x20\n        /* \"#utility.yul\":9195:9200   */\n      dup7\n        /* \"#utility.yul\":9191:9207   */\n      add\n        /* \"#utility.yul\":9156:9221   */\n      tag_127\n      jump\t// in\n    tag_242:\n        /* \"#utility.yul\":9246:9252   */\n      dup1\n        /* \"#utility.yul\":9241:9244   */\n      dup5\n        /* \"#utility.yul\":9237:9253   */\n      add\n        /* \"#utility.yul\":9230:9253   */\n      swap2\n      pop\n        /* \"#utility.yul\":8979:9259   */\n      pop\n        /* \"#utility.yul\":8869:9259   */\n      swap3\n      swap2\n      pop\n      pop\n      jump\t// out\n        /* \"#utility.yul\":9265:9540   */\n    tag_56:\n        /* \"#utility.yul\":9397:9400   */\n      0x00\n        /* \"#utility.yul\":9419:9514   */\n      tag_244\n        /* \"#utility.yul\":9510:9513   */\n      dup3\n        /* \"#utility.yul\":9501:9507   */\n      dup5\n        /* \"#utility.yul\":9419:9514   */\n      tag_128\n      jump\t// in\n    tag_244:\n        /* \"#utility.yul\":9412:9514   */\n      swap2\n      pop\n        /* \"#utility.yul\":9531:9534   */\n      dup2\n        /* \"#utility.yul\":9524:9534   */\n      swap1\n      pop\n        /* \"#utility.yul\":9265:9540   */\n      swap3\n      swap2\n      pop\n      pop\n      jump\t// out\n        /* \"#utility.yul\":9546:9768   */\n    tag_58:\n        /* \"#utility.yul\":9639:9643   */\n      0x00\n        /* \"#utility.yul\":9677:9679   */\n      0x20\n        /* \"#utility.yul\":9666:9675   */\n      dup3\n        /* \"#utility.yul\":9662:9680   */\n      add\n        /* \"#utility.yul\":9654:9680   */\n      swap1\n      pop\n        /* \"#utility.yul\":9690:9761   */\n      tag_246\n        /* \"#utility.yul\":9758:9759   */\n      0x00\n        /* \"#utility.yul\":9747:9756   */\n      dup4\n        /* \"#utility.yul\":9743:9760   */\n      add\n        /* \"#utility.yul\":9734:9740   */\n      dup5\n        /* \"#utility.yul\":9690:9761   */\n      tag_124\n      jump\t// in\n    tag_246:\n        /* \"#utility.yul\":9546:9768   */\n      swap3\n      swap2\n      pop\n      pop\n      jump\t// out\n        /* \"#utility.yul\":9774:9917   */\n    tag_129:\n        /* \"#utility.yul\":9831:9836   */\n      0x00\n        /* \"#utility.yul\":9862:9868   */\n      dup2\n        /* \"#utility.yul\":9856:9869   */\n      mload\n        /* \"#utility.yul\":9847:9869   */\n      swap1\n      pop\n        /* \"#utility.yul\":9878:9911   */\n      tag_248\n        /* \"#utility.yul\":9905:9910   */\n      dup2\n        /* \"#utility.yul\":9878:9911   */\n      tag_119\n      jump\t// in\n    tag_248:\n        /* \"#utility.yul\":9774:9917   */\n      swap3\n      swap2\n      pop\n      pop\n      jump\t// out\n        /* \"#utility.yul\":9923:10274   */\n    tag_62:\n        /* \"#utility.yul\":9993:9999   */\n      0x00\n        /* \"#utility.yul\":10042:10044   */\n      0x20\n        /* \"#utility.yul\":10030:10039   */\n      dup3\n        /* \"#utility.yul\":10021:10028   */\n      dup5\n        /* \"#utility.yul\":10017:10040   */\n      sub\n        /* \"#utility.yul\":10013:10045   */\n      slt\n        /* \"#utility.yul\":10010:10129   */\n      iszero\n      tag_250\n      jumpi\n        /* \"#utility.yul\":10048:10127   */\n      tag_251\n      tag_102\n      jump\t// in\n    tag_251:\n        /* \"#utility.yul\":10010:10129   */\n    tag_250:\n        /* \"#utility.yul\":10168:10169   */\n      0x00\n        /* \"#utility.yul\":10193:10257   */\n      tag_252\n        /* \"#utility.yul\":10249:10256   */\n      dup5\n        /* \"#utility.yul\":10240:10246   */\n      dup3\n        /* \"#utility.yul\":10229:10238   */\n      dup6\n        /* \"#utility.yul\":10225:10247   */\n      add\n        /* \"#utility.yul\":10193:10257   */\n      tag_129\n      jump\t// in\n    tag_252:\n        /* \"#utility.yul\":10183:10257   */\n      swap2\n      pop\n        /* \"#utility.yul\":10139:10267   */\n      pop\n        /* \"#utility.yul\":9923:10274   */\n      swap3\n      swap2\n      pop\n      pop\n      jump\t// out\n        /* \"#utility.yul\":10280:10449   */\n    tag_130:\n        /* \"#utility.yul\":10364:10375   */\n      0x00\n        /* \"#utility.yul\":10398:10404   */\n      dup3\n        /* \"#utility.yul\":10393:10396   */\n      dup3\n        /* \"#utility.yul\":10386:10405   */\n      mstore\n        /* \"#utility.yul\":10438:10442   */\n      0x20\n        /* \"#utility.yul\":10433:10436   */\n      dup3\n        /* \"#utility.yul\":10429:10443   */\n      add\n        /* \"#utility.yul\":10414:10443   */\n      swap1\n      pop\n        /* \"#utility.yul\":10280:10449   */\n      swap3\n      swap2\n      pop\n      pop\n      jump\t// out\n        /* \"#utility.yul\":10455:10628   */\n    tag_131:\n        /* \"#utility.yul\":10595:10620   */\n      0x6e6674206f776e657220213d206d73672e73656e646572000000000000000000\n        /* \"#utility.yul\":10591:10592   */\n      0x00\n        /* \"#utility.yul\":10583:10589   */\n      dup3\n        /* \"#utility.yul\":10579:10593   */\n      add\n        /* \"#utility.yul\":10572:10621   */\n      mstore\n        /* \"#utility.yul\":10455:10628   */\n      pop\n      jump\t// out\n        /* \"#utility.yul\":10634:11000   */\n    tag_132:\n        /* \"#utility.yul\":10776:10779   */\n      0x00\n        /* \"#utility.yul\":10797:10864   */\n      tag_256\n        /* \"#utility.yul\":10861:10863   */\n      0x17\n        /* \"#utility.yul\":10856:10859   */\n      dup4\n        /* \"#utility.yul\":10797:10864   */\n      tag_130\n      jump\t// in\n    tag_256:\n        /* \"#utility.yul\":10790:10864   */\n      swap2\n      pop\n        /* \"#utility.yul\":10873:10966   */\n      tag_257\n        /* \"#utility.yul\":10962:10965   */\n      dup3\n        /* \"#utility.yul\":10873:10966   */\n      tag_131\n      jump\t// in\n    tag_257:\n        /* \"#utility.yul\":10991:10993   */\n      0x20\n        /* \"#utility.yul\":10986:10989   */\n      dup3\n        /* \"#utility.yul\":10982:10994   */\n      add\n        /* \"#utility.yul\":10975:10994   */\n      swap1\n      pop\n        /* \"#utility.yul\":10634:11000   */\n      swap2\n      swap1\n      pop\n      jump\t// out\n        /* \"#utility.yul\":11006:11425   */\n    tag_65:\n        /* \"#utility.yul\":11172:11176   */\n      0x00\n        /* \"#utility.yul\":11210:11212   */\n      0x20\n        /* \"#utility.yul\":11199:11208   */\n      dup3\n        /* \"#utility.yul\":11195:11213   */\n      add\n        /* \"#utility.yul\":11187:11213   */\n      swap1\n      pop\n        /* \"#utility.yul\":11259:11268   */\n      dup2\n        /* \"#utility.yul\":11253:11257   */\n      dup2\n        /* \"#utility.yul\":11249:11269   */\n      sub\n        /* \"#utility.yul\":11245:11246   */\n      0x00\n        /* \"#utility.yul\":11234:11243   */\n      dup4\n        /* \"#utility.yul\":11230:11247   */\n      add\n        /* \"#utility.yul\":11223:11270   */\n      mstore\n        /* \"#utility.yul\":11287:11418   */\n      tag_259\n        /* \"#utility.yul\":11413:11417   */\n      dup2\n        /* \"#utility.yul\":11287:11418   */\n      tag_132\n      jump\t// in\n    tag_259:\n        /* \"#utility.yul\":11279:11418   */\n      swap1\n      pop\n        /* \"#utility.yul\":11006:11425   */\n      swap2\n      swap1\n      pop\n      jump\t// out\n        /* \"#utility.yul\":11431:11763   */\n    tag_68:\n        /* \"#utility.yul\":11552:11556   */\n      0x00\n        /* \"#utility.yul\":11590:11592   */\n      0x40\n        /* \"#utility.yul\":11579:11588   */\n      dup3\n        /* \"#utility.yul\":11575:11593   */\n      add\n        /* \"#utility.yul\":11567:11593   */\n      swap1\n      pop\n        /* \"#utility.yul\":11603:11674   */\n      tag_261\n        /* \"#utility.yul\":11671:11672   */\n      0x00\n        /* \"#utility.yul\":11660:11669   */\n      dup4\n        /* \"#utility.yul\":11656:11673   */\n      add\n        /* \"#utility.yul\":11647:11653   */\n      dup6\n        /* \"#utility.yul\":11603:11674   */\n      tag_124\n      jump\t// in\n    tag_261:\n        /* \"#utility.yul\":11684:11756   */\n      tag_262\n        /* \"#utility.yul\":11752:11754   */\n      0x20\n        /* \"#utility.yul\":11741:11750   */\n      dup4\n        /* \"#utility.yul\":11737:11755   */\n      add\n        /* \"#utility.yul\":11728:11734   */\n      dup5\n        /* \"#utility.yul\":11684:11756   */\n      tag_124\n      jump\t// in\n    tag_262:\n        /* \"#utility.yul\":11431:11763   */\n      swap4\n      swap3\n      pop\n      pop\n      pop\n      jump\t// out\n        /* \"#utility.yul\":11769:12211   */\n    tag_72:\n        /* \"#utility.yul\":11918:11922   */\n      0x00\n        /* \"#utility.yul\":11956:11958   */\n      0x60\n        /* \"#utility.yul\":11945:11954   */\n      dup3\n        /* \"#utility.yul\":11941:11959   */\n      add\n        /* \"#utility.yul\":11933:11959   */\n      swap1\n      pop\n        /* \"#utility.yul\":11969:12040   */\n      tag_264\n        /* \"#utility.yul\":12037:12038   */\n      0x00\n        /* \"#utility.yul\":12026:12035   */\n      dup4\n        /* \"#utility.yul\":12022:12039   */\n      add\n        /* \"#utility.yul\":12013:12019   */\n      dup7\n        /* \"#utility.yul\":11969:12040   */\n      tag_123\n      jump\t// in\n    tag_264:\n        /* \"#utility.yul\":12050:12122   */\n      tag_265\n        /* \"#utility.yul\":12118:12120   */\n      0x20\n        /* \"#utility.yul\":12107:12116   */\n      dup4\n        /* \"#utility.yul\":12103:12121   */\n      add\n        /* \"#utility.yul\":12094:12100   */\n      dup6\n        /* \"#utility.yul\":12050:12122   */\n      tag_123\n      jump\t// in\n    tag_265:\n        /* \"#utility.yul\":12132:12204   */\n      tag_266\n        /* \"#utility.yul\":12200:12202   */\n      0x40\n        /* \"#utility.yul\":12189:12198   */\n      dup4\n        /* \"#utility.yul\":12185:12203   */\n      add\n        /* \"#utility.yul\":12176:12182   */\n      dup5\n        /* \"#utility.yul\":12132:12204   */\n      tag_124\n      jump\t// in\n    tag_266:\n        /* \"#utility.yul\":11769:12211   */\n      swap5\n      swap4\n      pop\n      pop\n      pop\n      pop\n      jump\t// out\n        /* \"#utility.yul\":12217:12315   */\n    tag_133:\n        /* \"#utility.yul\":12268:12274   */\n      0x00\n        /* \"#utility.yul\":12302:12307   */\n      dup2\n        /* \"#utility.yul\":12296:12308   */\n      mload\n        /* \"#utility.yul\":12286:12308   */\n      swap1\n      pop\n        /* \"#utility.yul\":12217:12315   */\n      swap2\n      swap1\n      pop\n      jump\t// out\n        /* \"#utility.yul\":12321:12468   */\n    tag_134:\n        /* \"#utility.yul\":12422:12433   */\n      0x00\n        /* \"#utility.yul\":12459:12462   */\n      dup2\n        /* \"#utility.yul\":12444:12462   */\n      swap1\n      pop\n        /* \"#utility.yul\":12321:12468   */\n      swap3\n      swap2\n      pop\n      pop\n      jump\t// out\n        /* \"#utility.yul\":12474:12860   */\n    tag_135:\n        /* \"#utility.yul\":12578:12581   */\n      0x00\n        /* \"#utility.yul\":12606:12644   */\n      tag_270\n        /* \"#utility.yul\":12638:12643   */\n      dup3\n        /* \"#utility.yul\":12606:12644   */\n      tag_133\n      jump\t// in\n    tag_270:\n        /* \"#utility.yul\":12660:12748   */\n      tag_271\n        /* \"#utility.yul\":12741:12747   */\n      dup2\n        /* \"#utility.yul\":12736:12739   */\n      dup6\n        /* \"#utility.yul\":12660:12748   */\n      tag_134\n      jump\t// in\n    tag_271:\n        /* \"#utility.yul\":12653:12748   */\n      swap4\n      pop\n        /* \"#utility.yul\":12757:12822   */\n      tag_272\n        /* \"#utility.yul\":12815:12821   */\n      dup2\n        /* \"#utility.yul\":12810:12813   */\n      dup6\n        /* \"#utility.yul\":12803:12807   */\n      0x20\n        /* \"#utility.yul\":12796:12801   */\n      dup7\n        /* \"#utility.yul\":12792:12808   */\n      add\n        /* \"#utility.yul\":12757:12822   */\n      tag_127\n      jump\t// in\n    tag_272:\n        /* \"#utility.yul\":12847:12853   */\n      dup1\n        /* \"#utility.yul\":12842:12845   */\n      dup5\n        /* \"#utility.yul\":12838:12854   */\n      add\n        /* \"#utility.yul\":12831:12854   */\n      swap2\n      pop\n        /* \"#utility.yul\":12582:12860   */\n      pop\n        /* \"#utility.yul\":12474:12860   */\n      swap3\n      swap2\n      pop\n      pop\n      jump\t// out\n        /* \"#utility.yul\":12866:13137   */\n    tag_80:\n        /* \"#utility.yul\":12996:12999   */\n      0x00\n        /* \"#utility.yul\":13018:13111   */\n      tag_274\n        /* \"#utility.yul\":13107:13110   */\n      dup3\n        /* \"#utility.yul\":13098:13104   */\n      dup5\n        /* \"#utility.yul\":13018:13111   */\n      tag_135\n      jump\t// in\n    tag_274:\n        /* \"#utility.yul\":13011:13111   */\n      swap2\n      pop\n        /* \"#utility.yul\":13128:13131   */\n      dup2\n        /* \"#utility.yul\":13121:13131   */\n      swap1\n      pop\n        /* \"#utility.yul\":12866:13137   */\n      swap3\n      swap2\n      pop\n      pop\n      jump\t// out\n        /* \"#utility.yul\":13143:13520   */\n    tag_136:\n        /* \"#utility.yul\":13231:13234   */\n      0x00\n        /* \"#utility.yul\":13259:13298   */\n      tag_276\n        /* \"#utility.yul\":13292:13297   */\n      dup3\n        /* \"#utility.yul\":13259:13298   */\n      tag_125\n      jump\t// in\n    tag_276:\n        /* \"#utility.yul\":13314:13385   */\n      tag_277\n        /* \"#utility.yul\":13378:13384   */\n      dup2\n        /* \"#utility.yul\":13373:13376   */\n      dup6\n        /* \"#utility.yul\":13314:13385   */\n      tag_130\n      jump\t// in\n    tag_277:\n        /* \"#utility.yul\":13307:13385   */\n      swap4\n      pop\n        /* \"#utility.yul\":13394:13459   */\n      tag_278\n        /* \"#utility.yul\":13452:13458   */\n      dup2\n        /* \"#utility.yul\":13447:13450   */\n      dup6\n        /* \"#utility.yul\":13440:13444   */\n      0x20\n        /* \"#utility.yul\":13433:13438   */\n      dup7\n        /* \"#utility.yul\":13429:13445   */\n      add\n        /* \"#utility.yul\":13394:13459   */\n      tag_127\n      jump\t// in\n    tag_278:\n        /* \"#utility.yul\":13484:13513   */\n      tag_279\n        /* \"#utility.yul\":13506:13512   */\n      dup2\n        /* \"#utility.yul\":13484:13513   */\n      tag_106\n      jump\t// in\n    tag_279:\n        /* \"#utility.yul\":13479:13482   */\n      dup5\n        /* \"#utility.yul\":13475:13514   */\n      add\n        /* \"#utility.yul\":13468:13514   */\n      swap2\n      pop\n        /* \"#utility.yul\":13235:13520   */\n      pop\n        /* \"#utility.yul\":13143:13520   */\n      swap3\n      swap2\n      pop\n      pop\n      jump\t// out\n        /* \"#utility.yul\":13526:13949   */\n    tag_86:\n        /* \"#utility.yul\":13667:13671   */\n      0x00\n        /* \"#utility.yul\":13705:13707   */\n      0x40\n        /* \"#utility.yul\":13694:13703   */\n      dup3\n        /* \"#utility.yul\":13690:13708   */\n      add\n        /* \"#utility.yul\":13682:13708   */\n      swap1\n      pop\n        /* \"#utility.yul\":13754:13763   */\n      dup2\n        /* \"#utility.yul\":13748:13752   */\n      dup2\n        /* \"#utility.yul\":13744:13764   */\n      sub\n        /* \"#utility.yul\":13740:13741   */\n      0x00\n        /* \"#utility.yul\":13729:13738   */\n      dup4\n        /* \"#utility.yul\":13725:13742   */\n      add\n        /* \"#utility.yul\":13718:13765   */\n      mstore\n        /* \"#utility.yul\":13782:13860   */\n      tag_281\n        /* \"#utility.yul\":13855:13859   */\n      dup2\n        /* \"#utility.yul\":13846:13852   */\n      dup6\n        /* \"#utility.yul\":13782:13860   */\n      tag_136\n      jump\t// in\n    tag_281:\n        /* \"#utility.yul\":13774:13860   */\n      swap1\n      pop\n        /* \"#utility.yul\":13870:13942   */\n      tag_282\n        /* \"#utility.yul\":13938:13940   */\n      0x20\n        /* \"#utility.yul\":13927:13936   */\n      dup4\n        /* \"#utility.yul\":13923:13941   */\n      add\n        /* \"#utility.yul\":13914:13920   */\n      dup5\n        /* \"#utility.yul\":13870:13942   */\n      tag_124\n      jump\t// in\n    tag_282:\n        /* \"#utility.yul\":13526:13949   */\n      swap4\n      swap3\n      pop\n      pop\n      pop\n      jump\t// out\n\n    auxdata: 0xa2646970667358221220ef08879c900da099380b3fe2e5bffa7c2e4a1da2bcc89906bd1b1ace47a1af4464736f6c63430008110033\n}\n",
				"bytecode": {
					"linkReferences": {},
					"object": "608060405234801561001057600080fd5b506112b5806100206000396000f3fe60806040526004361061007b5760003560e01c806362a638b91161004e57806362a638b9146101385780636f45c033146101545780637cb9514714610191578063d72df326146101ce5761007b565b80630f554ee114610080578063189ac995146100a95780631fc38a8b146100d25780633c6a15a71461010f575b600080fd5b34801561008c57600080fd5b506100a760048036038101906100a29190610cff565b61020d565b005b3480156100b557600080fd5b506100d060048036038101906100cb9190610dcc565b6104a9565b005b3480156100de57600080fd5b506100f960048036038101906100f49190610dcc565b61055c565b6040516101069190610e6a565b60405180910390f35b34801561011b57600080fd5b5061013660048036038101906101319190610e85565b610790565b005b610152600480360381019061014d9190610ee1565b6107f1565b005b34801561016057600080fd5b5061017b60048036038101906101769190610f3d565b6109a6565b6040516101889190610f95565b60405180910390f35b34801561019d57600080fd5b506101b860048036038101906101b39190610f3d565b6109ef565b6040516101c59190610f95565b60405180910390f35b3480156101da57600080fd5b506101f560048036038101906101f09190610ee1565b610a36565b60405161020493929190610fbf565b60405180910390f35b3373ffffffffffffffffffffffffffffffffffffffff166000846040516102349190611067565b908152602001604051809103902060009054906101000a900473ffffffffffffffffffffffffffffffffffffffff1673ffffffffffffffffffffffffffffffffffffffff16636352211e846040518263ffffffff1660e01b815260040161029b919061107e565b602060405180830381865afa1580156102b8573d6000803e3d6000fd5b505050506040513d601f19601f820116820180604052508101906102dc91906110ae565b73ffffffffffffffffffffffffffffffffffffffff1614610332576040517f08c379a000000000000000000000000000000000000000000000000000000000815260040161032990611138565b60405180910390fd5b600033905060405180606001604052808273ffffffffffffffffffffffffffffffffffffffff1681526020018481526020018381525060016000808760405161037b9190611067565b908152602001604051809103902060009054906101000a900473ffffffffffffffffffffffffffffffffffffffff1673ffffffffffffffffffffffffffffffffffffffff1673ffffffffffffffffffffffffffffffffffffffff168152602001908152602001600020600085815260200190815260200160002060008201518160000160006101000a81548173ffffffffffffffffffffffffffffffffffffffff021916908373ffffffffffffffffffffffffffffffffffffffff16021790555060208201518160010155604082015181600201559050508073ffffffffffffffffffffffffffffffffffffffff167fb911999c14e328ac8b7fb638c99b435e23409f78db3d8c0c0be0494fdbfa076b848460405161049b929190611158565b60405180910390a250505050565b6000846040516104b99190611067565b908152602001604051809103902060009054906101000a900473ffffffffffffffffffffffffffffffffffffffff1673ffffffffffffffffffffffffffffffffffffffff166323b872dd8484846040518463ffffffff1660e01b815260040161052493929190611181565b600060405180830381600087803b15801561053e57600080fd5b505af1158015610552573d6000803e3d6000fd5b5050505050505050565b600080600080876040516105709190611067565b908152602001604051809103902060009054906101000a900473ffffffffffffffffffffffffffffffffffffffff1673ffffffffffffffffffffffffffffffffffffffff168686866040516024016105ca93929190611181565b6040516020818303038152906040527f23b872dd000000000000000000000000000000000000000000000000000000007bffffffffffffffffffffffffffffffffffffffffffffffffffffffff19166020820180517bffffffffffffffffffffffffffffffffffffffffffffffffffffffff838183161783525050505060405161065491906111ff565b6000604051808303816000865af19150503d8060008114610691576040519150601f19603f3d011682016040523d82523d6000602084013e610696565b606091505b50915091506000876040516106ab9190611067565b908152602001604051809103902060009054906101000a900473ffffffffffffffffffffffffffffffffffffffff1673ffffffffffffffffffffffffffffffffffffffff167f3c0af5799896f1f2f61091409db5bc7fde7d0c8fd19edbfd9ea9ec04004d0d2160405160405180910390a28473ffffffffffffffffffffffffffffffffffffffff168673ffffffffffffffffffffffffffffffffffffffff167f243b02b83fe16d70aa7408b729fd58347590d697b36ad1dd7a0796bb236efd3f898760405161077b92919061124f565b60405180910390a38192505050949350505050565b806000836040516107a19190611067565b908152602001604051809103902060006101000a81548173ffffffffffffffffffffffffffffffffffffffff021916908373ffffffffffffffffffffffffffffffffffffffff1602179055505050565b60008060006108008585610a36565b92509250925034811461081257600080fd5b600083905060003390508173ffffffffffffffffffffffffffffffffffffffff166108fc349081150290604051600060405180830381858888f19350505050158015610862573d6000803e3d6000fd5b5061086f878683896104a9565b6001600080896040516108829190611067565b908152602001604051809103902060009054906101000a900473ffffffffffffffffffffffffffffffffffffffff1673ffffffffffffffffffffffffffffffffffffffff1673ffffffffffffffffffffffffffffffffffffffff1681526020019081526020016000206000858152602001908152602001600020600080820160006101000a81549073ffffffffffffffffffffffffffffffffffffffff02191690556001820160009055600282016000905550508173ffffffffffffffffffffffffffffffffffffffff168173ffffffffffffffffffffffffffffffffffffffff167f681ddc67ea8796d2489979f5fc2ea2eb0f2d44ff3f11f061a191928a1f3d9a068686604051610995929190611158565b60405180910390a350505050505050565b6000818051602081018201805184825260208301602085012081835280955050505050506000915054906101000a900473ffffffffffffffffffffffffffffffffffffffff1681565b60008082604051610a009190611067565b908152602001604051809103902060009054906101000a900473ffffffffffffffffffffffffffffffffffffffff169050919050565b600080600080600160008088604051610a4f9190611067565b908152602001604051809103902060009054906101000a900473ffffffffffffffffffffffffffffffffffffffff1673ffffffffffffffffffffffffffffffffffffffff1673ffffffffffffffffffffffffffffffffffffffff16815260200190815260200160002060008681526020019081526020016000206040518060600160405290816000820160009054906101000a900473ffffffffffffffffffffffffffffffffffffffff1673ffffffffffffffffffffffffffffffffffffffff1673ffffffffffffffffffffffffffffffffffffffff168152602001600182015481526020016002820154815250509050600081600001519050600082602001519050600083604001519050828282965096509650505050509250925092565b6000604051905090565b600080fd5b600080fd5b600080fd5b600080fd5b6000601f19601f8301169050919050565b7f4e487b7100000000000000000000000000000000000000000000000000000000600052604160045260246000fd5b610bd682610b8d565b810181811067ffffffffffffffff82111715610bf557610bf4610b9e565b5b80604052505050565b6000610c08610b6f565b9050610c148282610bcd565b919050565b600067ffffffffffffffff821115610c3457610c33610b9e565b5b610c3d82610b8d565b9050602081019050919050565b82818337600083830152505050565b6000610c6c610c6784610c19565b610bfe565b905082815260208101848484011115610c8857610c87610b88565b5b610c93848285610c4a565b509392505050565b600082601f830112610cb057610caf610b83565b5b8135610cc0848260208601610c59565b91505092915050565b6000819050919050565b610cdc81610cc9565b8114610ce757600080fd5b50565b600081359050610cf981610cd3565b92915050565b600080600060608486031215610d1857610d17610b79565b5b600084013567ffffffffffffffff811115610d3657610d35610b7e565b5b610d4286828701610c9b565b9350506020610d5386828701610cea565b9250506040610d6486828701610cea565b9150509250925092565b600073ffffffffffffffffffffffffffffffffffffffff82169050919050565b6000610d9982610d6e565b9050919050565b610da981610d8e565b8114610db457600080fd5b50565b600081359050610dc681610da0565b92915050565b60008060008060808587031215610de657610de5610b79565b5b600085013567ffffffffffffffff811115610e0457610e03610b7e565b5b610e1087828801610c9b565b9450506020610e2187828801610db7565b9350506040610e3287828801610db7565b9250506060610e4387828801610cea565b91505092959194509250565b60008115159050919050565b610e6481610e4f565b82525050565b6000602082019050610e7f6000830184610e5b565b92915050565b60008060408385031215610e9c57610e9b610b79565b5b600083013567ffffffffffffffff811115610eba57610eb9610b7e565b5b610ec685828601610c9b565b9250506020610ed785828601610db7565b9150509250929050565b60008060408385031215610ef857610ef7610b79565b5b600083013567ffffffffffffffff811115610f1657610f15610b7e565b5b610f2285828601610c9b565b9250506020610f3385828601610cea565b9150509250929050565b600060208284031215610f5357610f52610b79565b5b600082013567ffffffffffffffff811115610f7157610f70610b7e565b5b610f7d84828501610c9b565b91505092915050565b610f8f81610d8e565b82525050565b6000602082019050610faa6000830184610f86565b92915050565b610fb981610cc9565b82525050565b6000606082019050610fd46000830186610f86565b610fe16020830185610fb0565b610fee6040830184610fb0565b949350505050565b600081519050919050565b600081905092915050565b60005b8381101561102a57808201518184015260208101905061100f565b60008484015250505050565b600061104182610ff6565b61104b8185611001565b935061105b81856020860161100c565b80840191505092915050565b60006110738284611036565b915081905092915050565b60006020820190506110936000830184610fb0565b92915050565b6000815190506110a881610da0565b92915050565b6000602082840312156110c4576110c3610b79565b5b60006110d284828501611099565b91505092915050565b600082825260208201905092915050565b7f6e6674206f776e657220213d206d73672e73656e646572000000000000000000600082015250565b60006111226017836110db565b915061112d826110ec565b602082019050919050565b6000602082019050818103600083015261115181611115565b9050919050565b600060408201905061116d6000830185610fb0565b61117a6020830184610fb0565b9392505050565b60006060820190506111966000830186610f86565b6111a36020830185610f86565b6111b06040830184610fb0565b949350505050565b600081519050919050565b600081905092915050565b60006111d9826111b8565b6111e381856111c3565b93506111f381856020860161100c565b80840191505092915050565b600061120b82846111ce565b915081905092915050565b600061122182610ff6565b61122b81856110db565b935061123b81856020860161100c565b61124481610b8d565b840191505092915050565b600060408201905081810360008301526112698185611216565b90506112786020830184610fb0565b939250505056fea2646970667358221220ef08879c900da099380b3fe2e5bffa7c2e4a1da2bcc89906bd1b1ace47a1af4464736f6c63430008110033",
					"opcodes": "PUSH1 0x80 PUSH1 0x40 MSTORE CALLVALUE DUP1 ISZERO PUSH2 0x10 JUMPI PUSH1 0x0 DUP1 REVERT JUMPDEST POP PUSH2 0x12B5 DUP1 PUSH2 0x20 PUSH1 0x0 CODECOPY PUSH1 0x0 RETURN INVALID PUSH1 0x80 PUSH1 0x40 MSTORE PUSH1 0x4 CALLDATASIZE LT PUSH2 0x7B JUMPI PUSH1 0x0 CALLDATALOAD PUSH1 0xE0 SHR DUP1 PUSH4 0x62A638B9 GT PUSH2 0x4E JUMPI DUP1 PUSH4 0x62A638B9 EQ PUSH2 0x138 JUMPI DUP1 PUSH4 0x6F45C033 EQ PUSH2 0x154 JUMPI DUP1 PUSH4 0x7CB95147 EQ PUSH2 0x191 JUMPI DUP1 PUSH4 0xD72DF326 EQ PUSH2 0x1CE JUMPI PUSH2 0x7B JUMP JUMPDEST DUP1 PUSH4 0xF554EE1 EQ PUSH2 0x80 JUMPI DUP1 PUSH4 0x189AC995 EQ PUSH2 0xA9 JUMPI DUP1 PUSH4 0x1FC38A8B EQ PUSH2 0xD2 JUMPI DUP1 PUSH4 0x3C6A15A7 EQ PUSH2 0x10F JUMPI JUMPDEST PUSH1 0x0 DUP1 REVERT JUMPDEST CALLVALUE DUP1 ISZERO PUSH2 0x8C JUMPI PUSH1 0x0 DUP1 REVERT JUMPDEST POP PUSH2 0xA7 PUSH1 0x4 DUP1 CALLDATASIZE SUB DUP2 ADD SWAP1 PUSH2 0xA2 SWAP2 SWAP1 PUSH2 0xCFF JUMP JUMPDEST PUSH2 0x20D JUMP JUMPDEST STOP JUMPDEST CALLVALUE DUP1 ISZERO PUSH2 0xB5 JUMPI PUSH1 0x0 DUP1 REVERT JUMPDEST POP PUSH2 0xD0 PUSH1 0x4 DUP1 CALLDATASIZE SUB DUP2 ADD SWAP1 PUSH2 0xCB SWAP2 SWAP1 PUSH2 0xDCC JUMP JUMPDEST PUSH2 0x4A9 JUMP JUMPDEST STOP JUMPDEST CALLVALUE DUP1 ISZERO PUSH2 0xDE JUMPI PUSH1 0x0 DUP1 REVERT JUMPDEST POP PUSH2 0xF9 PUSH1 0x4 DUP1 CALLDATASIZE SUB DUP2 ADD SWAP1 PUSH2 0xF4 SWAP2 SWAP1 PUSH2 0xDCC JUMP JUMPDEST PUSH2 0x55C JUMP JUMPDEST PUSH1 0x40 MLOAD PUSH2 0x106 SWAP2 SWAP1 PUSH2 0xE6A JUMP JUMPDEST PUSH1 0x40 MLOAD DUP1 SWAP2 SUB SWAP1 RETURN JUMPDEST CALLVALUE DUP1 ISZERO PUSH2 0x11B JUMPI PUSH1 0x0 DUP1 REVERT JUMPDEST POP PUSH2 0x136 PUSH1 0x4 DUP1 CALLDATASIZE SUB DUP2 ADD SWAP1 PUSH2 0x131 SWAP2 SWAP1 PUSH2 0xE85 JUMP JUMPDEST PUSH2 0x790 JUMP JUMPDEST STOP JUMPDEST PUSH2 0x152 PUSH1 0x4 DUP1 CALLDATASIZE SUB DUP2 ADD SWAP1 PUSH2 0x14D SWAP2 SWAP1 PUSH2 0xEE1 JUMP JUMPDEST PUSH2 0x7F1 JUMP JUMPDEST STOP JUMPDEST CALLVALUE DUP1 ISZERO PUSH2 0x160 JUMPI PUSH1 0x0 DUP1 REVERT JUMPDEST POP PUSH2 0x17B PUSH1 0x4 DUP1 CALLDATASIZE SUB DUP2 ADD SWAP1 PUSH2 0x176 SWAP2 SWAP1 PUSH2 0xF3D JUMP JUMPDEST PUSH2 0x9A6 JUMP JUMPDEST PUSH1 0x40 MLOAD PUSH2 0x188 SWAP2 SWAP1 PUSH2 0xF95 JUMP JUMPDEST PUSH1 0x40 MLOAD DUP1 SWAP2 SUB SWAP1 RETURN JUMPDEST CALLVALUE DUP1 ISZERO PUSH2 0x19D JUMPI PUSH1 0x0 DUP1 REVERT JUMPDEST POP PUSH2 0x1B8 PUSH1 0x4 DUP1 CALLDATASIZE SUB DUP2 ADD SWAP1 PUSH2 0x1B3 SWAP2 SWAP1 PUSH2 0xF3D JUMP JUMPDEST PUSH2 0x9EF JUMP JUMPDEST PUSH1 0x40 MLOAD PUSH2 0x1C5 SWAP2 SWAP1 PUSH2 0xF95 JUMP JUMPDEST PUSH1 0x40 MLOAD DUP1 SWAP2 SUB SWAP1 RETURN JUMPDEST CALLVALUE DUP1 ISZERO PUSH2 0x1DA JUMPI PUSH1 0x0 DUP1 REVERT JUMPDEST POP PUSH2 0x1F5 PUSH1 0x4 DUP1 CALLDATASIZE SUB DUP2 ADD SWAP1 PUSH2 0x1F0 SWAP2 SWAP1 PUSH2 0xEE1 JUMP JUMPDEST PUSH2 0xA36 JUMP JUMPDEST PUSH1 0x40 MLOAD PUSH2 0x204 SWAP4 SWAP3 SWAP2 SWAP1 PUSH2 0xFBF JUMP JUMPDEST PUSH1 0x40 MLOAD DUP1 SWAP2 SUB SWAP1 RETURN JUMPDEST CALLER PUSH20 0xFFFFFFFFFFFFFFFFFFFFFFFFFFFFFFFFFFFFFFFF AND PUSH1 0x0 DUP5 PUSH1 0x40 MLOAD PUSH2 0x234 SWAP2 SWAP1 PUSH2 0x1067 JUMP JUMPDEST SWAP1 DUP2 MSTORE PUSH1 0x20 ADD PUSH1 0x40 MLOAD DUP1 SWAP2 SUB SWAP1 KECCAK256 PUSH1 0x0 SWAP1 SLOAD SWAP1 PUSH2 0x100 EXP SWAP1 DIV PUSH20 0xFFFFFFFFFFFFFFFFFFFFFFFFFFFFFFFFFFFFFFFF AND PUSH20 0xFFFFFFFFFFFFFFFFFFFFFFFFFFFFFFFFFFFFFFFF AND PUSH4 0x6352211E DUP5 PUSH1 0x40 MLOAD DUP3 PUSH4 0xFFFFFFFF AND PUSH1 0xE0 SHL DUP2 MSTORE PUSH1 0x4 ADD PUSH2 0x29B SWAP2 SWAP1 PUSH2 0x107E JUMP JUMPDEST PUSH1 0x20 PUSH1 0x40 MLOAD DUP1 DUP4 SUB DUP2 DUP7 GAS STATICCALL ISZERO DUP1 ISZERO PUSH2 0x2B8 JUMPI RETURNDATASIZE PUSH1 0x0 DUP1 RETURNDATACOPY RETURNDATASIZE PUSH1 0x0 REVERT JUMPDEST POP POP POP POP PUSH1 0x40 MLOAD RETURNDATASIZE PUSH1 0x1F NOT PUSH1 0x1F DUP3 ADD AND DUP3 ADD DUP1 PUSH1 0x40 MSTORE POP DUP2 ADD SWAP1 PUSH2 0x2DC SWAP2 SWAP1 PUSH2 0x10AE JUMP JUMPDEST PUSH20 0xFFFFFFFFFFFFFFFFFFFFFFFFFFFFFFFFFFFFFFFF AND EQ PUSH2 0x332 JUMPI PUSH1 0x40 MLOAD PUSH32 0x8C379A000000000000000000000000000000000000000000000000000000000 DUP2 MSTORE PUSH1 0x4 ADD PUSH2 0x329 SWAP1 PUSH2 0x1138 JUMP JUMPDEST PUSH1 0x40 MLOAD DUP1 SWAP2 SUB SWAP1 REVERT JUMPDEST PUSH1 0x0 CALLER SWAP1 POP PUSH1 0x40 MLOAD DUP1 PUSH1 0x60 ADD PUSH1 0x40 MSTORE DUP1 DUP3 PUSH20 0xFFFFFFFFFFFFFFFFFFFFFFFFFFFFFFFFFFFFFFFF AND DUP2 MSTORE PUSH1 0x20 ADD DUP5 DUP2 MSTORE PUSH1 0x20 ADD DUP4 DUP2 MSTORE POP PUSH1 0x1 PUSH1 0x0 DUP1 DUP8 PUSH1 0x40 MLOAD PUSH2 0x37B SWAP2 SWAP1 PUSH2 0x1067 JUMP JUMPDEST SWAP1 DUP2 MSTORE PUSH1 0x20 ADD PUSH1 0x40 MLOAD DUP1 SWAP2 SUB SWAP1 KECCAK256 PUSH1 0x0 SWAP1 SLOAD SWAP1 PUSH2 0x100 EXP SWAP1 DIV PUSH20 0xFFFFFFFFFFFFFFFFFFFFFFFFFFFFFFFFFFFFFFFF AND PUSH20 0xFFFFFFFFFFFFFFFFFFFFFFFFFFFFFFFFFFFFFFFF AND PUSH20 0xFFFFFFFFFFFFFFFFFFFFFFFFFFFFFFFFFFFFFFFF AND DUP2 MSTORE PUSH1 0x20 ADD SWAP1 DUP2 MSTORE PUSH1 0x20 ADD PUSH1 0x0 KECCAK256 PUSH1 0x0 DUP6 DUP2 MSTORE PUSH1 0x20 ADD SWAP1 DUP2 MSTORE PUSH1 0x20 ADD PUSH1 0x0 KECCAK256 PUSH1 0x0 DUP3 ADD MLOAD DUP2 PUSH1 0x0 ADD PUSH1 0x0 PUSH2 0x100 EXP DUP2 SLOAD DUP2 PUSH20 0xFFFFFFFFFFFFFFFFFFFFFFFFFFFFFFFFFFFFFFFF MUL NOT AND SWAP1 DUP4 PUSH20 0xFFFFFFFFFFFFFFFFFFFFFFFFFFFFFFFFFFFFFFFF AND MUL OR SWAP1 SSTORE POP PUSH1 0x20 DUP3 ADD MLOAD DUP2 PUSH1 0x1 ADD SSTORE PUSH1 0x40 DUP3 ADD MLOAD DUP2 PUSH1 0x2 ADD SSTORE SWAP1 POP POP DUP1 PUSH20 0xFFFFFFFFFFFFFFFFFFFFFFFFFFFFFFFFFFFFFFFF AND PUSH32 0xB911999C14E328AC8B7FB638C99B435E23409F78DB3D8C0C0BE0494FDBFA076B DUP5 DUP5 PUSH1 0x40 MLOAD PUSH2 0x49B SWAP3 SWAP2 SWAP1 PUSH2 0x1158 JUMP JUMPDEST PUSH1 0x40 MLOAD DUP1 SWAP2 SUB SWAP1 LOG2 POP POP POP POP JUMP JUMPDEST PUSH1 0x0 DUP5 PUSH1 0x40 MLOAD PUSH2 0x4B9 SWAP2 SWAP1 PUSH2 0x1067 JUMP JUMPDEST SWAP1 DUP2 MSTORE PUSH1 0x20 ADD PUSH1 0x40 MLOAD DUP1 SWAP2 SUB SWAP1 KECCAK256 PUSH1 0x0 SWAP1 SLOAD SWAP1 PUSH2 0x100 EXP SWAP1 DIV PUSH20 0xFFFFFFFFFFFFFFFFFFFFFFFFFFFFFFFFFFFFFFFF AND PUSH20 0xFFFFFFFFFFFFFFFFFFFFFFFFFFFFFFFFFFFFFFFF AND PUSH4 0x23B872DD DUP5 DUP5 DUP5 PUSH1 0x40 MLOAD DUP5 PUSH4 0xFFFFFFFF AND PUSH1 0xE0 SHL DUP2 MSTORE PUSH1 0x4 ADD PUSH2 0x524 SWAP4 SWAP3 SWAP2 SWAP1 PUSH2 0x1181 JUMP JUMPDEST PUSH1 0x0 PUSH1 0x40 MLOAD DUP1 DUP4 SUB DUP2 PUSH1 0x0 DUP8 DUP1 EXTCODESIZE ISZERO DUP1 ISZERO PUSH2 0x53E JUMPI PUSH1 0x0 DUP1 REVERT JUMPDEST POP GAS CALL ISZERO DUP1 ISZERO PUSH2 0x552 JUMPI RETURNDATASIZE PUSH1 0x0 DUP1 RETURNDATACOPY RETURNDATASIZE PUSH1 0x0 REVERT JUMPDEST POP POP POP POP POP POP POP POP JUMP JUMPDEST PUSH1 0x0 DUP1 PUSH1 0x0 DUP1 DUP8 PUSH1 0x40 MLOAD PUSH2 0x570 SWAP2 SWAP1 PUSH2 0x1067 JUMP JUMPDEST SWAP1 DUP2 MSTORE PUSH1 0x20 ADD PUSH1 0x40 MLOAD DUP1 SWAP2 SUB SWAP1 KECCAK256 PUSH1 0x0 SWAP1 SLOAD SWAP1 PUSH2 0x100 EXP SWAP1 DIV PUSH20 0xFFFFFFFFFFFFFFFFFFFFFFFFFFFFFFFFFFFFFFFF AND PUSH20 0xFFFFFFFFFFFFFFFFFFFFFFFFFFFFFFFFFFFFFFFF AND DUP7 DUP7 DUP7 PUSH1 0x40 MLOAD PUSH1 0x24 ADD PUSH2 0x5CA SWAP4 SWAP3 SWAP2 SWAP1 PUSH2 0x1181 JUMP JUMPDEST PUSH1 0x40 MLOAD PUSH1 0x20 DUP2 DUP4 SUB SUB DUP2 MSTORE SWAP1 PUSH1 0x40 MSTORE PUSH32 0x23B872DD00000000000000000000000000000000000000000000000000000000 PUSH28 0xFFFFFFFFFFFFFFFFFFFFFFFFFFFFFFFFFFFFFFFFFFFFFFFFFFFFFFFF NOT AND PUSH1 0x20 DUP3 ADD DUP1 MLOAD PUSH28 0xFFFFFFFFFFFFFFFFFFFFFFFFFFFFFFFFFFFFFFFFFFFFFFFFFFFFFFFF DUP4 DUP2 DUP4 AND OR DUP4 MSTORE POP POP POP POP PUSH1 0x40 MLOAD PUSH2 0x654 SWAP2 SWAP1 PUSH2 0x11FF JUMP JUMPDEST PUSH1 0x0 PUSH1 0x40 MLOAD DUP1 DUP4 SUB DUP2 PUSH1 0x0 DUP7 GAS CALL SWAP2 POP POP RETURNDATASIZE DUP1 PUSH1 0x0 DUP2 EQ PUSH2 0x691 JUMPI PUSH1 0x40 MLOAD SWAP2 POP PUSH1 0x1F NOT PUSH1 0x3F RETURNDATASIZE ADD AND DUP3 ADD PUSH1 0x40 MSTORE RETURNDATASIZE DUP3 MSTORE RETURNDATASIZE PUSH1 0x0 PUSH1 0x20 DUP5 ADD RETURNDATACOPY PUSH2 0x696 JUMP JUMPDEST PUSH1 0x60 SWAP2 POP JUMPDEST POP SWAP2 POP SWAP2 POP PUSH1 0x0 DUP8 PUSH1 0x40 MLOAD PUSH2 0x6AB SWAP2 SWAP1 PUSH2 0x1067 JUMP JUMPDEST SWAP1 DUP2 MSTORE PUSH1 0x20 ADD PUSH1 0x40 MLOAD DUP1 SWAP2 SUB SWAP1 KECCAK256 PUSH1 0x0 SWAP1 SLOAD SWAP1 PUSH2 0x100 EXP SWAP1 DIV PUSH20 0xFFFFFFFFFFFFFFFFFFFFFFFFFFFFFFFFFFFFFFFF AND PUSH20 0xFFFFFFFFFFFFFFFFFFFFFFFFFFFFFFFFFFFFFFFF AND PUSH32 0x3C0AF5799896F1F2F61091409DB5BC7FDE7D0C8FD19EDBFD9EA9EC04004D0D21 PUSH1 0x40 MLOAD PUSH1 0x40 MLOAD DUP1 SWAP2 SUB SWAP1 LOG2 DUP5 PUSH20 0xFFFFFFFFFFFFFFFFFFFFFFFFFFFFFFFFFFFFFFFF AND DUP7 PUSH20 0xFFFFFFFFFFFFFFFFFFFFFFFFFFFFFFFFFFFFFFFF AND PUSH32 0x243B02B83FE16D70AA7408B729FD58347590D697B36AD1DD7A0796BB236EFD3F DUP10 DUP8 PUSH1 0x40 MLOAD PUSH2 0x77B SWAP3 SWAP2 SWAP1 PUSH2 0x124F JUMP JUMPDEST PUSH1 0x40 MLOAD DUP1 SWAP2 SUB SWAP1 LOG3 DUP2 SWAP3 POP POP POP SWAP5 SWAP4 POP POP POP POP JUMP JUMPDEST DUP1 PUSH1 0x0 DUP4 PUSH1 0x40 MLOAD PUSH2 0x7A1 SWAP2 SWAP1 PUSH2 0x1067 JUMP JUMPDEST SWAP1 DUP2 MSTORE PUSH1 0x20 ADD PUSH1 0x40 MLOAD DUP1 SWAP2 SUB SWAP1 KECCAK256 PUSH1 0x0 PUSH2 0x100 EXP DUP2 SLOAD DUP2 PUSH20 0xFFFFFFFFFFFFFFFFFFFFFFFFFFFFFFFFFFFFFFFF MUL NOT AND SWAP1 DUP4 PUSH20 0xFFFFFFFFFFFFFFFFFFFFFFFFFFFFFFFFFFFFFFFF AND MUL OR SWAP1 SSTORE POP POP POP JUMP JUMPDEST PUSH1 0x0 DUP1 PUSH1 0x0 PUSH2 0x800 DUP6 DUP6 PUSH2 0xA36 JUMP JUMPDEST SWAP3 POP SWAP3 POP SWAP3 POP CALLVALUE DUP2 EQ PUSH2 0x812 JUMPI PUSH1 0x0 DUP1 REVERT JUMPDEST PUSH1 0x0 DUP4 SWAP1 POP PUSH1 0x0 CALLER SWAP1 POP DUP2 PUSH20 0xFFFFFFFFFFFFFFFFFFFFFFFFFFFFFFFFFFFFFFFF AND PUSH2 0x8FC CALLVALUE SWAP1 DUP2 ISZERO MUL SWAP1 PUSH1 0x40 MLOAD PUSH1 0x0 PUSH1 0x40 MLOAD DUP1 DUP4 SUB DUP2 DUP6 DUP9 DUP9 CALL SWAP4 POP POP POP POP ISZERO DUP1 ISZERO PUSH2 0x862 JUMPI RETURNDATASIZE PUSH1 0x0 DUP1 RETURNDATACOPY RETURNDATASIZE PUSH1 0x0 REVERT JUMPDEST POP PUSH2 0x86F DUP8 DUP7 DUP4 DUP10 PUSH2 0x4A9 JUMP JUMPDEST PUSH1 0x1 PUSH1 0x0 DUP1 DUP10 PUSH1 0x40 MLOAD PUSH2 0x882 SWAP2 SWAP1 PUSH2 0x1067 JUMP JUMPDEST SWAP1 DUP2 MSTORE PUSH1 0x20 ADD PUSH1 0x40 MLOAD DUP1 SWAP2 SUB SWAP1 KECCAK256 PUSH1 0x0 SWAP1 SLOAD SWAP1 PUSH2 0x100 EXP SWAP1 DIV PUSH20 0xFFFFFFFFFFFFFFFFFFFFFFFFFFFFFFFFFFFFFFFF AND PUSH20 0xFFFFFFFFFFFFFFFFFFFFFFFFFFFFFFFFFFFFFFFF AND PUSH20 0xFFFFFFFFFFFFFFFFFFFFFFFFFFFFFFFFFFFFFFFF AND DUP2 MSTORE PUSH1 0x20 ADD SWAP1 DUP2 MSTORE PUSH1 0x20 ADD PUSH1 0x0 KECCAK256 PUSH1 0x0 DUP6 DUP2 MSTORE PUSH1 0x20 ADD SWAP1 DUP2 MSTORE PUSH1 0x20 ADD PUSH1 0x0 KECCAK256 PUSH1 0x0 DUP1 DUP3 ADD PUSH1 0x0 PUSH2 0x100 EXP DUP2 SLOAD SWAP1 PUSH20 0xFFFFFFFFFFFFFFFFFFFFFFFFFFFFFFFFFFFFFFFF MUL NOT AND SWAP1 SSTORE PUSH1 0x1 DUP3 ADD PUSH1 0x0 SWAP1 SSTORE PUSH1 0x2 DUP3 ADD PUSH1 0x0 SWAP1 SSTORE POP POP DUP2 PUSH20 0xFFFFFFFFFFFFFFFFFFFFFFFFFFFFFFFFFFFFFFFF AND DUP2 PUSH20 0xFFFFFFFFFFFFFFFFFFFFFFFFFFFFFFFFFFFFFFFF AND PUSH32 0x681DDC67EA8796D2489979F5FC2EA2EB0F2D44FF3F11F061A191928A1F3D9A06 DUP7 DUP7 PUSH1 0x40 MLOAD PUSH2 0x995 SWAP3 SWAP2 SWAP1 PUSH2 0x1158 JUMP JUMPDEST PUSH1 0x40 MLOAD DUP1 SWAP2 SUB SWAP1 LOG3 POP POP POP POP POP POP POP JUMP JUMPDEST PUSH1 0x0 DUP2 DUP1 MLOAD PUSH1 0x20 DUP2 ADD DUP3 ADD DUP1 MLOAD DUP5 DUP3 MSTORE PUSH1 0x20 DUP4 ADD PUSH1 0x20 DUP6 ADD KECCAK256 DUP2 DUP4 MSTORE DUP1 SWAP6 POP POP POP POP POP POP PUSH1 0x0 SWAP2 POP SLOAD SWAP1 PUSH2 0x100 EXP SWAP1 DIV PUSH20 0xFFFFFFFFFFFFFFFFFFFFFFFFFFFFFFFFFFFFFFFF AND DUP2 JUMP JUMPDEST PUSH1 0x0 DUP1 DUP3 PUSH1 0x40 MLOAD PUSH2 0xA00 SWAP2 SWAP1 PUSH2 0x1067 JUMP JUMPDEST SWAP1 DUP2 MSTORE PUSH1 0x20 ADD PUSH1 0x40 MLOAD DUP1 SWAP2 SUB SWAP1 KECCAK256 PUSH1 0x0 SWAP1 SLOAD SWAP1 PUSH2 0x100 EXP SWAP1 DIV PUSH20 0xFFFFFFFFFFFFFFFFFFFFFFFFFFFFFFFFFFFFFFFF AND SWAP1 POP SWAP2 SWAP1 POP JUMP JUMPDEST PUSH1 0x0 DUP1 PUSH1 0x0 DUP1 PUSH1 0x1 PUSH1 0x0 DUP1 DUP9 PUSH1 0x40 MLOAD PUSH2 0xA4F SWAP2 SWAP1 PUSH2 0x1067 JUMP JUMPDEST SWAP1 DUP2 MSTORE PUSH1 0x20 ADD PUSH1 0x40 MLOAD DUP1 SWAP2 SUB SWAP1 KECCAK256 PUSH1 0x0 SWAP1 SLOAD SWAP1 PUSH2 0x100 EXP SWAP1 DIV PUSH20 0xFFFFFFFFFFFFFFFFFFFFFFFFFFFFFFFFFFFFFFFF AND PUSH20 0xFFFFFFFFFFFFFFFFFFFFFFFFFFFFFFFFFFFFFFFF AND PUSH20 0xFFFFFFFFFFFFFFFFFFFFFFFFFFFFFFFFFFFFFFFF AND DUP2 MSTORE PUSH1 0x20 ADD SWAP1 DUP2 MSTORE PUSH1 0x20 ADD PUSH1 0x0 KECCAK256 PUSH1 0x0 DUP7 DUP2 MSTORE PUSH1 0x20 ADD SWAP1 DUP2 MSTORE PUSH1 0x20 ADD PUSH1 0x0 KECCAK256 PUSH1 0x40 MLOAD DUP1 PUSH1 0x60 ADD PUSH1 0x40 MSTORE SWAP1 DUP2 PUSH1 0x0 DUP3 ADD PUSH1 0x0 SWAP1 SLOAD SWAP1 PUSH2 0x100 EXP SWAP1 DIV PUSH20 0xFFFFFFFFFFFFFFFFFFFFFFFFFFFFFFFFFFFFFFFF AND PUSH20 0xFFFFFFFFFFFFFFFFFFFFFFFFFFFFFFFFFFFFFFFF AND PUSH20 0xFFFFFFFFFFFFFFFFFFFFFFFFFFFFFFFFFFFFFFFF AND DUP2 MSTORE PUSH1 0x20 ADD PUSH1 0x1 DUP3 ADD SLOAD DUP2 MSTORE PUSH1 0x20 ADD PUSH1 0x2 DUP3 ADD SLOAD DUP2 MSTORE POP POP SWAP1 POP PUSH1 0x0 DUP2 PUSH1 0x0 ADD MLOAD SWAP1 POP PUSH1 0x0 DUP3 PUSH1 0x20 ADD MLOAD SWAP1 POP PUSH1 0x0 DUP4 PUSH1 0x40 ADD MLOAD SWAP1 POP DUP3 DUP3 DUP3 SWAP7 POP SWAP7 POP SWAP7 POP POP POP POP POP SWAP3 POP SWAP3 POP SWAP3 JUMP JUMPDEST PUSH1 0x0 PUSH1 0x40 MLOAD SWAP1 POP SWAP1 JUMP JUMPDEST PUSH1 0x0 DUP1 REVERT JUMPDEST PUSH1 0x0 DUP1 REVERT JUMPDEST PUSH1 0x0 DUP1 REVERT JUMPDEST PUSH1 0x0 DUP1 REVERT JUMPDEST PUSH1 0x0 PUSH1 0x1F NOT PUSH1 0x1F DUP4 ADD AND SWAP1 POP SWAP2 SWAP1 POP JUMP JUMPDEST PUSH32 0x4E487B7100000000000000000000000000000000000000000000000000000000 PUSH1 0x0 MSTORE PUSH1 0x41 PUSH1 0x4 MSTORE PUSH1 0x24 PUSH1 0x0 REVERT JUMPDEST PUSH2 0xBD6 DUP3 PUSH2 0xB8D JUMP JUMPDEST DUP2 ADD DUP2 DUP2 LT PUSH8 0xFFFFFFFFFFFFFFFF DUP3 GT OR ISZERO PUSH2 0xBF5 JUMPI PUSH2 0xBF4 PUSH2 0xB9E JUMP JUMPDEST JUMPDEST DUP1 PUSH1 0x40 MSTORE POP POP POP JUMP JUMPDEST PUSH1 0x0 PUSH2 0xC08 PUSH2 0xB6F JUMP JUMPDEST SWAP1 POP PUSH2 0xC14 DUP3 DUP3 PUSH2 0xBCD JUMP JUMPDEST SWAP2 SWAP1 POP JUMP JUMPDEST PUSH1 0x0 PUSH8 0xFFFFFFFFFFFFFFFF DUP3 GT ISZERO PUSH2 0xC34 JUMPI PUSH2 0xC33 PUSH2 0xB9E JUMP JUMPDEST JUMPDEST PUSH2 0xC3D DUP3 PUSH2 0xB8D JUMP JUMPDEST SWAP1 POP PUSH1 0x20 DUP2 ADD SWAP1 POP SWAP2 SWAP1 POP JUMP JUMPDEST DUP3 DUP2 DUP4 CALLDATACOPY PUSH1 0x0 DUP4 DUP4 ADD MSTORE POP POP POP JUMP JUMPDEST PUSH1 0x0 PUSH2 0xC6C PUSH2 0xC67 DUP5 PUSH2 0xC19 JUMP JUMPDEST PUSH2 0xBFE JUMP JUMPDEST SWAP1 POP DUP3 DUP2 MSTORE PUSH1 0x20 DUP2 ADD DUP5 DUP5 DUP5 ADD GT ISZERO PUSH2 0xC88 JUMPI PUSH2 0xC87 PUSH2 0xB88 JUMP JUMPDEST JUMPDEST PUSH2 0xC93 DUP5 DUP3 DUP6 PUSH2 0xC4A JUMP JUMPDEST POP SWAP4 SWAP3 POP POP POP JUMP JUMPDEST PUSH1 0x0 DUP3 PUSH1 0x1F DUP4 ADD SLT PUSH2 0xCB0 JUMPI PUSH2 0xCAF PUSH2 0xB83 JUMP JUMPDEST JUMPDEST DUP2 CALLDATALOAD PUSH2 0xCC0 DUP5 DUP3 PUSH1 0x20 DUP7 ADD PUSH2 0xC59 JUMP JUMPDEST SWAP2 POP POP SWAP3 SWAP2 POP POP JUMP JUMPDEST PUSH1 0x0 DUP2 SWAP1 POP SWAP2 SWAP1 POP JUMP JUMPDEST PUSH2 0xCDC DUP2 PUSH2 0xCC9 JUMP JUMPDEST DUP2 EQ PUSH2 0xCE7 JUMPI PUSH1 0x0 DUP1 REVERT JUMPDEST POP JUMP JUMPDEST PUSH1 0x0 DUP2 CALLDATALOAD SWAP1 POP PUSH2 0xCF9 DUP2 PUSH2 0xCD3 JUMP JUMPDEST SWAP3 SWAP2 POP POP JUMP JUMPDEST PUSH1 0x0 DUP1 PUSH1 0x0 PUSH1 0x60 DUP5 DUP7 SUB SLT ISZERO PUSH2 0xD18 JUMPI PUSH2 0xD17 PUSH2 0xB79 JUMP JUMPDEST JUMPDEST PUSH1 0x0 DUP5 ADD CALLDATALOAD PUSH8 0xFFFFFFFFFFFFFFFF DUP2 GT ISZERO PUSH2 0xD36 JUMPI PUSH2 0xD35 PUSH2 0xB7E JUMP JUMPDEST JUMPDEST PUSH2 0xD42 DUP7 DUP3 DUP8 ADD PUSH2 0xC9B JUMP JUMPDEST SWAP4 POP POP PUSH1 0x20 PUSH2 0xD53 DUP7 DUP3 DUP8 ADD PUSH2 0xCEA JUMP JUMPDEST SWAP3 POP POP PUSH1 0x40 PUSH2 0xD64 DUP7 DUP3 DUP8 ADD PUSH2 0xCEA JUMP JUMPDEST SWAP2 POP POP SWAP3 POP SWAP3 POP SWAP3 JUMP JUMPDEST PUSH1 0x0 PUSH20 0xFFFFFFFFFFFFFFFFFFFFFFFFFFFFFFFFFFFFFFFF DUP3 AND SWAP1 POP SWAP2 SWAP1 POP JUMP JUMPDEST PUSH1 0x0 PUSH2 0xD99 DUP3 PUSH2 0xD6E JUMP JUMPDEST SWAP1 POP SWAP2 SWAP1 POP JUMP JUMPDEST PUSH2 0xDA9 DUP2 PUSH2 0xD8E JUMP JUMPDEST DUP2 EQ PUSH2 0xDB4 JUMPI PUSH1 0x0 DUP1 REVERT JUMPDEST POP JUMP JUMPDEST PUSH1 0x0 DUP2 CALLDATALOAD SWAP1 POP PUSH2 0xDC6 DUP2 PUSH2 0xDA0 JUMP JUMPDEST SWAP3 SWAP2 POP POP JUMP JUMPDEST PUSH1 0x0 DUP1 PUSH1 0x0 DUP1 PUSH1 0x80 DUP6 DUP8 SUB SLT ISZERO PUSH2 0xDE6 JUMPI PUSH2 0xDE5 PUSH2 0xB79 JUMP JUMPDEST JUMPDEST PUSH1 0x0 DUP6 ADD CALLDATALOAD PUSH8 0xFFFFFFFFFFFFFFFF DUP2 GT ISZERO PUSH2 0xE04 JUMPI PUSH2 0xE03 PUSH2 0xB7E JUMP JUMPDEST JUMPDEST PUSH2 0xE10 DUP8 DUP3 DUP9 ADD PUSH2 0xC9B JUMP JUMPDEST SWAP5 POP POP PUSH1 0x20 PUSH2 0xE21 DUP8 DUP3 DUP9 ADD PUSH2 0xDB7 JUMP JUMPDEST SWAP4 POP POP PUSH1 0x40 PUSH2 0xE32 DUP8 DUP3 DUP9 ADD PUSH2 0xDB7 JUMP JUMPDEST SWAP3 POP POP PUSH1 0x60 PUSH2 0xE43 DUP8 DUP3 DUP9 ADD PUSH2 0xCEA JUMP JUMPDEST SWAP2 POP POP SWAP3 SWAP6 SWAP2 SWAP5 POP SWAP3 POP JUMP JUMPDEST PUSH1 0x0 DUP2 ISZERO ISZERO SWAP1 POP SWAP2 SWAP1 POP JUMP JUMPDEST PUSH2 0xE64 DUP2 PUSH2 0xE4F JUMP JUMPDEST DUP3 MSTORE POP POP JUMP JUMPDEST PUSH1 0x0 PUSH1 0x20 DUP3 ADD SWAP1 POP PUSH2 0xE7F PUSH1 0x0 DUP4 ADD DUP5 PUSH2 0xE5B JUMP JUMPDEST SWAP3 SWAP2 POP POP JUMP JUMPDEST PUSH1 0x0 DUP1 PUSH1 0x40 DUP4 DUP6 SUB SLT ISZERO PUSH2 0xE9C JUMPI PUSH2 0xE9B PUSH2 0xB79 JUMP JUMPDEST JUMPDEST PUSH1 0x0 DUP4 ADD CALLDATALOAD PUSH8 0xFFFFFFFFFFFFFFFF DUP2 GT ISZERO PUSH2 0xEBA JUMPI PUSH2 0xEB9 PUSH2 0xB7E JUMP JUMPDEST JUMPDEST PUSH2 0xEC6 DUP6 DUP3 DUP7 ADD PUSH2 0xC9B JUMP JUMPDEST SWAP3 POP POP PUSH1 0x20 PUSH2 0xED7 DUP6 DUP3 DUP7 ADD PUSH2 0xDB7 JUMP JUMPDEST SWAP2 POP POP SWAP3 POP SWAP3 SWAP1 POP JUMP JUMPDEST PUSH1 0x0 DUP1 PUSH1 0x40 DUP4 DUP6 SUB SLT ISZERO PUSH2 0xEF8 JUMPI PUSH2 0xEF7 PUSH2 0xB79 JUMP JUMPDEST JUMPDEST PUSH1 0x0 DUP4 ADD CALLDATALOAD PUSH8 0xFFFFFFFFFFFFFFFF DUP2 GT ISZERO PUSH2 0xF16 JUMPI PUSH2 0xF15 PUSH2 0xB7E JUMP JUMPDEST JUMPDEST PUSH2 0xF22 DUP6 DUP3 DUP7 ADD PUSH2 0xC9B JUMP JUMPDEST SWAP3 POP POP PUSH1 0x20 PUSH2 0xF33 DUP6 DUP3 DUP7 ADD PUSH2 0xCEA JUMP JUMPDEST SWAP2 POP POP SWAP3 POP SWAP3 SWAP1 POP JUMP JUMPDEST PUSH1 0x0 PUSH1 0x20 DUP3 DUP5 SUB SLT ISZERO PUSH2 0xF53 JUMPI PUSH2 0xF52 PUSH2 0xB79 JUMP JUMPDEST JUMPDEST PUSH1 0x0 DUP3 ADD CALLDATALOAD PUSH8 0xFFFFFFFFFFFFFFFF DUP2 GT ISZERO PUSH2 0xF71 JUMPI PUSH2 0xF70 PUSH2 0xB7E JUMP JUMPDEST JUMPDEST PUSH2 0xF7D DUP5 DUP3 DUP6 ADD PUSH2 0xC9B JUMP JUMPDEST SWAP2 POP POP SWAP3 SWAP2 POP POP JUMP JUMPDEST PUSH2 0xF8F DUP2 PUSH2 0xD8E JUMP JUMPDEST DUP3 MSTORE POP POP JUMP JUMPDEST PUSH1 0x0 PUSH1 0x20 DUP3 ADD SWAP1 POP PUSH2 0xFAA PUSH1 0x0 DUP4 ADD DUP5 PUSH2 0xF86 JUMP JUMPDEST SWAP3 SWAP2 POP POP JUMP JUMPDEST PUSH2 0xFB9 DUP2 PUSH2 0xCC9 JUMP JUMPDEST DUP3 MSTORE POP POP JUMP JUMPDEST PUSH1 0x0 PUSH1 0x60 DUP3 ADD SWAP1 POP PUSH2 0xFD4 PUSH1 0x0 DUP4 ADD DUP7 PUSH2 0xF86 JUMP JUMPDEST PUSH2 0xFE1 PUSH1 0x20 DUP4 ADD DUP6 PUSH2 0xFB0 JUMP JUMPDEST PUSH2 0xFEE PUSH1 0x40 DUP4 ADD DUP5 PUSH2 0xFB0 JUMP JUMPDEST SWAP5 SWAP4 POP POP POP POP JUMP JUMPDEST PUSH1 0x0 DUP2 MLOAD SWAP1 POP SWAP2 SWAP1 POP JUMP JUMPDEST PUSH1 0x0 DUP2 SWAP1 POP SWAP3 SWAP2 POP POP JUMP JUMPDEST PUSH1 0x0 JUMPDEST DUP4 DUP2 LT ISZERO PUSH2 0x102A JUMPI DUP1 DUP3 ADD MLOAD DUP2 DUP5 ADD MSTORE PUSH1 0x20 DUP2 ADD SWAP1 POP PUSH2 0x100F JUMP JUMPDEST PUSH1 0x0 DUP5 DUP5 ADD MSTORE POP POP POP POP JUMP JUMPDEST PUSH1 0x0 PUSH2 0x1041 DUP3 PUSH2 0xFF6 JUMP JUMPDEST PUSH2 0x104B DUP2 DUP6 PUSH2 0x1001 JUMP JUMPDEST SWAP4 POP PUSH2 0x105B DUP2 DUP6 PUSH1 0x20 DUP7 ADD PUSH2 0x100C JUMP JUMPDEST DUP1 DUP5 ADD SWAP2 POP POP SWAP3 SWAP2 POP POP JUMP JUMPDEST PUSH1 0x0 PUSH2 0x1073 DUP3 DUP5 PUSH2 0x1036 JUMP JUMPDEST SWAP2 POP DUP2 SWAP1 POP SWAP3 SWAP2 POP POP JUMP JUMPDEST PUSH1 0x0 PUSH1 0x20 DUP3 ADD SWAP1 POP PUSH2 0x1093 PUSH1 0x0 DUP4 ADD DUP5 PUSH2 0xFB0 JUMP JUMPDEST SWAP3 SWAP2 POP POP JUMP JUMPDEST PUSH1 0x0 DUP2 MLOAD SWAP1 POP PUSH2 0x10A8 DUP2 PUSH2 0xDA0 JUMP JUMPDEST SWAP3 SWAP2 POP POP JUMP JUMPDEST PUSH1 0x0 PUSH1 0x20 DUP3 DUP5 SUB SLT ISZERO PUSH2 0x10C4 JUMPI PUSH2 0x10C3 PUSH2 0xB79 JUMP JUMPDEST JUMPDEST PUSH1 0x0 PUSH2 0x10D2 DUP5 DUP3 DUP6 ADD PUSH2 0x1099 JUMP JUMPDEST SWAP2 POP POP SWAP3 SWAP2 POP POP JUMP JUMPDEST PUSH1 0x0 DUP3 DUP3 MSTORE PUSH1 0x20 DUP3 ADD SWAP1 POP SWAP3 SWAP2 POP POP JUMP JUMPDEST PUSH32 0x6E6674206F776E657220213D206D73672E73656E646572000000000000000000 PUSH1 0x0 DUP3 ADD MSTORE POP JUMP JUMPDEST PUSH1 0x0 PUSH2 0x1122 PUSH1 0x17 DUP4 PUSH2 0x10DB JUMP JUMPDEST SWAP2 POP PUSH2 0x112D DUP3 PUSH2 0x10EC JUMP JUMPDEST PUSH1 0x20 DUP3 ADD SWAP1 POP SWAP2 SWAP1 POP JUMP JUMPDEST PUSH1 0x0 PUSH1 0x20 DUP3 ADD SWAP1 POP DUP2 DUP2 SUB PUSH1 0x0 DUP4 ADD MSTORE PUSH2 0x1151 DUP2 PUSH2 0x1115 JUMP JUMPDEST SWAP1 POP SWAP2 SWAP1 POP JUMP JUMPDEST PUSH1 0x0 PUSH1 0x40 DUP3 ADD SWAP1 POP PUSH2 0x116D PUSH1 0x0 DUP4 ADD DUP6 PUSH2 0xFB0 JUMP JUMPDEST PUSH2 0x117A PUSH1 0x20 DUP4 ADD DUP5 PUSH2 0xFB0 JUMP JUMPDEST SWAP4 SWAP3 POP POP POP JUMP JUMPDEST PUSH1 0x0 PUSH1 0x60 DUP3 ADD SWAP1 POP PUSH2 0x1196 PUSH1 0x0 DUP4 ADD DUP7 PUSH2 0xF86 JUMP JUMPDEST PUSH2 0x11A3 PUSH1 0x20 DUP4 ADD DUP6 PUSH2 0xF86 JUMP JUMPDEST PUSH2 0x11B0 PUSH1 0x40 DUP4 ADD DUP5 PUSH2 0xFB0 JUMP JUMPDEST SWAP5 SWAP4 POP POP POP POP JUMP JUMPDEST PUSH1 0x0 DUP2 MLOAD SWAP1 POP SWAP2 SWAP1 POP JUMP JUMPDEST PUSH1 0x0 DUP2 SWAP1 POP SWAP3 SWAP2 POP POP JUMP JUMPDEST PUSH1 0x0 PUSH2 0x11D9 DUP3 PUSH2 0x11B8 JUMP JUMPDEST PUSH2 0x11E3 DUP2 DUP6 PUSH2 0x11C3 JUMP JUMPDEST SWAP4 POP PUSH2 0x11F3 DUP2 DUP6 PUSH1 0x20 DUP7 ADD PUSH2 0x100C JUMP JUMPDEST DUP1 DUP5 ADD SWAP2 POP POP SWAP3 SWAP2 POP POP JUMP JUMPDEST PUSH1 0x0 PUSH2 0x120B DUP3 DUP5 PUSH2 0x11CE JUMP JUMPDEST SWAP2 POP DUP2 SWAP1 POP SWAP3 SWAP2 POP POP JUMP JUMPDEST PUSH1 0x0 PUSH2 0x1221 DUP3 PUSH2 0xFF6 JUMP JUMPDEST PUSH2 0x122B DUP2 DUP6 PUSH2 0x10DB JUMP JUMPDEST SWAP4 POP PUSH2 0x123B DUP2 DUP6 PUSH1 0x20 DUP7 ADD PUSH2 0x100C JUMP JUMPDEST PUSH2 0x1244 DUP2 PUSH2 0xB8D JUMP JUMPDEST DUP5 ADD SWAP2 POP POP SWAP3 SWAP2 POP POP JUMP JUMPDEST PUSH1 0x0 PUSH1 0x40 DUP3 ADD SWAP1 POP DUP2 DUP2 SUB PUSH1 0x0 DUP4 ADD MSTORE PUSH2 0x1269 DUP2 DUP6 PUSH2 0x1216 JUMP JUMPDEST SWAP1 POP PUSH2 0x1278 PUSH1 0x20 DUP4 ADD DUP5 PUSH2 0xFB0 JUMP JUMPDEST SWAP4 SWAP3 POP POP POP JUMP INVALID LOG2 PUSH5 0x6970667358 0x22 SLT KECCAK256 0xEF ADDMOD DUP8 SWAP13 SWAP1 0xD LOG0 SWAP10 CODESIZE SIGNEXTEND EXTCODEHASH 0xE2 0xE5 0xBF STATICCALL PUSH29 0x2E4A1DA2BCC89906BD1B1ACE47A1AF4464736F6C634300081100330000 "
				},
				"gasEstimates": {
					"creation": {
						"codeDepositCost": "957800",
						"executionCost": "994",
						"totalCost": "958794"
					},
					"external": {
						"addNftList(string,address)": "infinite",
						"applySale(string,uint256,uint256)": "infinite",
						"buySale(string,uint256)": "infinite",
						"getNftList(string)": "infinite",
						"getSales(string,uint256)": "infinite",
						"makeTransfer(string,address,address,uint256)": "infinite",
						"nftList(string)": "infinite",
						"transferFrom(string,address,address,uint256)": "infinite"
					}
				},
				"methodIdentifiers": {
					"addNftList(string,address)": "3c6a15a7",
					"applySale(string,uint256,uint256)": "0f554ee1",
					"buySale(string,uint256)": "62a638b9",
					"getNftList(string)": "7cb95147",
					"getSales(string,uint256)": "d72df326",
					"makeTransfer(string,address,address,uint256)": "189ac995",
					"nftList(string)": "6f45c033",
					"transferFrom(string,address,address,uint256)": "1fc38a8b"
				}
			},
			"storageLayout": {
				"storage": [
					{
						"astId": 173,
						"contract": "NftExchanger.sol:NftExchanger",
						"label": "nftList",
						"offset": 0,
						"slot": "0",
						"type": "t_mapping(t_string_memory_ptr,t_address)"
					},
					{
						"astId": 180,
						"contract": "NftExchanger.sol:NftExchanger",
						"label": "_sales",
						"offset": 0,
						"slot": "1",
						"type": "t_mapping(t_address,t_mapping(t_uint256,t_struct(SaleInfo)169_storage))"
					}
				],
				"types": {
					"t_address": {
						"encoding": "inplace",
						"label": "address",
						"numberOfBytes": "20"
					},
					"t_mapping(t_address,t_mapping(t_uint256,t_struct(SaleInfo)169_storage))": {
						"encoding": "mapping",
						"key": "t_address",
						"label": "mapping(address => mapping(uint256 => struct NftExchanger.SaleInfo))",
						"numberOfBytes": "32",
						"value": "t_mapping(t_uint256,t_struct(SaleInfo)169_storage)"
					},
					"t_mapping(t_string_memory_ptr,t_address)": {
						"encoding": "mapping",
						"key": "t_string_memory_ptr",
						"label": "mapping(string => address)",
						"numberOfBytes": "32",
						"value": "t_address"
					},
					"t_mapping(t_uint256,t_struct(SaleInfo)169_storage)": {
						"encoding": "mapping",
						"key": "t_uint256",
						"label": "mapping(uint256 => struct NftExchanger.SaleInfo)",
						"numberOfBytes": "32",
						"value": "t_struct(SaleInfo)169_storage"
					},
					"t_string_memory_ptr": {
						"encoding": "bytes",
						"label": "string",
						"numberOfBytes": "32"
					},
					"t_struct(SaleInfo)169_storage": {
						"encoding": "inplace",
						"label": "struct NftExchanger.SaleInfo",
						"members": [
							{
								"astId": 164,
								"contract": "NftExchanger.sol:NftExchanger",
								"label": "onwer",
								"offset": 0,
								"slot": "0",
								"type": "t_address"
							},
							{
								"astId": 166,
								"contract": "NftExchanger.sol:NftExchanger",
								"label": "tokenId",
								"offset": 0,
								"slot": "1",
								"type": "t_uint256"
							},
							{
								"astId": 168,
								"contract": "NftExchanger.sol:NftExchanger",
								"label": "price",
								"offset": 0,
								"slot": "2",
								"type": "t_uint256"
							}
						],
						"numberOfBytes": "96"
					},
					"t_uint256": {
						"encoding": "inplace",
						"label": "uint256",
						"numberOfBytes": "32"
					}
				}
			},
			"userdoc": {
				"kind": "user",
				"methods": {},
				"version": 1
			}
		}
	}
}