{
	"nftExchanger.sol": {
		"NftExchanger": {
			"abi": [
				{
					"anonymous": false,
					"inputs": [
						{
							"indexed": false,
							"internalType": "address",
							"name": "CA",
							"type": "address"
						},
						{
							"indexed": false,
							"internalType": "uint256",
							"name": "tokenId",
							"type": "uint256"
						},
						{
							"indexed": false,
							"internalType": "uint256",
							"name": "price",
							"type": "uint256"
						},
						{
							"indexed": true,
							"internalType": "address",
							"name": "applyer",
							"type": "address"
						}
					],
					"name": "ApplySale",
					"type": "event"
				},
				{
					"anonymous": false,
					"inputs": [
						{
							"indexed": true,
							"internalType": "address",
							"name": "CA",
							"type": "address"
						}
					],
					"name": "CheckId",
					"type": "event"
				},
				{
					"anonymous": false,
					"inputs": [
						{
							"indexed": false,
							"internalType": "address",
							"name": "CA",
							"type": "address"
						},
						{
							"indexed": false,
							"internalType": "uint256",
							"name": "tokenId",
							"type": "uint256"
						},
						{
							"indexed": false,
							"internalType": "uint256",
							"name": "price",
							"type": "uint256"
						},
						{
							"indexed": true,
							"internalType": "address",
							"name": "buyer",
							"type": "address"
						},
						{
							"indexed": true,
							"internalType": "address",
							"name": "seller",
							"type": "address"
						}
					],
					"name": "Sale",
					"type": "event"
				},
				{
					"anonymous": false,
					"inputs": [
						{
							"indexed": false,
							"internalType": "address",
							"name": "CA",
							"type": "address"
						},
						{
							"indexed": false,
							"internalType": "uint256",
							"name": "tokenId",
							"type": "uint256"
						},
						{
							"indexed": false,
							"internalType": "uint256",
							"name": "price",
							"type": "uint256"
						},
						{
							"indexed": true,
							"internalType": "address",
							"name": "from",
							"type": "address"
						},
						{
							"indexed": true,
							"internalType": "address",
							"name": "to",
							"type": "address"
						}
					],
					"name": "TransferFrom",
					"type": "event"
				},
				{
					"inputs": [
						{
							"internalType": "string",
							"name": "nftName",
							"type": "string"
						},
						{
							"internalType": "address",
							"name": "CA",
							"type": "address"
						}
					],
					"name": "addNftList",
					"outputs": [],
					"stateMutability": "nonpayable",
					"type": "function"
				},
				{
					"inputs": [
						{
							"internalType": "string",
							"name": "nftName",
							"type": "string"
						},
						{
							"internalType": "uint256",
							"name": "tokenId",
							"type": "uint256"
						},
						{
							"internalType": "uint256",
							"name": "price",
							"type": "uint256"
						}
					],
					"name": "applySale",
					"outputs": [],
					"stateMutability": "nonpayable",
					"type": "function"
				},
				{
					"inputs": [
						{
							"internalType": "string",
							"name": "nftName",
							"type": "string"
						},
						{
							"internalType": "uint256",
							"name": "tokenId",
							"type": "uint256"
						}
					],
					"name": "buySale",
					"outputs": [],
					"stateMutability": "payable",
					"type": "function"
				},
				{
					"inputs": [
						{
							"internalType": "string",
							"name": "nftName",
							"type": "string"
						}
					],
					"name": "getNftList",
					"outputs": [
						{
							"internalType": "address",
							"name": "",
							"type": "address"
						}
					],
					"stateMutability": "view",
					"type": "function"
				},
				{
					"inputs": [
						{
							"internalType": "string",
							"name": "nftName",
							"type": "string"
						},
						{
							"internalType": "uint256",
							"name": "tokenId",
							"type": "uint256"
						}
					],
					"name": "getSales",
					"outputs": [
						{
							"internalType": "address",
							"name": "",
							"type": "address"
						},
						{
							"internalType": "uint256",
							"name": "",
							"type": "uint256"
						},
						{
							"internalType": "uint256",
							"name": "",
							"type": "uint256"
						}
					],
					"stateMutability": "view",
					"type": "function"
				},
				{
					"inputs": [
						{
							"internalType": "string",
							"name": "nftName",
							"type": "string"
						},
						{
							"internalType": "address",
							"name": "from",
							"type": "address"
						},
						{
							"internalType": "address",
							"name": "to",
							"type": "address"
						},
						{
							"internalType": "uint256",
							"name": "tokenId",
							"type": "uint256"
						}
					],
					"name": "makeTransfer",
					"outputs": [],
					"stateMutability": "nonpayable",
					"type": "function"
				},
				{
					"inputs": [
						{
							"internalType": "string",
							"name": "",
							"type": "string"
						}
					],
					"name": "nftList",
					"outputs": [
						{
							"internalType": "address",
							"name": "",
							"type": "address"
						}
					],
					"stateMutability": "view",
					"type": "function"
				}
			],
			"devdoc": {
				"kind": "dev",
				"methods": {},
				"version": 1
			},
			"evm": {
				"assembly": "    /* \"nftExchanger.sol\":117:2677  contract NftExchanger {... */\n  mstore(0x40, 0x80)\n  callvalue\n  dup1\n  iszero\n  tag_1\n  jumpi\n  0x00\n  dup1\n  revert\ntag_1:\n  pop\n  dataSize(sub_0)\n  dup1\n  dataOffset(sub_0)\n  0x00\n  codecopy\n  0x00\n  return\nstop\n\nsub_0: assembly {\n        /* \"nftExchanger.sol\":117:2677  contract NftExchanger {... */\n      mstore(0x40, 0x80)\n      jumpi(tag_1, lt(calldatasize, 0x04))\n      shr(0xe0, calldataload(0x00))\n      dup1\n      0x62a638b9\n      gt\n      tag_9\n      jumpi\n      dup1\n      0x62a638b9\n      eq\n      tag_5\n      jumpi\n      dup1\n      0x6f45c033\n      eq\n      tag_6\n      jumpi\n      dup1\n      0x7cb95147\n      eq\n      tag_7\n      jumpi\n      dup1\n      0xd72df326\n      eq\n      tag_8\n      jumpi\n      jump(tag_1)\n    tag_9:\n      dup1\n      0x0f554ee1\n      eq\n      tag_2\n      jumpi\n      dup1\n      0x189ac995\n      eq\n      tag_3\n      jumpi\n      dup1\n      0x3c6a15a7\n      eq\n      tag_4\n      jumpi\n    tag_1:\n      0x00\n      dup1\n      revert\n        /* \"nftExchanger.sol\":1278:1710  function applySale(... */\n    tag_2:\n      callvalue\n      dup1\n      iszero\n      tag_10\n      jumpi\n      0x00\n      dup1\n      revert\n    tag_10:\n      pop\n      tag_11\n      0x04\n      dup1\n      calldatasize\n      sub\n      dup2\n      add\n      swap1\n      tag_12\n      swap2\n      swap1\n      tag_13\n      jump\t// in\n    tag_12:\n      tag_14\n      jump\t// in\n    tag_11:\n      stop\n        /* \"nftExchanger.sol\":840:1047  function makeTransfer(... */\n    tag_3:\n      callvalue\n      dup1\n      iszero\n      tag_15\n      jumpi\n      0x00\n      dup1\n      revert\n    tag_15:\n      pop\n      tag_16\n      0x04\n      dup1\n      calldatasize\n      sub\n      dup2\n      add\n      swap1\n      tag_17\n      swap2\n      swap1\n      tag_18\n      jump\t// in\n    tag_17:\n      tag_19\n      jump\t// in\n    tag_16:\n      stop\n        /* \"nftExchanger.sol\":1053:1153  function addNftList(string memory nftName, address CA) public {... */\n    tag_4:\n      callvalue\n      dup1\n      iszero\n      tag_20\n      jumpi\n      0x00\n      dup1\n      revert\n    tag_20:\n      pop\n      tag_21\n      0x04\n      dup1\n      calldatasize\n      sub\n      dup2\n      add\n      swap1\n      tag_22\n      swap2\n      swap1\n      tag_23\n      jump\t// in\n    tag_22:\n      tag_24\n      jump\t// in\n    tag_21:\n      stop\n        /* \"nftExchanger.sol\":2137:2675  function buySale(string memory nftName, uint256 tokenId) public payable {... */\n    tag_5:\n      tag_25\n      0x04\n      dup1\n      calldatasize\n      sub\n      dup2\n      add\n      swap1\n      tag_26\n      swap2\n      swap1\n      tag_27\n      jump\t// in\n    tag_26:\n      tag_28\n      jump\t// in\n    tag_25:\n      stop\n        /* \"nftExchanger.sol\":722:763  mapping(string => address) public nftList */\n    tag_6:\n      callvalue\n      dup1\n      iszero\n      tag_29\n      jumpi\n      0x00\n      dup1\n      revert\n    tag_29:\n      pop\n      tag_30\n      0x04\n      dup1\n      calldatasize\n      sub\n      dup2\n      add\n      swap1\n      tag_31\n      swap2\n      swap1\n      tag_32\n      jump\t// in\n    tag_31:\n      tag_33\n      jump\t// in\n    tag_30:\n      mload(0x40)\n      tag_34\n      swap2\n      swap1\n      tag_35\n      jump\t// in\n    tag_34:\n      mload(0x40)\n      dup1\n      swap2\n      sub\n      swap1\n      return\n        /* \"nftExchanger.sol\":1159:1272  function getNftList(string memory nftName) public view returns (address) {... */\n    tag_7:\n      callvalue\n      dup1\n      iszero\n      tag_36\n      jumpi\n      0x00\n      dup1\n      revert\n    tag_36:\n      pop\n      tag_37\n      0x04\n      dup1\n      calldatasize\n      sub\n      dup2\n      add\n      swap1\n      tag_38\n      swap2\n      swap1\n      tag_32\n      jump\t// in\n    tag_38:\n      tag_39\n      jump\t// in\n    tag_37:\n      mload(0x40)\n      tag_40\n      swap2\n      swap1\n      tag_35\n      jump\t// in\n    tag_40:\n      mload(0x40)\n      dup1\n      swap2\n      sub\n      swap1\n      return\n        /* \"nftExchanger.sol\":1716:2131  function getSales(string memory nftName, uint256 tokenId)... */\n    tag_8:\n      callvalue\n      dup1\n      iszero\n      tag_41\n      jumpi\n      0x00\n      dup1\n      revert\n    tag_41:\n      pop\n      tag_42\n      0x04\n      dup1\n      calldatasize\n      sub\n      dup2\n      add\n      swap1\n      tag_43\n      swap2\n      swap1\n      tag_27\n      jump\t// in\n    tag_43:\n      tag_44\n      jump\t// in\n    tag_42:\n      mload(0x40)\n      tag_45\n      swap4\n      swap3\n      swap2\n      swap1\n      tag_46\n      jump\t// in\n    tag_45:\n      mload(0x40)\n      dup1\n      swap2\n      sub\n      swap1\n      return\n        /* \"nftExchanger.sol\":1278:1710  function applySale(... */\n    tag_14:\n        /* \"nftExchanger.sol\":1466:1476  msg.sender */\n      caller\n        /* \"nftExchanger.sol\":1420:1476  IERC721(nftList[nftName]).ownerOf(tokenId) == msg.sender */\n      0xffffffffffffffffffffffffffffffffffffffff\n      and\n        /* \"nftExchanger.sol\":1428:1435  nftList */\n      0x00\n        /* \"nftExchanger.sol\":1436:1443  nftName */\n      dup5\n        /* \"nftExchanger.sol\":1428:1444  nftList[nftName] */\n      mload(0x40)\n      tag_48\n      swap2\n      swap1\n      tag_49\n      jump\t// in\n    tag_48:\n      swap1\n      dup2\n      mstore\n      0x20\n      add\n      mload(0x40)\n      dup1\n      swap2\n      sub\n      swap1\n      keccak256\n      0x00\n      swap1\n      sload\n      swap1\n      0x0100\n      exp\n      swap1\n      div\n      0xffffffffffffffffffffffffffffffffffffffff\n      and\n        /* \"nftExchanger.sol\":1420:1453  IERC721(nftList[nftName]).ownerOf */\n      0xffffffffffffffffffffffffffffffffffffffff\n      and\n      0x6352211e\n        /* \"nftExchanger.sol\":1454:1461  tokenId */\n      dup5\n        /* \"nftExchanger.sol\":1420:1462  IERC721(nftList[nftName]).ownerOf(tokenId) */\n      mload(0x40)\n      dup3\n      0xffffffff\n      and\n      0xe0\n      shl\n      dup2\n      mstore\n      0x04\n      add\n      tag_50\n      swap2\n      swap1\n      tag_51\n      jump\t// in\n    tag_50:\n      0x20\n      mload(0x40)\n      dup1\n      dup4\n      sub\n      dup2\n      dup7\n      gas\n      staticcall\n      iszero\n      dup1\n      iszero\n      tag_53\n      jumpi\n      returndatasize\n      0x00\n      dup1\n      returndatacopy\n      revert(0x00, returndatasize)\n    tag_53:\n      pop\n      pop\n      pop\n      pop\n      mload(0x40)\n      returndatasize\n      not(0x1f)\n      0x1f\n      dup3\n      add\n      and\n      dup3\n      add\n      dup1\n      0x40\n      mstore\n      pop\n      dup2\n      add\n      swap1\n      tag_54\n      swap2\n      swap1\n      tag_55\n      jump\t// in\n    tag_54:\n        /* \"nftExchanger.sol\":1420:1476  IERC721(nftList[nftName]).ownerOf(tokenId) == msg.sender */\n      0xffffffffffffffffffffffffffffffffffffffff\n      and\n      eq\n        /* \"nftExchanger.sol\":1399:1525  require(... */\n      tag_56\n      jumpi\n      mload(0x40)\n      0x08c379a000000000000000000000000000000000000000000000000000000000\n      dup2\n      mstore\n      0x04\n      add\n      tag_57\n      swap1\n      tag_58\n      jump\t// in\n    tag_57:\n      mload(0x40)\n      dup1\n      swap2\n      sub\n      swap1\n      revert\n    tag_56:\n        /* \"nftExchanger.sol\":1535:1548  address owner */\n      0x00\n        /* \"nftExchanger.sol\":1551:1561  msg.sender */\n      caller\n        /* \"nftExchanger.sol\":1535:1561  address owner = msg.sender */\n      swap1\n      pop\n        /* \"nftExchanger.sol\":1607:1638  SaleInfo(owner, tokenId, price) */\n      mload(0x40)\n      dup1\n      0x60\n      add\n      0x40\n      mstore\n      dup1\n        /* \"nftExchanger.sol\":1616:1621  owner */\n      dup3\n        /* \"nftExchanger.sol\":1607:1638  SaleInfo(owner, tokenId, price) */\n      0xffffffffffffffffffffffffffffffffffffffff\n      and\n      dup2\n      mstore\n      0x20\n      add\n        /* \"nftExchanger.sol\":1623:1630  tokenId */\n      dup5\n        /* \"nftExchanger.sol\":1607:1638  SaleInfo(owner, tokenId, price) */\n      dup2\n      mstore\n      0x20\n      add\n        /* \"nftExchanger.sol\":1632:1637  price */\n      dup4\n        /* \"nftExchanger.sol\":1607:1638  SaleInfo(owner, tokenId, price) */\n      dup2\n      mstore\n      pop\n        /* \"nftExchanger.sol\":1571:1577  _sales */\n      0x01\n        /* \"nftExchanger.sol\":1571:1595  _sales[nftList[nftName]] */\n      0x00\n        /* \"nftExchanger.sol\":1578:1585  nftList */\n      dup1\n        /* \"nftExchanger.sol\":1586:1593  nftName */\n      dup8\n        /* \"nftExchanger.sol\":1578:1594  nftList[nftName] */\n      mload(0x40)\n      tag_59\n      swap2\n      swap1\n      tag_49\n      jump\t// in\n    tag_59:\n      swap1\n      dup2\n      mstore\n      0x20\n      add\n      mload(0x40)\n      dup1\n      swap2\n      sub\n      swap1\n      keccak256\n      0x00\n      swap1\n      sload\n      swap1\n      0x0100\n      exp\n      swap1\n      div\n      0xffffffffffffffffffffffffffffffffffffffff\n      and\n        /* \"nftExchanger.sol\":1571:1595  _sales[nftList[nftName]] */\n      0xffffffffffffffffffffffffffffffffffffffff\n      and\n      0xffffffffffffffffffffffffffffffffffffffff\n      and\n      dup2\n      mstore\n      0x20\n      add\n      swap1\n      dup2\n      mstore\n      0x20\n      add\n      0x00\n      keccak256\n        /* \"nftExchanger.sol\":1571:1604  _sales[nftList[nftName]][tokenId] */\n      0x00\n        /* \"nftExchanger.sol\":1596:1603  tokenId */\n      dup6\n        /* \"nftExchanger.sol\":1571:1604  _sales[nftList[nftName]][tokenId] */\n      dup2\n      mstore\n      0x20\n      add\n      swap1\n      dup2\n      mstore\n      0x20\n      add\n      0x00\n      keccak256\n        /* \"nftExchanger.sol\":1571:1638  _sales[nftList[nftName]][tokenId] = SaleInfo(owner, tokenId, price) */\n      0x00\n      dup3\n      add\n      mload\n      dup2\n      0x00\n      add\n      exp(0x0100, 0x00)\n      dup2\n      sload\n      dup2\n      0xffffffffffffffffffffffffffffffffffffffff\n      mul\n      not\n      and\n      swap1\n      dup4\n      0xffffffffffffffffffffffffffffffffffffffff\n      and\n      mul\n      or\n      swap1\n      sstore\n      pop\n      0x20\n      dup3\n      add\n      mload\n      dup2\n      0x01\n      add\n      sstore\n      0x40\n      dup3\n      add\n      mload\n      dup2\n      0x02\n      add\n      sstore\n      swap1\n      pop\n      pop\n        /* \"nftExchanger.sol\":1697:1702  owner */\n      dup1\n        /* \"nftExchanger.sol\":1653:1703  ApplySale(nftList[nftName], tokenId, price, owner) */\n      0xffffffffffffffffffffffffffffffffffffffff\n      and\n      0x76ace3ea45ab2691269253cf4691623b115072483bd49fd7fc1f378f42f5a7a5\n        /* \"nftExchanger.sol\":1663:1670  nftList */\n      0x00\n        /* \"nftExchanger.sol\":1671:1678  nftName */\n      dup7\n        /* \"nftExchanger.sol\":1663:1679  nftList[nftName] */\n      mload(0x40)\n      tag_60\n      swap2\n      swap1\n      tag_49\n      jump\t// in\n    tag_60:\n      swap1\n      dup2\n      mstore\n      0x20\n      add\n      mload(0x40)\n      dup1\n      swap2\n      sub\n      swap1\n      keccak256\n      0x00\n      swap1\n      sload\n      swap1\n      0x0100\n      exp\n      swap1\n      div\n      0xffffffffffffffffffffffffffffffffffffffff\n      and\n        /* \"nftExchanger.sol\":1681:1688  tokenId */\n      dup6\n        /* \"nftExchanger.sol\":1690:1695  price */\n      dup6\n        /* \"nftExchanger.sol\":1653:1703  ApplySale(nftList[nftName], tokenId, price, owner) */\n      mload(0x40)\n      tag_61\n      swap4\n      swap3\n      swap2\n      swap1\n      tag_46\n      jump\t// in\n    tag_61:\n      mload(0x40)\n      dup1\n      swap2\n      sub\n      swap1\n      log2\n        /* \"nftExchanger.sol\":1389:1710  {... */\n      pop\n        /* \"nftExchanger.sol\":1278:1710  function applySale(... */\n      pop\n      pop\n      pop\n      jump\t// out\n        /* \"nftExchanger.sol\":840:1047  function makeTransfer(... */\n    tag_19:\n        /* \"nftExchanger.sol\":991:998  nftList */\n      0x00\n        /* \"nftExchanger.sol\":999:1006  nftName */\n      dup5\n        /* \"nftExchanger.sol\":991:1007  nftList[nftName] */\n      mload(0x40)\n      tag_63\n      swap2\n      swap1\n      tag_49\n      jump\t// in\n    tag_63:\n      swap1\n      dup2\n      mstore\n      0x20\n      add\n      mload(0x40)\n      dup1\n      swap2\n      sub\n      swap1\n      keccak256\n      0x00\n      swap1\n      sload\n      swap1\n      0x0100\n      exp\n      swap1\n      div\n      0xffffffffffffffffffffffffffffffffffffffff\n      and\n        /* \"nftExchanger.sol\":983:1021  IERC721(nftList[nftName]).transferFrom */\n      0xffffffffffffffffffffffffffffffffffffffff\n      and\n      0x23b872dd\n        /* \"nftExchanger.sol\":1022:1026  from */\n      dup5\n        /* \"nftExchanger.sol\":1028:1030  to */\n      dup5\n        /* \"nftExchanger.sol\":1032:1039  tokenId */\n      dup5\n        /* \"nftExchanger.sol\":983:1040  IERC721(nftList[nftName]).transferFrom(from, to, tokenId) */\n      mload(0x40)\n      dup5\n      0xffffffff\n      and\n      0xe0\n      shl\n      dup2\n      mstore\n      0x04\n      add\n      tag_64\n      swap4\n      swap3\n      swap2\n      swap1\n      tag_65\n      jump\t// in\n    tag_64:\n      0x00\n      mload(0x40)\n      dup1\n      dup4\n      sub\n      dup2\n      0x00\n      dup8\n      dup1\n      extcodesize\n      iszero\n      dup1\n      iszero\n      tag_66\n      jumpi\n      0x00\n      dup1\n      revert\n    tag_66:\n      pop\n      gas\n      call\n      iszero\n      dup1\n      iszero\n      tag_68\n      jumpi\n      returndatasize\n      0x00\n      dup1\n      returndatacopy\n      revert(0x00, returndatasize)\n    tag_68:\n      pop\n      pop\n      pop\n      pop\n        /* \"nftExchanger.sol\":840:1047  function makeTransfer(... */\n      pop\n      pop\n      pop\n      pop\n      jump\t// out\n        /* \"nftExchanger.sol\":1053:1153  function addNftList(string memory nftName, address CA) public {... */\n    tag_24:\n        /* \"nftExchanger.sol\":1144:1146  CA */\n      dup1\n        /* \"nftExchanger.sol\":1125:1132  nftList */\n      0x00\n        /* \"nftExchanger.sol\":1133:1140  nftName */\n      dup4\n        /* \"nftExchanger.sol\":1125:1141  nftList[nftName] */\n      mload(0x40)\n      tag_70\n      swap2\n      swap1\n      tag_49\n      jump\t// in\n    tag_70:\n      swap1\n      dup2\n      mstore\n      0x20\n      add\n      mload(0x40)\n      dup1\n      swap2\n      sub\n      swap1\n      keccak256\n      0x00\n        /* \"nftExchanger.sol\":1125:1146  nftList[nftName] = CA */\n      0x0100\n      exp\n      dup2\n      sload\n      dup2\n      0xffffffffffffffffffffffffffffffffffffffff\n      mul\n      not\n      and\n      swap1\n      dup4\n      0xffffffffffffffffffffffffffffffffffffffff\n      and\n      mul\n      or\n      swap1\n      sstore\n      pop\n        /* \"nftExchanger.sol\":1053:1153  function addNftList(string memory nftName, address CA) public {... */\n      pop\n      pop\n      jump\t// out\n        /* \"nftExchanger.sol\":2137:2675  function buySale(string memory nftName, uint256 tokenId) public payable {... */\n    tag_28:\n        /* \"nftExchanger.sol\":2220:2234  address _owner */\n      0x00\n        /* \"nftExchanger.sol\":2236:2252  uint256 _tokenId */\n      dup1\n        /* \"nftExchanger.sol\":2254:2268  uint256 _price */\n      0x00\n        /* \"nftExchanger.sol\":2272:2332  getSales(... */\n      tag_72\n        /* \"nftExchanger.sol\":2294:2301  nftName */\n      dup6\n        /* \"nftExchanger.sol\":2315:2322  tokenId */\n      dup6\n        /* \"nftExchanger.sol\":2272:2280  getSales */\n      tag_44\n        /* \"nftExchanger.sol\":2272:2332  getSales(... */\n      jump\t// in\n    tag_72:\n        /* \"nftExchanger.sol\":2219:2332  (address _owner, uint256 _tokenId, uint256 _price) = getSales(... */\n      swap3\n      pop\n      swap3\n      pop\n      swap3\n      pop\n        /* \"nftExchanger.sol\":2360:2369  msg.value */\n      callvalue\n        /* \"nftExchanger.sol\":2350:2356  _price */\n      dup2\n        /* \"nftExchanger.sol\":2350:2369  _price == msg.value */\n      eq\n        /* \"nftExchanger.sol\":2342:2370  require(_price == msg.value) */\n      tag_73\n      jumpi\n      0x00\n      dup1\n      revert\n    tag_73:\n        /* \"nftExchanger.sol\":2380:2402  address payable seller */\n      0x00\n        /* \"nftExchanger.sol\":2413:2419  _owner */\n      dup4\n        /* \"nftExchanger.sol\":2380:2420  address payable seller = payable(_owner) */\n      swap1\n      pop\n        /* \"nftExchanger.sol\":2430:2443  address buyer */\n      0x00\n        /* \"nftExchanger.sol\":2446:2456  msg.sender */\n      caller\n        /* \"nftExchanger.sol\":2430:2456  address buyer = msg.sender */\n      swap1\n      pop\n        /* \"nftExchanger.sol\":2466:2472  seller */\n      dup2\n        /* \"nftExchanger.sol\":2466:2481  seller.transfer */\n      0xffffffffffffffffffffffffffffffffffffffff\n      and\n        /* \"nftExchanger.sol\":2466:2492  seller.transfer(msg.value) */\n      0x08fc\n        /* \"nftExchanger.sol\":2482:2491  msg.value */\n      callvalue\n        /* \"nftExchanger.sol\":2466:2492  seller.transfer(msg.value) */\n      swap1\n      dup2\n      iszero\n      mul\n      swap1\n      mload(0x40)\n      0x00\n      mload(0x40)\n      dup1\n      dup4\n      sub\n      dup2\n      dup6\n      dup9\n      dup9\n      call\n      swap4\n      pop\n      pop\n      pop\n      pop\n      iszero\n      dup1\n      iszero\n      tag_75\n      jumpi\n      returndatasize\n      0x00\n      dup1\n      returndatacopy\n      revert(0x00, returndatasize)\n    tag_75:\n      pop\n        /* \"nftExchanger.sol\":2502:2547  makeTransfer(nftName, _owner, buyer, tokenId) */\n      tag_76\n        /* \"nftExchanger.sol\":2515:2522  nftName */\n      dup8\n        /* \"nftExchanger.sol\":2524:2530  _owner */\n      dup7\n        /* \"nftExchanger.sol\":2532:2537  buyer */\n      dup4\n        /* \"nftExchanger.sol\":2539:2546  tokenId */\n      dup10\n        /* \"nftExchanger.sol\":2502:2514  makeTransfer */\n      tag_19\n        /* \"nftExchanger.sol\":2502:2547  makeTransfer(nftName, _owner, buyer, tokenId) */\n      jump\t// in\n    tag_76:\n        /* \"nftExchanger.sol\":2564:2570  _sales */\n      0x01\n        /* \"nftExchanger.sol\":2564:2588  _sales[nftList[nftName]] */\n      0x00\n        /* \"nftExchanger.sol\":2571:2578  nftList */\n      dup1\n        /* \"nftExchanger.sol\":2579:2586  nftName */\n      dup10\n        /* \"nftExchanger.sol\":2571:2587  nftList[nftName] */\n      mload(0x40)\n      tag_77\n      swap2\n      swap1\n      tag_49\n      jump\t// in\n    tag_77:\n      swap1\n      dup2\n      mstore\n      0x20\n      add\n      mload(0x40)\n      dup1\n      swap2\n      sub\n      swap1\n      keccak256\n      0x00\n      swap1\n      sload\n      swap1\n      0x0100\n      exp\n      swap1\n      div\n      0xffffffffffffffffffffffffffffffffffffffff\n      and\n        /* \"nftExchanger.sol\":2564:2588  _sales[nftList[nftName]] */\n      0xffffffffffffffffffffffffffffffffffffffff\n      and\n      0xffffffffffffffffffffffffffffffffffffffff\n      and\n      dup2\n      mstore\n      0x20\n      add\n      swap1\n      dup2\n      mstore\n      0x20\n      add\n      0x00\n      keccak256\n        /* \"nftExchanger.sol\":2564:2598  _sales[nftList[nftName]][_tokenId] */\n      0x00\n        /* \"nftExchanger.sol\":2589:2597  _tokenId */\n      dup6\n        /* \"nftExchanger.sol\":2564:2598  _sales[nftList[nftName]][_tokenId] */\n      dup2\n      mstore\n      0x20\n      add\n      swap1\n      dup2\n      mstore\n      0x20\n      add\n      0x00\n      keccak256\n      0x00\n        /* \"nftExchanger.sol\":2557:2598  delete _sales[nftList[nftName]][_tokenId] */\n      dup1\n      dup3\n      add\n      exp(0x0100, 0x00)\n      dup2\n      sload\n      swap1\n      0xffffffffffffffffffffffffffffffffffffffff\n      mul\n      not\n      and\n      swap1\n      sstore\n      0x01\n      dup3\n      add\n      0x00\n      swap1\n      sstore\n      0x02\n      dup3\n      add\n      0x00\n      swap1\n      sstore\n      pop\n      pop\n        /* \"nftExchanger.sol\":2661:2667  seller */\n      dup2\n        /* \"nftExchanger.sol\":2613:2668  Sale(nftList[nftName], _tokenId, _price, buyer, seller) */\n      0xffffffffffffffffffffffffffffffffffffffff\n      and\n        /* \"nftExchanger.sol\":2654:2659  buyer */\n      dup2\n        /* \"nftExchanger.sol\":2613:2668  Sale(nftList[nftName], _tokenId, _price, buyer, seller) */\n      0xffffffffffffffffffffffffffffffffffffffff\n      and\n      0x4bbee585c68c014080a294e95cc21a3bcb641b0ddf539f0cc2306b97b7efb905\n        /* \"nftExchanger.sol\":2618:2625  nftList */\n      0x00\n        /* \"nftExchanger.sol\":2626:2633  nftName */\n      dup11\n        /* \"nftExchanger.sol\":2618:2634  nftList[nftName] */\n      mload(0x40)\n      tag_78\n      swap2\n      swap1\n      tag_49\n      jump\t// in\n    tag_78:\n      swap1\n      dup2\n      mstore\n      0x20\n      add\n      mload(0x40)\n      dup1\n      swap2\n      sub\n      swap1\n      keccak256\n      0x00\n      swap1\n      sload\n      swap1\n      0x0100\n      exp\n      swap1\n      div\n      0xffffffffffffffffffffffffffffffffffffffff\n      and\n        /* \"nftExchanger.sol\":2636:2644  _tokenId */\n      dup8\n        /* \"nftExchanger.sol\":2646:2652  _price */\n      dup8\n        /* \"nftExchanger.sol\":2613:2668  Sale(nftList[nftName], _tokenId, _price, buyer, seller) */\n      mload(0x40)\n      tag_79\n      swap4\n      swap3\n      swap2\n      swap1\n      tag_46\n      jump\t// in\n    tag_79:\n      mload(0x40)\n      dup1\n      swap2\n      sub\n      swap1\n      log3\n        /* \"nftExchanger.sol\":2209:2675  {... */\n      pop\n      pop\n      pop\n      pop\n      pop\n        /* \"nftExchanger.sol\":2137:2675  function buySale(string memory nftName, uint256 tokenId) public payable {... */\n      pop\n      pop\n      jump\t// out\n        /* \"nftExchanger.sol\":722:763  mapping(string => address) public nftList */\n    tag_33:\n      0x00\n      dup2\n      dup1\n      mload\n      0x20\n      dup2\n      add\n      dup3\n      add\n      dup1\n      mload\n      dup5\n      dup3\n      mstore\n      0x20\n      dup4\n      add\n      0x20\n      dup6\n      add\n      keccak256\n      dup2\n      dup4\n      mstore\n      dup1\n      swap6\n      pop\n      pop\n      pop\n      pop\n      pop\n      pop\n      0x00\n      swap2\n      pop\n      sload\n      swap1\n      0x0100\n      exp\n      swap1\n      div\n      0xffffffffffffffffffffffffffffffffffffffff\n      and\n      dup2\n      jump\t// out\n        /* \"nftExchanger.sol\":1159:1272  function getNftList(string memory nftName) public view returns (address) {... */\n    tag_39:\n        /* \"nftExchanger.sol\":1223:1230  address */\n      0x00\n        /* \"nftExchanger.sol\":1249:1256  nftList */\n      dup1\n        /* \"nftExchanger.sol\":1257:1264  nftName */\n      dup3\n        /* \"nftExchanger.sol\":1249:1265  nftList[nftName] */\n      mload(0x40)\n      tag_81\n      swap2\n      swap1\n      tag_49\n      jump\t// in\n    tag_81:\n      swap1\n      dup2\n      mstore\n      0x20\n      add\n      mload(0x40)\n      dup1\n      swap2\n      sub\n      swap1\n      keccak256\n      0x00\n      swap1\n      sload\n      swap1\n      0x0100\n      exp\n      swap1\n      div\n      0xffffffffffffffffffffffffffffffffffffffff\n      and\n        /* \"nftExchanger.sol\":1242:1265  return nftList[nftName] */\n      swap1\n      pop\n        /* \"nftExchanger.sol\":1159:1272  function getNftList(string memory nftName) public view returns (address) {... */\n      swap2\n      swap1\n      pop\n      jump\t// out\n        /* \"nftExchanger.sol\":1716:2131  function getSales(string memory nftName, uint256 tokenId)... */\n    tag_44:\n        /* \"nftExchanger.sol\":1832:1839  address */\n      0x00\n        /* \"nftExchanger.sol\":1853:1860  uint256 */\n      dup1\n        /* \"nftExchanger.sol\":1874:1881  uint256 */\n      0x00\n        /* \"nftExchanger.sol\":1906:1927  SaleInfo memory _sale */\n      dup1\n        /* \"nftExchanger.sol\":1930:1936  _sales */\n      0x01\n        /* \"nftExchanger.sol\":1930:1954  _sales[nftList[nftName]] */\n      0x00\n        /* \"nftExchanger.sol\":1937:1944  nftList */\n      dup1\n        /* \"nftExchanger.sol\":1945:1952  nftName */\n      dup9\n        /* \"nftExchanger.sol\":1937:1953  nftList[nftName] */\n      mload(0x40)\n      tag_83\n      swap2\n      swap1\n      tag_49\n      jump\t// in\n    tag_83:\n      swap1\n      dup2\n      mstore\n      0x20\n      add\n      mload(0x40)\n      dup1\n      swap2\n      sub\n      swap1\n      keccak256\n      0x00\n      swap1\n      sload\n      swap1\n      0x0100\n      exp\n      swap1\n      div\n      0xffffffffffffffffffffffffffffffffffffffff\n      and\n        /* \"nftExchanger.sol\":1930:1954  _sales[nftList[nftName]] */\n      0xffffffffffffffffffffffffffffffffffffffff\n      and\n      0xffffffffffffffffffffffffffffffffffffffff\n      and\n      dup2\n      mstore\n      0x20\n      add\n      swap1\n      dup2\n      mstore\n      0x20\n      add\n      0x00\n      keccak256\n        /* \"nftExchanger.sol\":1930:1963  _sales[nftList[nftName]][tokenId] */\n      0x00\n        /* \"nftExchanger.sol\":1955:1962  tokenId */\n      dup7\n        /* \"nftExchanger.sol\":1930:1963  _sales[nftList[nftName]][tokenId] */\n      dup2\n      mstore\n      0x20\n      add\n      swap1\n      dup2\n      mstore\n      0x20\n      add\n      0x00\n      keccak256\n        /* \"nftExchanger.sol\":1906:1963  SaleInfo memory _sale = _sales[nftList[nftName]][tokenId] */\n      mload(0x40)\n      dup1\n      0x60\n      add\n      0x40\n      mstore\n      swap1\n      dup2\n      0x00\n      dup3\n      add\n      0x00\n      swap1\n      sload\n      swap1\n      0x0100\n      exp\n      swap1\n      div\n      0xffffffffffffffffffffffffffffffffffffffff\n      and\n      0xffffffffffffffffffffffffffffffffffffffff\n      and\n      0xffffffffffffffffffffffffffffffffffffffff\n      and\n      dup2\n      mstore\n      0x20\n      add\n      0x01\n      dup3\n      add\n      sload\n      dup2\n      mstore\n      0x20\n      add\n      0x02\n      dup3\n      add\n      sload\n      dup2\n      mstore\n      pop\n      pop\n      swap1\n      pop\n        /* \"nftExchanger.sol\":1973:1987  address _owner */\n      0x00\n        /* \"nftExchanger.sol\":1990:1995  _sale */\n      dup2\n        /* \"nftExchanger.sol\":1990:2001  _sale.onwer */\n      0x00\n      add\n      mload\n        /* \"nftExchanger.sol\":1973:2001  address _owner = _sale.onwer */\n      swap1\n      pop\n        /* \"nftExchanger.sol\":2011:2027  uint256 _tokenId */\n      0x00\n        /* \"nftExchanger.sol\":2030:2035  _sale */\n      dup3\n        /* \"nftExchanger.sol\":2030:2043  _sale.tokenId */\n      0x20\n      add\n      mload\n        /* \"nftExchanger.sol\":2011:2043  uint256 _tokenId = _sale.tokenId */\n      swap1\n      pop\n        /* \"nftExchanger.sol\":2053:2067  uint256 _price */\n      0x00\n        /* \"nftExchanger.sol\":2070:2075  _sale */\n      dup4\n        /* \"nftExchanger.sol\":2070:2081  _sale.price */\n      0x40\n      add\n      mload\n        /* \"nftExchanger.sol\":2053:2081  uint256 _price = _sale.price */\n      swap1\n      pop\n        /* \"nftExchanger.sol\":2099:2105  _owner */\n      dup3\n        /* \"nftExchanger.sol\":2107:2115  _tokenId */\n      dup3\n        /* \"nftExchanger.sol\":2117:2123  _price */\n      dup3\n        /* \"nftExchanger.sol\":2091:2124  return (_owner, _tokenId, _price) */\n      swap7\n      pop\n      swap7\n      pop\n      swap7\n      pop\n      pop\n      pop\n      pop\n      pop\n        /* \"nftExchanger.sol\":1716:2131  function getSales(string memory nftName, uint256 tokenId)... */\n      swap3\n      pop\n      swap3\n      pop\n      swap3\n      jump\t// out\n        /* \"#utility.yul\":7:82   */\n    tag_84:\n        /* \"#utility.yul\":40:46   */\n      0x00\n        /* \"#utility.yul\":73:75   */\n      0x40\n        /* \"#utility.yul\":67:76   */\n      mload\n        /* \"#utility.yul\":57:76   */\n      swap1\n      pop\n        /* \"#utility.yul\":7:82   */\n      swap1\n      jump\t// out\n        /* \"#utility.yul\":88:205   */\n    tag_85:\n        /* \"#utility.yul\":197:198   */\n      0x00\n        /* \"#utility.yul\":194:195   */\n      dup1\n        /* \"#utility.yul\":187:199   */\n      revert\n        /* \"#utility.yul\":211:328   */\n    tag_86:\n        /* \"#utility.yul\":320:321   */\n      0x00\n        /* \"#utility.yul\":317:318   */\n      dup1\n        /* \"#utility.yul\":310:322   */\n      revert\n        /* \"#utility.yul\":334:451   */\n    tag_87:\n        /* \"#utility.yul\":443:444   */\n      0x00\n        /* \"#utility.yul\":440:441   */\n      dup1\n        /* \"#utility.yul\":433:445   */\n      revert\n        /* \"#utility.yul\":457:574   */\n    tag_88:\n        /* \"#utility.yul\":566:567   */\n      0x00\n        /* \"#utility.yul\":563:564   */\n      dup1\n        /* \"#utility.yul\":556:568   */\n      revert\n        /* \"#utility.yul\":580:682   */\n    tag_89:\n        /* \"#utility.yul\":621:627   */\n      0x00\n        /* \"#utility.yul\":672:674   */\n      0x1f\n        /* \"#utility.yul\":668:675   */\n      not\n        /* \"#utility.yul\":663:665   */\n      0x1f\n        /* \"#utility.yul\":656:661   */\n      dup4\n        /* \"#utility.yul\":652:666   */\n      add\n        /* \"#utility.yul\":648:676   */\n      and\n        /* \"#utility.yul\":638:676   */\n      swap1\n      pop\n        /* \"#utility.yul\":580:682   */\n      swap2\n      swap1\n      pop\n      jump\t// out\n        /* \"#utility.yul\":688:868   */\n    tag_90:\n        /* \"#utility.yul\":736:813   */\n      0x4e487b7100000000000000000000000000000000000000000000000000000000\n        /* \"#utility.yul\":733:734   */\n      0x00\n        /* \"#utility.yul\":726:814   */\n      mstore\n        /* \"#utility.yul\":833:837   */\n      0x41\n        /* \"#utility.yul\":830:831   */\n      0x04\n        /* \"#utility.yul\":823:838   */\n      mstore\n        /* \"#utility.yul\":857:861   */\n      0x24\n        /* \"#utility.yul\":854:855   */\n      0x00\n        /* \"#utility.yul\":847:862   */\n      revert\n        /* \"#utility.yul\":874:1155   */\n    tag_91:\n        /* \"#utility.yul\":957:984   */\n      tag_123\n        /* \"#utility.yul\":979:983   */\n      dup3\n        /* \"#utility.yul\":957:984   */\n      tag_89\n      jump\t// in\n    tag_123:\n        /* \"#utility.yul\":949:955   */\n      dup2\n        /* \"#utility.yul\":945:985   */\n      add\n        /* \"#utility.yul\":1087:1093   */\n      dup2\n        /* \"#utility.yul\":1075:1085   */\n      dup2\n        /* \"#utility.yul\":1072:1094   */\n      lt\n        /* \"#utility.yul\":1051:1069   */\n      0xffffffffffffffff\n        /* \"#utility.yul\":1039:1049   */\n      dup3\n        /* \"#utility.yul\":1036:1070   */\n      gt\n        /* \"#utility.yul\":1033:1095   */\n      or\n        /* \"#utility.yul\":1030:1118   */\n      iszero\n      tag_124\n      jumpi\n        /* \"#utility.yul\":1098:1116   */\n      tag_125\n      tag_90\n      jump\t// in\n    tag_125:\n        /* \"#utility.yul\":1030:1118   */\n    tag_124:\n        /* \"#utility.yul\":1138:1148   */\n      dup1\n        /* \"#utility.yul\":1134:1136   */\n      0x40\n        /* \"#utility.yul\":1127:1149   */\n      mstore\n        /* \"#utility.yul\":917:1155   */\n      pop\n        /* \"#utility.yul\":874:1155   */\n      pop\n      pop\n      jump\t// out\n        /* \"#utility.yul\":1161:1290   */\n    tag_92:\n        /* \"#utility.yul\":1195:1201   */\n      0x00\n        /* \"#utility.yul\":1222:1242   */\n      tag_127\n      tag_84\n      jump\t// in\n    tag_127:\n        /* \"#utility.yul\":1212:1242   */\n      swap1\n      pop\n        /* \"#utility.yul\":1251:1284   */\n      tag_128\n        /* \"#utility.yul\":1279:1283   */\n      dup3\n        /* \"#utility.yul\":1271:1277   */\n      dup3\n        /* \"#utility.yul\":1251:1284   */\n      tag_91\n      jump\t// in\n    tag_128:\n        /* \"#utility.yul\":1161:1290   */\n      swap2\n      swap1\n      pop\n      jump\t// out\n        /* \"#utility.yul\":1296:1604   */\n    tag_93:\n        /* \"#utility.yul\":1358:1362   */\n      0x00\n        /* \"#utility.yul\":1448:1466   */\n      0xffffffffffffffff\n        /* \"#utility.yul\":1440:1446   */\n      dup3\n        /* \"#utility.yul\":1437:1467   */\n      gt\n        /* \"#utility.yul\":1434:1490   */\n      iszero\n      tag_130\n      jumpi\n        /* \"#utility.yul\":1470:1488   */\n      tag_131\n      tag_90\n      jump\t// in\n    tag_131:\n        /* \"#utility.yul\":1434:1490   */\n    tag_130:\n        /* \"#utility.yul\":1508:1537   */\n      tag_132\n        /* \"#utility.yul\":1530:1536   */\n      dup3\n        /* \"#utility.yul\":1508:1537   */\n      tag_89\n      jump\t// in\n    tag_132:\n        /* \"#utility.yul\":1500:1537   */\n      swap1\n      pop\n        /* \"#utility.yul\":1592:1596   */\n      0x20\n        /* \"#utility.yul\":1586:1590   */\n      dup2\n        /* \"#utility.yul\":1582:1597   */\n      add\n        /* \"#utility.yul\":1574:1597   */\n      swap1\n      pop\n        /* \"#utility.yul\":1296:1604   */\n      swap2\n      swap1\n      pop\n      jump\t// out\n        /* \"#utility.yul\":1610:1756   */\n    tag_94:\n        /* \"#utility.yul\":1707:1713   */\n      dup3\n        /* \"#utility.yul\":1702:1705   */\n      dup2\n        /* \"#utility.yul\":1697:1700   */\n      dup4\n        /* \"#utility.yul\":1684:1714   */\n      calldatacopy\n        /* \"#utility.yul\":1748:1749   */\n      0x00\n        /* \"#utility.yul\":1739:1745   */\n      dup4\n        /* \"#utility.yul\":1734:1737   */\n      dup4\n        /* \"#utility.yul\":1730:1746   */\n      add\n        /* \"#utility.yul\":1723:1750   */\n      mstore\n        /* \"#utility.yul\":1610:1756   */\n      pop\n      pop\n      pop\n      jump\t// out\n        /* \"#utility.yul\":1762:2187   */\n    tag_95:\n        /* \"#utility.yul\":1840:1845   */\n      0x00\n        /* \"#utility.yul\":1865:1931   */\n      tag_135\n        /* \"#utility.yul\":1881:1930   */\n      tag_136\n        /* \"#utility.yul\":1923:1929   */\n      dup5\n        /* \"#utility.yul\":1881:1930   */\n      tag_93\n      jump\t// in\n    tag_136:\n        /* \"#utility.yul\":1865:1931   */\n      tag_92\n      jump\t// in\n    tag_135:\n        /* \"#utility.yul\":1856:1931   */\n      swap1\n      pop\n        /* \"#utility.yul\":1954:1960   */\n      dup3\n        /* \"#utility.yul\":1947:1952   */\n      dup2\n        /* \"#utility.yul\":1940:1961   */\n      mstore\n        /* \"#utility.yul\":1992:1996   */\n      0x20\n        /* \"#utility.yul\":1985:1990   */\n      dup2\n        /* \"#utility.yul\":1981:1997   */\n      add\n        /* \"#utility.yul\":2030:2033   */\n      dup5\n        /* \"#utility.yul\":2021:2027   */\n      dup5\n        /* \"#utility.yul\":2016:2019   */\n      dup5\n        /* \"#utility.yul\":2012:2028   */\n      add\n        /* \"#utility.yul\":2009:2034   */\n      gt\n        /* \"#utility.yul\":2006:2118   */\n      iszero\n      tag_137\n      jumpi\n        /* \"#utility.yul\":2037:2116   */\n      tag_138\n      tag_88\n      jump\t// in\n    tag_138:\n        /* \"#utility.yul\":2006:2118   */\n    tag_137:\n        /* \"#utility.yul\":2127:2181   */\n      tag_139\n        /* \"#utility.yul\":2174:2180   */\n      dup5\n        /* \"#utility.yul\":2169:2172   */\n      dup3\n        /* \"#utility.yul\":2164:2167   */\n      dup6\n        /* \"#utility.yul\":2127:2181   */\n      tag_94\n      jump\t// in\n    tag_139:\n        /* \"#utility.yul\":1846:2187   */\n      pop\n        /* \"#utility.yul\":1762:2187   */\n      swap4\n      swap3\n      pop\n      pop\n      pop\n      jump\t// out\n        /* \"#utility.yul\":2207:2547   */\n    tag_96:\n        /* \"#utility.yul\":2263:2268   */\n      0x00\n        /* \"#utility.yul\":2312:2315   */\n      dup3\n        /* \"#utility.yul\":2305:2309   */\n      0x1f\n        /* \"#utility.yul\":2297:2303   */\n      dup4\n        /* \"#utility.yul\":2293:2310   */\n      add\n        /* \"#utility.yul\":2289:2316   */\n      slt\n        /* \"#utility.yul\":2279:2401   */\n      tag_141\n      jumpi\n        /* \"#utility.yul\":2320:2399   */\n      tag_142\n      tag_87\n      jump\t// in\n    tag_142:\n        /* \"#utility.yul\":2279:2401   */\n    tag_141:\n        /* \"#utility.yul\":2437:2443   */\n      dup2\n        /* \"#utility.yul\":2424:2444   */\n      calldataload\n        /* \"#utility.yul\":2462:2541   */\n      tag_143\n        /* \"#utility.yul\":2537:2540   */\n      dup5\n        /* \"#utility.yul\":2529:2535   */\n      dup3\n        /* \"#utility.yul\":2522:2526   */\n      0x20\n        /* \"#utility.yul\":2514:2520   */\n      dup7\n        /* \"#utility.yul\":2510:2527   */\n      add\n        /* \"#utility.yul\":2462:2541   */\n      tag_95\n      jump\t// in\n    tag_143:\n        /* \"#utility.yul\":2453:2541   */\n      swap2\n      pop\n        /* \"#utility.yul\":2269:2547   */\n      pop\n        /* \"#utility.yul\":2207:2547   */\n      swap3\n      swap2\n      pop\n      pop\n      jump\t// out\n        /* \"#utility.yul\":2553:2630   */\n    tag_97:\n        /* \"#utility.yul\":2590:2597   */\n      0x00\n        /* \"#utility.yul\":2619:2624   */\n      dup2\n        /* \"#utility.yul\":2608:2624   */\n      swap1\n      pop\n        /* \"#utility.yul\":2553:2630   */\n      swap2\n      swap1\n      pop\n      jump\t// out\n        /* \"#utility.yul\":2636:2758   */\n    tag_98:\n        /* \"#utility.yul\":2709:2733   */\n      tag_146\n        /* \"#utility.yul\":2727:2732   */\n      dup2\n        /* \"#utility.yul\":2709:2733   */\n      tag_97\n      jump\t// in\n    tag_146:\n        /* \"#utility.yul\":2702:2707   */\n      dup2\n        /* \"#utility.yul\":2699:2734   */\n      eq\n        /* \"#utility.yul\":2689:2752   */\n      tag_147\n      jumpi\n        /* \"#utility.yul\":2748:2749   */\n      0x00\n        /* \"#utility.yul\":2745:2746   */\n      dup1\n        /* \"#utility.yul\":2738:2750   */\n      revert\n        /* \"#utility.yul\":2689:2752   */\n    tag_147:\n        /* \"#utility.yul\":2636:2758   */\n      pop\n      jump\t// out\n        /* \"#utility.yul\":2764:2903   */\n    tag_99:\n        /* \"#utility.yul\":2810:2815   */\n      0x00\n        /* \"#utility.yul\":2848:2854   */\n      dup2\n        /* \"#utility.yul\":2835:2855   */\n      calldataload\n        /* \"#utility.yul\":2826:2855   */\n      swap1\n      pop\n        /* \"#utility.yul\":2864:2897   */\n      tag_149\n        /* \"#utility.yul\":2891:2896   */\n      dup2\n        /* \"#utility.yul\":2864:2897   */\n      tag_98\n      jump\t// in\n    tag_149:\n        /* \"#utility.yul\":2764:2903   */\n      swap3\n      swap2\n      pop\n      pop\n      jump\t// out\n        /* \"#utility.yul\":2909:3708   */\n    tag_13:\n        /* \"#utility.yul\":2996:3002   */\n      0x00\n        /* \"#utility.yul\":3004:3010   */\n      dup1\n        /* \"#utility.yul\":3012:3018   */\n      0x00\n        /* \"#utility.yul\":3061:3063   */\n      0x60\n        /* \"#utility.yul\":3049:3058   */\n      dup5\n        /* \"#utility.yul\":3040:3047   */\n      dup7\n        /* \"#utility.yul\":3036:3059   */\n      sub\n        /* \"#utility.yul\":3032:3064   */\n      slt\n        /* \"#utility.yul\":3029:3148   */\n      iszero\n      tag_151\n      jumpi\n        /* \"#utility.yul\":3067:3146   */\n      tag_152\n      tag_85\n      jump\t// in\n    tag_152:\n        /* \"#utility.yul\":3029:3148   */\n    tag_151:\n        /* \"#utility.yul\":3215:3216   */\n      0x00\n        /* \"#utility.yul\":3204:3213   */\n      dup5\n        /* \"#utility.yul\":3200:3217   */\n      add\n        /* \"#utility.yul\":3187:3218   */\n      calldataload\n        /* \"#utility.yul\":3245:3263   */\n      0xffffffffffffffff\n        /* \"#utility.yul\":3237:3243   */\n      dup2\n        /* \"#utility.yul\":3234:3264   */\n      gt\n        /* \"#utility.yul\":3231:3348   */\n      iszero\n      tag_153\n      jumpi\n        /* \"#utility.yul\":3267:3346   */\n      tag_154\n      tag_86\n      jump\t// in\n    tag_154:\n        /* \"#utility.yul\":3231:3348   */\n    tag_153:\n        /* \"#utility.yul\":3372:3435   */\n      tag_155\n        /* \"#utility.yul\":3427:3434   */\n      dup7\n        /* \"#utility.yul\":3418:3424   */\n      dup3\n        /* \"#utility.yul\":3407:3416   */\n      dup8\n        /* \"#utility.yul\":3403:3425   */\n      add\n        /* \"#utility.yul\":3372:3435   */\n      tag_96\n      jump\t// in\n    tag_155:\n        /* \"#utility.yul\":3362:3435   */\n      swap4\n      pop\n        /* \"#utility.yul\":3158:3445   */\n      pop\n        /* \"#utility.yul\":3484:3486   */\n      0x20\n        /* \"#utility.yul\":3510:3563   */\n      tag_156\n        /* \"#utility.yul\":3555:3562   */\n      dup7\n        /* \"#utility.yul\":3546:3552   */\n      dup3\n        /* \"#utility.yul\":3535:3544   */\n      dup8\n        /* \"#utility.yul\":3531:3553   */\n      add\n        /* \"#utility.yul\":3510:3563   */\n      tag_99\n      jump\t// in\n    tag_156:\n        /* \"#utility.yul\":3500:3563   */\n      swap3\n      pop\n        /* \"#utility.yul\":3455:3573   */\n      pop\n        /* \"#utility.yul\":3612:3614   */\n      0x40\n        /* \"#utility.yul\":3638:3691   */\n      tag_157\n        /* \"#utility.yul\":3683:3690   */\n      dup7\n        /* \"#utility.yul\":3674:3680   */\n      dup3\n        /* \"#utility.yul\":3663:3672   */\n      dup8\n        /* \"#utility.yul\":3659:3681   */\n      add\n        /* \"#utility.yul\":3638:3691   */\n      tag_99\n      jump\t// in\n    tag_157:\n        /* \"#utility.yul\":3628:3691   */\n      swap2\n      pop\n        /* \"#utility.yul\":3583:3701   */\n      pop\n        /* \"#utility.yul\":2909:3708   */\n      swap3\n      pop\n      swap3\n      pop\n      swap3\n      jump\t// out\n        /* \"#utility.yul\":3714:3840   */\n    tag_100:\n        /* \"#utility.yul\":3751:3758   */\n      0x00\n        /* \"#utility.yul\":3791:3833   */\n      0xffffffffffffffffffffffffffffffffffffffff\n        /* \"#utility.yul\":3784:3789   */\n      dup3\n        /* \"#utility.yul\":3780:3834   */\n      and\n        /* \"#utility.yul\":3769:3834   */\n      swap1\n      pop\n        /* \"#utility.yul\":3714:3840   */\n      swap2\n      swap1\n      pop\n      jump\t// out\n        /* \"#utility.yul\":3846:3942   */\n    tag_101:\n        /* \"#utility.yul\":3883:3890   */\n      0x00\n        /* \"#utility.yul\":3912:3936   */\n      tag_160\n        /* \"#utility.yul\":3930:3935   */\n      dup3\n        /* \"#utility.yul\":3912:3936   */\n      tag_100\n      jump\t// in\n    tag_160:\n        /* \"#utility.yul\":3901:3936   */\n      swap1\n      pop\n        /* \"#utility.yul\":3846:3942   */\n      swap2\n      swap1\n      pop\n      jump\t// out\n        /* \"#utility.yul\":3948:4070   */\n    tag_102:\n        /* \"#utility.yul\":4021:4045   */\n      tag_162\n        /* \"#utility.yul\":4039:4044   */\n      dup2\n        /* \"#utility.yul\":4021:4045   */\n      tag_101\n      jump\t// in\n    tag_162:\n        /* \"#utility.yul\":4014:4019   */\n      dup2\n        /* \"#utility.yul\":4011:4046   */\n      eq\n        /* \"#utility.yul\":4001:4064   */\n      tag_163\n      jumpi\n        /* \"#utility.yul\":4060:4061   */\n      0x00\n        /* \"#utility.yul\":4057:4058   */\n      dup1\n        /* \"#utility.yul\":4050:4062   */\n      revert\n        /* \"#utility.yul\":4001:4064   */\n    tag_163:\n        /* \"#utility.yul\":3948:4070   */\n      pop\n      jump\t// out\n        /* \"#utility.yul\":4076:4215   */\n    tag_103:\n        /* \"#utility.yul\":4122:4127   */\n      0x00\n        /* \"#utility.yul\":4160:4166   */\n      dup2\n        /* \"#utility.yul\":4147:4167   */\n      calldataload\n        /* \"#utility.yul\":4138:4167   */\n      swap1\n      pop\n        /* \"#utility.yul\":4176:4209   */\n      tag_165\n        /* \"#utility.yul\":4203:4208   */\n      dup2\n        /* \"#utility.yul\":4176:4209   */\n      tag_102\n      jump\t// in\n    tag_165:\n        /* \"#utility.yul\":4076:4215   */\n      swap3\n      swap2\n      pop\n      pop\n      jump\t// out\n        /* \"#utility.yul\":4221:5166   */\n    tag_18:\n        /* \"#utility.yul\":4317:4323   */\n      0x00\n        /* \"#utility.yul\":4325:4331   */\n      dup1\n        /* \"#utility.yul\":4333:4339   */\n      0x00\n        /* \"#utility.yul\":4341:4347   */\n      dup1\n        /* \"#utility.yul\":4390:4393   */\n      0x80\n        /* \"#utility.yul\":4378:4387   */\n      dup6\n        /* \"#utility.yul\":4369:4376   */\n      dup8\n        /* \"#utility.yul\":4365:4388   */\n      sub\n        /* \"#utility.yul\":4361:4394   */\n      slt\n        /* \"#utility.yul\":4358:4478   */\n      iszero\n      tag_167\n      jumpi\n        /* \"#utility.yul\":4397:4476   */\n      tag_168\n      tag_85\n      jump\t// in\n    tag_168:\n        /* \"#utility.yul\":4358:4478   */\n    tag_167:\n        /* \"#utility.yul\":4545:4546   */\n      0x00\n        /* \"#utility.yul\":4534:4543   */\n      dup6\n        /* \"#utility.yul\":4530:4547   */\n      add\n        /* \"#utility.yul\":4517:4548   */\n      calldataload\n        /* \"#utility.yul\":4575:4593   */\n      0xffffffffffffffff\n        /* \"#utility.yul\":4567:4573   */\n      dup2\n        /* \"#utility.yul\":4564:4594   */\n      gt\n        /* \"#utility.yul\":4561:4678   */\n      iszero\n      tag_169\n      jumpi\n        /* \"#utility.yul\":4597:4676   */\n      tag_170\n      tag_86\n      jump\t// in\n    tag_170:\n        /* \"#utility.yul\":4561:4678   */\n    tag_169:\n        /* \"#utility.yul\":4702:4765   */\n      tag_171\n        /* \"#utility.yul\":4757:4764   */\n      dup8\n        /* \"#utility.yul\":4748:4754   */\n      dup3\n        /* \"#utility.yul\":4737:4746   */\n      dup9\n        /* \"#utility.yul\":4733:4755   */\n      add\n        /* \"#utility.yul\":4702:4765   */\n      tag_96\n      jump\t// in\n    tag_171:\n        /* \"#utility.yul\":4692:4765   */\n      swap5\n      pop\n        /* \"#utility.yul\":4488:4775   */\n      pop\n        /* \"#utility.yul\":4814:4816   */\n      0x20\n        /* \"#utility.yul\":4840:4893   */\n      tag_172\n        /* \"#utility.yul\":4885:4892   */\n      dup8\n        /* \"#utility.yul\":4876:4882   */\n      dup3\n        /* \"#utility.yul\":4865:4874   */\n      dup9\n        /* \"#utility.yul\":4861:4883   */\n      add\n        /* \"#utility.yul\":4840:4893   */\n      tag_103\n      jump\t// in\n    tag_172:\n        /* \"#utility.yul\":4830:4893   */\n      swap4\n      pop\n        /* \"#utility.yul\":4785:4903   */\n      pop\n        /* \"#utility.yul\":4942:4944   */\n      0x40\n        /* \"#utility.yul\":4968:5021   */\n      tag_173\n        /* \"#utility.yul\":5013:5020   */\n      dup8\n        /* \"#utility.yul\":5004:5010   */\n      dup3\n        /* \"#utility.yul\":4993:5002   */\n      dup9\n        /* \"#utility.yul\":4989:5011   */\n      add\n        /* \"#utility.yul\":4968:5021   */\n      tag_103\n      jump\t// in\n    tag_173:\n        /* \"#utility.yul\":4958:5021   */\n      swap3\n      pop\n        /* \"#utility.yul\":4913:5031   */\n      pop\n        /* \"#utility.yul\":5070:5072   */\n      0x60\n        /* \"#utility.yul\":5096:5149   */\n      tag_174\n        /* \"#utility.yul\":5141:5148   */\n      dup8\n        /* \"#utility.yul\":5132:5138   */\n      dup3\n        /* \"#utility.yul\":5121:5130   */\n      dup9\n        /* \"#utility.yul\":5117:5139   */\n      add\n        /* \"#utility.yul\":5096:5149   */\n      tag_99\n      jump\t// in\n    tag_174:\n        /* \"#utility.yul\":5086:5149   */\n      swap2\n      pop\n        /* \"#utility.yul\":5041:5159   */\n      pop\n        /* \"#utility.yul\":4221:5166   */\n      swap3\n      swap6\n      swap2\n      swap5\n      pop\n      swap3\n      pop\n      jump\t// out\n        /* \"#utility.yul\":5172:5826   */\n    tag_23:\n        /* \"#utility.yul\":5250:5256   */\n      0x00\n        /* \"#utility.yul\":5258:5264   */\n      dup1\n        /* \"#utility.yul\":5307:5309   */\n      0x40\n        /* \"#utility.yul\":5295:5304   */\n      dup4\n        /* \"#utility.yul\":5286:5293   */\n      dup6\n        /* \"#utility.yul\":5282:5305   */\n      sub\n        /* \"#utility.yul\":5278:5310   */\n      slt\n        /* \"#utility.yul\":5275:5394   */\n      iszero\n      tag_176\n      jumpi\n        /* \"#utility.yul\":5313:5392   */\n      tag_177\n      tag_85\n      jump\t// in\n    tag_177:\n        /* \"#utility.yul\":5275:5394   */\n    tag_176:\n        /* \"#utility.yul\":5461:5462   */\n      0x00\n        /* \"#utility.yul\":5450:5459   */\n      dup4\n        /* \"#utility.yul\":5446:5463   */\n      add\n        /* \"#utility.yul\":5433:5464   */\n      calldataload\n        /* \"#utility.yul\":5491:5509   */\n      0xffffffffffffffff\n        /* \"#utility.yul\":5483:5489   */\n      dup2\n        /* \"#utility.yul\":5480:5510   */\n      gt\n        /* \"#utility.yul\":5477:5594   */\n      iszero\n      tag_178\n      jumpi\n        /* \"#utility.yul\":5513:5592   */\n      tag_179\n      tag_86\n      jump\t// in\n    tag_179:\n        /* \"#utility.yul\":5477:5594   */\n    tag_178:\n        /* \"#utility.yul\":5618:5681   */\n      tag_180\n        /* \"#utility.yul\":5673:5680   */\n      dup6\n        /* \"#utility.yul\":5664:5670   */\n      dup3\n        /* \"#utility.yul\":5653:5662   */\n      dup7\n        /* \"#utility.yul\":5649:5671   */\n      add\n        /* \"#utility.yul\":5618:5681   */\n      tag_96\n      jump\t// in\n    tag_180:\n        /* \"#utility.yul\":5608:5681   */\n      swap3\n      pop\n        /* \"#utility.yul\":5404:5691   */\n      pop\n        /* \"#utility.yul\":5730:5732   */\n      0x20\n        /* \"#utility.yul\":5756:5809   */\n      tag_181\n        /* \"#utility.yul\":5801:5808   */\n      dup6\n        /* \"#utility.yul\":5792:5798   */\n      dup3\n        /* \"#utility.yul\":5781:5790   */\n      dup7\n        /* \"#utility.yul\":5777:5799   */\n      add\n        /* \"#utility.yul\":5756:5809   */\n      tag_103\n      jump\t// in\n    tag_181:\n        /* \"#utility.yul\":5746:5809   */\n      swap2\n      pop\n        /* \"#utility.yul\":5701:5819   */\n      pop\n        /* \"#utility.yul\":5172:5826   */\n      swap3\n      pop\n      swap3\n      swap1\n      pop\n      jump\t// out\n        /* \"#utility.yul\":5832:6486   */\n    tag_27:\n        /* \"#utility.yul\":5910:5916   */\n      0x00\n        /* \"#utility.yul\":5918:5924   */\n      dup1\n        /* \"#utility.yul\":5967:5969   */\n      0x40\n        /* \"#utility.yul\":5955:5964   */\n      dup4\n        /* \"#utility.yul\":5946:5953   */\n      dup6\n        /* \"#utility.yul\":5942:5965   */\n      sub\n        /* \"#utility.yul\":5938:5970   */\n      slt\n        /* \"#utility.yul\":5935:6054   */\n      iszero\n      tag_183\n      jumpi\n        /* \"#utility.yul\":5973:6052   */\n      tag_184\n      tag_85\n      jump\t// in\n    tag_184:\n        /* \"#utility.yul\":5935:6054   */\n    tag_183:\n        /* \"#utility.yul\":6121:6122   */\n      0x00\n        /* \"#utility.yul\":6110:6119   */\n      dup4\n        /* \"#utility.yul\":6106:6123   */\n      add\n        /* \"#utility.yul\":6093:6124   */\n      calldataload\n        /* \"#utility.yul\":6151:6169   */\n      0xffffffffffffffff\n        /* \"#utility.yul\":6143:6149   */\n      dup2\n        /* \"#utility.yul\":6140:6170   */\n      gt\n        /* \"#utility.yul\":6137:6254   */\n      iszero\n      tag_185\n      jumpi\n        /* \"#utility.yul\":6173:6252   */\n      tag_186\n      tag_86\n      jump\t// in\n    tag_186:\n        /* \"#utility.yul\":6137:6254   */\n    tag_185:\n        /* \"#utility.yul\":6278:6341   */\n      tag_187\n        /* \"#utility.yul\":6333:6340   */\n      dup6\n        /* \"#utility.yul\":6324:6330   */\n      dup3\n        /* \"#utility.yul\":6313:6322   */\n      dup7\n        /* \"#utility.yul\":6309:6331   */\n      add\n        /* \"#utility.yul\":6278:6341   */\n      tag_96\n      jump\t// in\n    tag_187:\n        /* \"#utility.yul\":6268:6341   */\n      swap3\n      pop\n        /* \"#utility.yul\":6064:6351   */\n      pop\n        /* \"#utility.yul\":6390:6392   */\n      0x20\n        /* \"#utility.yul\":6416:6469   */\n      tag_188\n        /* \"#utility.yul\":6461:6468   */\n      dup6\n        /* \"#utility.yul\":6452:6458   */\n      dup3\n        /* \"#utility.yul\":6441:6450   */\n      dup7\n        /* \"#utility.yul\":6437:6459   */\n      add\n        /* \"#utility.yul\":6416:6469   */\n      tag_99\n      jump\t// in\n    tag_188:\n        /* \"#utility.yul\":6406:6469   */\n      swap2\n      pop\n        /* \"#utility.yul\":6361:6479   */\n      pop\n        /* \"#utility.yul\":5832:6486   */\n      swap3\n      pop\n      swap3\n      swap1\n      pop\n      jump\t// out\n        /* \"#utility.yul\":6492:7001   */\n    tag_32:\n        /* \"#utility.yul\":6561:6567   */\n      0x00\n        /* \"#utility.yul\":6610:6612   */\n      0x20\n        /* \"#utility.yul\":6598:6607   */\n      dup3\n        /* \"#utility.yul\":6589:6596   */\n      dup5\n        /* \"#utility.yul\":6585:6608   */\n      sub\n        /* \"#utility.yul\":6581:6613   */\n      slt\n        /* \"#utility.yul\":6578:6697   */\n      iszero\n      tag_190\n      jumpi\n        /* \"#utility.yul\":6616:6695   */\n      tag_191\n      tag_85\n      jump\t// in\n    tag_191:\n        /* \"#utility.yul\":6578:6697   */\n    tag_190:\n        /* \"#utility.yul\":6764:6765   */\n      0x00\n        /* \"#utility.yul\":6753:6762   */\n      dup3\n        /* \"#utility.yul\":6749:6766   */\n      add\n        /* \"#utility.yul\":6736:6767   */\n      calldataload\n        /* \"#utility.yul\":6794:6812   */\n      0xffffffffffffffff\n        /* \"#utility.yul\":6786:6792   */\n      dup2\n        /* \"#utility.yul\":6783:6813   */\n      gt\n        /* \"#utility.yul\":6780:6897   */\n      iszero\n      tag_192\n      jumpi\n        /* \"#utility.yul\":6816:6895   */\n      tag_193\n      tag_86\n      jump\t// in\n    tag_193:\n        /* \"#utility.yul\":6780:6897   */\n    tag_192:\n        /* \"#utility.yul\":6921:6984   */\n      tag_194\n        /* \"#utility.yul\":6976:6983   */\n      dup5\n        /* \"#utility.yul\":6967:6973   */\n      dup3\n        /* \"#utility.yul\":6956:6965   */\n      dup6\n        /* \"#utility.yul\":6952:6974   */\n      add\n        /* \"#utility.yul\":6921:6984   */\n      tag_96\n      jump\t// in\n    tag_194:\n        /* \"#utility.yul\":6911:6984   */\n      swap2\n      pop\n        /* \"#utility.yul\":6707:6994   */\n      pop\n        /* \"#utility.yul\":6492:7001   */\n      swap3\n      swap2\n      pop\n      pop\n      jump\t// out\n        /* \"#utility.yul\":7007:7125   */\n    tag_104:\n        /* \"#utility.yul\":7094:7118   */\n      tag_196\n        /* \"#utility.yul\":7112:7117   */\n      dup2\n        /* \"#utility.yul\":7094:7118   */\n      tag_101\n      jump\t// in\n    tag_196:\n        /* \"#utility.yul\":7089:7092   */\n      dup3\n        /* \"#utility.yul\":7082:7119   */\n      mstore\n        /* \"#utility.yul\":7007:7125   */\n      pop\n      pop\n      jump\t// out\n        /* \"#utility.yul\":7131:7353   */\n    tag_35:\n        /* \"#utility.yul\":7224:7228   */\n      0x00\n        /* \"#utility.yul\":7262:7264   */\n      0x20\n        /* \"#utility.yul\":7251:7260   */\n      dup3\n        /* \"#utility.yul\":7247:7265   */\n      add\n        /* \"#utility.yul\":7239:7265   */\n      swap1\n      pop\n        /* \"#utility.yul\":7275:7346   */\n      tag_198\n        /* \"#utility.yul\":7343:7344   */\n      0x00\n        /* \"#utility.yul\":7332:7341   */\n      dup4\n        /* \"#utility.yul\":7328:7345   */\n      add\n        /* \"#utility.yul\":7319:7325   */\n      dup5\n        /* \"#utility.yul\":7275:7346   */\n      tag_104\n      jump\t// in\n    tag_198:\n        /* \"#utility.yul\":7131:7353   */\n      swap3\n      swap2\n      pop\n      pop\n      jump\t// out\n        /* \"#utility.yul\":7359:7477   */\n    tag_105:\n        /* \"#utility.yul\":7446:7470   */\n      tag_200\n        /* \"#utility.yul\":7464:7469   */\n      dup2\n        /* \"#utility.yul\":7446:7470   */\n      tag_97\n      jump\t// in\n    tag_200:\n        /* \"#utility.yul\":7441:7444   */\n      dup3\n        /* \"#utility.yul\":7434:7471   */\n      mstore\n        /* \"#utility.yul\":7359:7477   */\n      pop\n      pop\n      jump\t// out\n        /* \"#utility.yul\":7483:7925   */\n    tag_46:\n        /* \"#utility.yul\":7632:7636   */\n      0x00\n        /* \"#utility.yul\":7670:7672   */\n      0x60\n        /* \"#utility.yul\":7659:7668   */\n      dup3\n        /* \"#utility.yul\":7655:7673   */\n      add\n        /* \"#utility.yul\":7647:7673   */\n      swap1\n      pop\n        /* \"#utility.yul\":7683:7754   */\n      tag_202\n        /* \"#utility.yul\":7751:7752   */\n      0x00\n        /* \"#utility.yul\":7740:7749   */\n      dup4\n        /* \"#utility.yul\":7736:7753   */\n      add\n        /* \"#utility.yul\":7727:7733   */\n      dup7\n        /* \"#utility.yul\":7683:7754   */\n      tag_104\n      jump\t// in\n    tag_202:\n        /* \"#utility.yul\":7764:7836   */\n      tag_203\n        /* \"#utility.yul\":7832:7834   */\n      0x20\n        /* \"#utility.yul\":7821:7830   */\n      dup4\n        /* \"#utility.yul\":7817:7835   */\n      add\n        /* \"#utility.yul\":7808:7814   */\n      dup6\n        /* \"#utility.yul\":7764:7836   */\n      tag_105\n      jump\t// in\n    tag_203:\n        /* \"#utility.yul\":7846:7918   */\n      tag_204\n        /* \"#utility.yul\":7914:7916   */\n      0x40\n        /* \"#utility.yul\":7903:7912   */\n      dup4\n        /* \"#utility.yul\":7899:7917   */\n      add\n        /* \"#utility.yul\":7890:7896   */\n      dup5\n        /* \"#utility.yul\":7846:7918   */\n      tag_105\n      jump\t// in\n    tag_204:\n        /* \"#utility.yul\":7483:7925   */\n      swap5\n      swap4\n      pop\n      pop\n      pop\n      pop\n      jump\t// out\n        /* \"#utility.yul\":7931:8030   */\n    tag_106:\n        /* \"#utility.yul\":7983:7989   */\n      0x00\n        /* \"#utility.yul\":8017:8022   */\n      dup2\n        /* \"#utility.yul\":8011:8023   */\n      mload\n        /* \"#utility.yul\":8001:8023   */\n      swap1\n      pop\n        /* \"#utility.yul\":7931:8030   */\n      swap2\n      swap1\n      pop\n      jump\t// out\n        /* \"#utility.yul\":8036:8184   */\n    tag_107:\n        /* \"#utility.yul\":8138:8149   */\n      0x00\n        /* \"#utility.yul\":8175:8178   */\n      dup2\n        /* \"#utility.yul\":8160:8178   */\n      swap1\n      pop\n        /* \"#utility.yul\":8036:8184   */\n      swap3\n      swap2\n      pop\n      pop\n      jump\t// out\n        /* \"#utility.yul\":8190:8436   */\n    tag_108:\n        /* \"#utility.yul\":8271:8272   */\n      0x00\n        /* \"#utility.yul\":8281:8394   */\n    tag_208:\n        /* \"#utility.yul\":8295:8301   */\n      dup4\n        /* \"#utility.yul\":8292:8293   */\n      dup2\n        /* \"#utility.yul\":8289:8302   */\n      lt\n        /* \"#utility.yul\":8281:8394   */\n      iszero\n      tag_210\n      jumpi\n        /* \"#utility.yul\":8380:8381   */\n      dup1\n        /* \"#utility.yul\":8375:8378   */\n      dup3\n        /* \"#utility.yul\":8371:8382   */\n      add\n        /* \"#utility.yul\":8365:8383   */\n      mload\n        /* \"#utility.yul\":8361:8362   */\n      dup2\n        /* \"#utility.yul\":8356:8359   */\n      dup5\n        /* \"#utility.yul\":8352:8363   */\n      add\n        /* \"#utility.yul\":8345:8384   */\n      mstore\n        /* \"#utility.yul\":8317:8319   */\n      0x20\n        /* \"#utility.yul\":8314:8315   */\n      dup2\n        /* \"#utility.yul\":8310:8320   */\n      add\n        /* \"#utility.yul\":8305:8320   */\n      swap1\n      pop\n        /* \"#utility.yul\":8281:8394   */\n      jump(tag_208)\n    tag_210:\n        /* \"#utility.yul\":8428:8429   */\n      0x00\n        /* \"#utility.yul\":8419:8425   */\n      dup5\n        /* \"#utility.yul\":8414:8417   */\n      dup5\n        /* \"#utility.yul\":8410:8426   */\n      add\n        /* \"#utility.yul\":8403:8430   */\n      mstore\n        /* \"#utility.yul\":8252:8436   */\n      pop\n        /* \"#utility.yul\":8190:8436   */\n      pop\n      pop\n      pop\n      jump\t// out\n        /* \"#utility.yul\":8442:8832   */\n    tag_109:\n        /* \"#utility.yul\":8548:8551   */\n      0x00\n        /* \"#utility.yul\":8576:8615   */\n      tag_212\n        /* \"#utility.yul\":8609:8614   */\n      dup3\n        /* \"#utility.yul\":8576:8615   */\n      tag_106\n      jump\t// in\n    tag_212:\n        /* \"#utility.yul\":8631:8720   */\n      tag_213\n        /* \"#utility.yul\":8713:8719   */\n      dup2\n        /* \"#utility.yul\":8708:8711   */\n      dup6\n        /* \"#utility.yul\":8631:8720   */\n      tag_107\n      jump\t// in\n    tag_213:\n        /* \"#utility.yul\":8624:8720   */\n      swap4\n      pop\n        /* \"#utility.yul\":8729:8794   */\n      tag_214\n        /* \"#utility.yul\":8787:8793   */\n      dup2\n        /* \"#utility.yul\":8782:8785   */\n      dup6\n        /* \"#utility.yul\":8775:8779   */\n      0x20\n        /* \"#utility.yul\":8768:8773   */\n      dup7\n        /* \"#utility.yul\":8764:8780   */\n      add\n        /* \"#utility.yul\":8729:8794   */\n      tag_108\n      jump\t// in\n    tag_214:\n        /* \"#utility.yul\":8819:8825   */\n      dup1\n        /* \"#utility.yul\":8814:8817   */\n      dup5\n        /* \"#utility.yul\":8810:8826   */\n      add\n        /* \"#utility.yul\":8803:8826   */\n      swap2\n      pop\n        /* \"#utility.yul\":8552:8832   */\n      pop\n        /* \"#utility.yul\":8442:8832   */\n      swap3\n      swap2\n      pop\n      pop\n      jump\t// out\n        /* \"#utility.yul\":8838:9113   */\n    tag_49:\n        /* \"#utility.yul\":8970:8973   */\n      0x00\n        /* \"#utility.yul\":8992:9087   */\n      tag_216\n        /* \"#utility.yul\":9083:9086   */\n      dup3\n        /* \"#utility.yul\":9074:9080   */\n      dup5\n        /* \"#utility.yul\":8992:9087   */\n      tag_109\n      jump\t// in\n    tag_216:\n        /* \"#utility.yul\":8985:9087   */\n      swap2\n      pop\n        /* \"#utility.yul\":9104:9107   */\n      dup2\n        /* \"#utility.yul\":9097:9107   */\n      swap1\n      pop\n        /* \"#utility.yul\":8838:9113   */\n      swap3\n      swap2\n      pop\n      pop\n      jump\t// out\n        /* \"#utility.yul\":9119:9341   */\n    tag_51:\n        /* \"#utility.yul\":9212:9216   */\n      0x00\n        /* \"#utility.yul\":9250:9252   */\n      0x20\n        /* \"#utility.yul\":9239:9248   */\n      dup3\n        /* \"#utility.yul\":9235:9253   */\n      add\n        /* \"#utility.yul\":9227:9253   */\n      swap1\n      pop\n        /* \"#utility.yul\":9263:9334   */\n      tag_218\n        /* \"#utility.yul\":9331:9332   */\n      0x00\n        /* \"#utility.yul\":9320:9329   */\n      dup4\n        /* \"#utility.yul\":9316:9333   */\n      add\n        /* \"#utility.yul\":9307:9313   */\n      dup5\n        /* \"#utility.yul\":9263:9334   */\n      tag_105\n      jump\t// in\n    tag_218:\n        /* \"#utility.yul\":9119:9341   */\n      swap3\n      swap2\n      pop\n      pop\n      jump\t// out\n        /* \"#utility.yul\":9347:9490   */\n    tag_110:\n        /* \"#utility.yul\":9404:9409   */\n      0x00\n        /* \"#utility.yul\":9435:9441   */\n      dup2\n        /* \"#utility.yul\":9429:9442   */\n      mload\n        /* \"#utility.yul\":9420:9442   */\n      swap1\n      pop\n        /* \"#utility.yul\":9451:9484   */\n      tag_220\n        /* \"#utility.yul\":9478:9483   */\n      dup2\n        /* \"#utility.yul\":9451:9484   */\n      tag_102\n      jump\t// in\n    tag_220:\n        /* \"#utility.yul\":9347:9490   */\n      swap3\n      swap2\n      pop\n      pop\n      jump\t// out\n        /* \"#utility.yul\":9496:9847   */\n    tag_55:\n        /* \"#utility.yul\":9566:9572   */\n      0x00\n        /* \"#utility.yul\":9615:9617   */\n      0x20\n        /* \"#utility.yul\":9603:9612   */\n      dup3\n        /* \"#utility.yul\":9594:9601   */\n      dup5\n        /* \"#utility.yul\":9590:9613   */\n      sub\n        /* \"#utility.yul\":9586:9618   */\n      slt\n        /* \"#utility.yul\":9583:9702   */\n      iszero\n      tag_222\n      jumpi\n        /* \"#utility.yul\":9621:9700   */\n      tag_223\n      tag_85\n      jump\t// in\n    tag_223:\n        /* \"#utility.yul\":9583:9702   */\n    tag_222:\n        /* \"#utility.yul\":9741:9742   */\n      0x00\n        /* \"#utility.yul\":9766:9830   */\n      tag_224\n        /* \"#utility.yul\":9822:9829   */\n      dup5\n        /* \"#utility.yul\":9813:9819   */\n      dup3\n        /* \"#utility.yul\":9802:9811   */\n      dup6\n        /* \"#utility.yul\":9798:9820   */\n      add\n        /* \"#utility.yul\":9766:9830   */\n      tag_110\n      jump\t// in\n    tag_224:\n        /* \"#utility.yul\":9756:9830   */\n      swap2\n      pop\n        /* \"#utility.yul\":9712:9840   */\n      pop\n        /* \"#utility.yul\":9496:9847   */\n      swap3\n      swap2\n      pop\n      pop\n      jump\t// out\n        /* \"#utility.yul\":9853:10022   */\n    tag_111:\n        /* \"#utility.yul\":9937:9948   */\n      0x00\n        /* \"#utility.yul\":9971:9977   */\n      dup3\n        /* \"#utility.yul\":9966:9969   */\n      dup3\n        /* \"#utility.yul\":9959:9978   */\n      mstore\n        /* \"#utility.yul\":10011:10015   */\n      0x20\n        /* \"#utility.yul\":10006:10009   */\n      dup3\n        /* \"#utility.yul\":10002:10016   */\n      add\n        /* \"#utility.yul\":9987:10016   */\n      swap1\n      pop\n        /* \"#utility.yul\":9853:10022   */\n      swap3\n      swap2\n      pop\n      pop\n      jump\t// out\n        /* \"#utility.yul\":10028:10201   */\n    tag_112:\n        /* \"#utility.yul\":10168:10193   */\n      0x6e6674206f776e657220213d206d73672e73656e646572000000000000000000\n        /* \"#utility.yul\":10164:10165   */\n      0x00\n        /* \"#utility.yul\":10156:10162   */\n      dup3\n        /* \"#utility.yul\":10152:10166   */\n      add\n        /* \"#utility.yul\":10145:10194   */\n      mstore\n        /* \"#utility.yul\":10028:10201   */\n      pop\n      jump\t// out\n        /* \"#utility.yul\":10207:10573   */\n    tag_113:\n        /* \"#utility.yul\":10349:10352   */\n      0x00\n        /* \"#utility.yul\":10370:10437   */\n      tag_228\n        /* \"#utility.yul\":10434:10436   */\n      0x17\n        /* \"#utility.yul\":10429:10432   */\n      dup4\n        /* \"#utility.yul\":10370:10437   */\n      tag_111\n      jump\t// in\n    tag_228:\n        /* \"#utility.yul\":10363:10437   */\n      swap2\n      pop\n        /* \"#utility.yul\":10446:10539   */\n      tag_229\n        /* \"#utility.yul\":10535:10538   */\n      dup3\n        /* \"#utility.yul\":10446:10539   */\n      tag_112\n      jump\t// in\n    tag_229:\n        /* \"#utility.yul\":10564:10566   */\n      0x20\n        /* \"#utility.yul\":10559:10562   */\n      dup3\n        /* \"#utility.yul\":10555:10567   */\n      add\n        /* \"#utility.yul\":10548:10567   */\n      swap1\n      pop\n        /* \"#utility.yul\":10207:10573   */\n      swap2\n      swap1\n      pop\n      jump\t// out\n        /* \"#utility.yul\":10579:10998   */\n    tag_58:\n        /* \"#utility.yul\":10745:10749   */\n      0x00\n        /* \"#utility.yul\":10783:10785   */\n      0x20\n        /* \"#utility.yul\":10772:10781   */\n      dup3\n        /* \"#utility.yul\":10768:10786   */\n      add\n        /* \"#utility.yul\":10760:10786   */\n      swap1\n      pop\n        /* \"#utility.yul\":10832:10841   */\n      dup2\n        /* \"#utility.yul\":10826:10830   */\n      dup2\n        /* \"#utility.yul\":10822:10842   */\n      sub\n        /* \"#utility.yul\":10818:10819   */\n      0x00\n        /* \"#utility.yul\":10807:10816   */\n      dup4\n        /* \"#utility.yul\":10803:10820   */\n      add\n        /* \"#utility.yul\":10796:10843   */\n      mstore\n        /* \"#utility.yul\":10860:10991   */\n      tag_231\n        /* \"#utility.yul\":10986:10990   */\n      dup2\n        /* \"#utility.yul\":10860:10991   */\n      tag_113\n      jump\t// in\n    tag_231:\n        /* \"#utility.yul\":10852:10991   */\n      swap1\n      pop\n        /* \"#utility.yul\":10579:10998   */\n      swap2\n      swap1\n      pop\n      jump\t// out\n        /* \"#utility.yul\":11004:11446   */\n    tag_65:\n        /* \"#utility.yul\":11153:11157   */\n      0x00\n        /* \"#utility.yul\":11191:11193   */\n      0x60\n        /* \"#utility.yul\":11180:11189   */\n      dup3\n        /* \"#utility.yul\":11176:11194   */\n      add\n        /* \"#utility.yul\":11168:11194   */\n      swap1\n      pop\n        /* \"#utility.yul\":11204:11275   */\n      tag_233\n        /* \"#utility.yul\":11272:11273   */\n      0x00\n        /* \"#utility.yul\":11261:11270   */\n      dup4\n        /* \"#utility.yul\":11257:11274   */\n      add\n        /* \"#utility.yul\":11248:11254   */\n      dup7\n        /* \"#utility.yul\":11204:11275   */\n      tag_104\n      jump\t// in\n    tag_233:\n        /* \"#utility.yul\":11285:11357   */\n      tag_234\n        /* \"#utility.yul\":11353:11355   */\n      0x20\n        /* \"#utility.yul\":11342:11351   */\n      dup4\n        /* \"#utility.yul\":11338:11356   */\n      add\n        /* \"#utility.yul\":11329:11335   */\n      dup6\n        /* \"#utility.yul\":11285:11357   */\n      tag_104\n      jump\t// in\n    tag_234:\n        /* \"#utility.yul\":11367:11439   */\n      tag_235\n        /* \"#utility.yul\":11435:11437   */\n      0x40\n        /* \"#utility.yul\":11424:11433   */\n      dup4\n        /* \"#utility.yul\":11420:11438   */\n      add\n        /* \"#utility.yul\":11411:11417   */\n      dup5\n        /* \"#utility.yul\":11367:11439   */\n      tag_105\n      jump\t// in\n    tag_235:\n        /* \"#utility.yul\":11004:11446   */\n      swap5\n      swap4\n      pop\n      pop\n      pop\n      pop\n      jump\t// out\n\n    auxdata: 0xa26469706673582212202a302e8289df66db9b234ed23a271175c7636a6798b5b15da012ee46f60b4b1b64736f6c63430008110033\n}\n",
				"bytecode": {
					"linkReferences": {},
					"object": "608060405234801561001057600080fd5b50610f93806100206000396000f3fe6080604052600436106100705760003560e01c806362a638b91161004e57806362a638b9146100f05780636f45c0331461010c5780637cb9514714610149578063d72df3261461018657610070565b80630f554ee114610075578063189ac9951461009e5780633c6a15a7146100c7575b600080fd5b34801561008157600080fd5b5061009c60048036038101906100979190610b03565b6101c5565b005b3480156100aa57600080fd5b506100c560048036038101906100c09190610bd0565b6104a1565b005b3480156100d357600080fd5b506100ee60048036038101906100e99190610c53565b610554565b005b61010a60048036038101906101059190610caf565b6105b5565b005b34801561011857600080fd5b50610133600480360381019061012e9190610d0b565b6107aa565b6040516101409190610d63565b60405180910390f35b34801561015557600080fd5b50610170600480360381019061016b9190610d0b565b6107f3565b60405161017d9190610d63565b60405180910390f35b34801561019257600080fd5b506101ad60048036038101906101a89190610caf565b61083a565b6040516101bc93929190610d8d565b60405180910390f35b3373ffffffffffffffffffffffffffffffffffffffff166000846040516101ec9190610e35565b908152602001604051809103902060009054906101000a900473ffffffffffffffffffffffffffffffffffffffff1673ffffffffffffffffffffffffffffffffffffffff16636352211e846040518263ffffffff1660e01b81526004016102539190610e4c565b602060405180830381865afa158015610270573d6000803e3d6000fd5b505050506040513d601f19601f820116820180604052508101906102949190610e7c565b73ffffffffffffffffffffffffffffffffffffffff16146102ea576040517f08c379a00000000000000000000000000000000000000000000000000000000081526004016102e190610f06565b60405180910390fd5b600033905060405180606001604052808273ffffffffffffffffffffffffffffffffffffffff168152602001848152602001838152506001600080876040516103339190610e35565b908152602001604051809103902060009054906101000a900473ffffffffffffffffffffffffffffffffffffffff1673ffffffffffffffffffffffffffffffffffffffff1673ffffffffffffffffffffffffffffffffffffffff168152602001908152602001600020600085815260200190815260200160002060008201518160000160006101000a81548173ffffffffffffffffffffffffffffffffffffffff021916908373ffffffffffffffffffffffffffffffffffffffff16021790555060208201518160010155604082015181600201559050508073ffffffffffffffffffffffffffffffffffffffff167f76ace3ea45ab2691269253cf4691623b115072483bd49fd7fc1f378f42f5a7a56000866040516104539190610e35565b908152602001604051809103902060009054906101000a900473ffffffffffffffffffffffffffffffffffffffff16858560405161049393929190610d8d565b60405180910390a250505050565b6000846040516104b19190610e35565b908152602001604051809103902060009054906101000a900473ffffffffffffffffffffffffffffffffffffffff1673ffffffffffffffffffffffffffffffffffffffff166323b872dd8484846040518463ffffffff1660e01b815260040161051c93929190610f26565b600060405180830381600087803b15801561053657600080fd5b505af115801561054a573d6000803e3d6000fd5b5050505050505050565b806000836040516105659190610e35565b908152602001604051809103902060006101000a81548173ffffffffffffffffffffffffffffffffffffffff021916908373ffffffffffffffffffffffffffffffffffffffff1602179055505050565b60008060006105c4858561083a565b9250925092503481146105d657600080fd5b600083905060003390508173ffffffffffffffffffffffffffffffffffffffff166108fc349081150290604051600060405180830381858888f19350505050158015610626573d6000803e3d6000fd5b50610633878683896104a1565b6001600080896040516106469190610e35565b908152602001604051809103902060009054906101000a900473ffffffffffffffffffffffffffffffffffffffff1673ffffffffffffffffffffffffffffffffffffffff1673ffffffffffffffffffffffffffffffffffffffff1681526020019081526020016000206000858152602001908152602001600020600080820160006101000a81549073ffffffffffffffffffffffffffffffffffffffff02191690556001820160009055600282016000905550508173ffffffffffffffffffffffffffffffffffffffff168173ffffffffffffffffffffffffffffffffffffffff167f4bbee585c68c014080a294e95cc21a3bcb641b0ddf539f0cc2306b97b7efb90560008a6040516107599190610e35565b908152602001604051809103902060009054906101000a900473ffffffffffffffffffffffffffffffffffffffff16878760405161079993929190610d8d565b60405180910390a350505050505050565b6000818051602081018201805184825260208301602085012081835280955050505050506000915054906101000a900473ffffffffffffffffffffffffffffffffffffffff1681565b600080826040516108049190610e35565b908152602001604051809103902060009054906101000a900473ffffffffffffffffffffffffffffffffffffffff169050919050565b6000806000806001600080886040516108539190610e35565b908152602001604051809103902060009054906101000a900473ffffffffffffffffffffffffffffffffffffffff1673ffffffffffffffffffffffffffffffffffffffff1673ffffffffffffffffffffffffffffffffffffffff16815260200190815260200160002060008681526020019081526020016000206040518060600160405290816000820160009054906101000a900473ffffffffffffffffffffffffffffffffffffffff1673ffffffffffffffffffffffffffffffffffffffff1673ffffffffffffffffffffffffffffffffffffffff168152602001600182015481526020016002820154815250509050600081600001519050600082602001519050600083604001519050828282965096509650505050509250925092565b6000604051905090565b600080fd5b600080fd5b600080fd5b600080fd5b6000601f19601f8301169050919050565b7f4e487b7100000000000000000000000000000000000000000000000000000000600052604160045260246000fd5b6109da82610991565b810181811067ffffffffffffffff821117156109f9576109f86109a2565b5b80604052505050565b6000610a0c610973565b9050610a1882826109d1565b919050565b600067ffffffffffffffff821115610a3857610a376109a2565b5b610a4182610991565b9050602081019050919050565b82818337600083830152505050565b6000610a70610a6b84610a1d565b610a02565b905082815260208101848484011115610a8c57610a8b61098c565b5b610a97848285610a4e565b509392505050565b600082601f830112610ab457610ab3610987565b5b8135610ac4848260208601610a5d565b91505092915050565b6000819050919050565b610ae081610acd565b8114610aeb57600080fd5b50565b600081359050610afd81610ad7565b92915050565b600080600060608486031215610b1c57610b1b61097d565b5b600084013567ffffffffffffffff811115610b3a57610b39610982565b5b610b4686828701610a9f565b9350506020610b5786828701610aee565b9250506040610b6886828701610aee565b9150509250925092565b600073ffffffffffffffffffffffffffffffffffffffff82169050919050565b6000610b9d82610b72565b9050919050565b610bad81610b92565b8114610bb857600080fd5b50565b600081359050610bca81610ba4565b92915050565b60008060008060808587031215610bea57610be961097d565b5b600085013567ffffffffffffffff811115610c0857610c07610982565b5b610c1487828801610a9f565b9450506020610c2587828801610bbb565b9350506040610c3687828801610bbb565b9250506060610c4787828801610aee565b91505092959194509250565b60008060408385031215610c6a57610c6961097d565b5b600083013567ffffffffffffffff811115610c8857610c87610982565b5b610c9485828601610a9f565b9250506020610ca585828601610bbb565b9150509250929050565b60008060408385031215610cc657610cc561097d565b5b600083013567ffffffffffffffff811115610ce457610ce3610982565b5b610cf085828601610a9f565b9250506020610d0185828601610aee565b9150509250929050565b600060208284031215610d2157610d2061097d565b5b600082013567ffffffffffffffff811115610d3f57610d3e610982565b5b610d4b84828501610a9f565b91505092915050565b610d5d81610b92565b82525050565b6000602082019050610d786000830184610d54565b92915050565b610d8781610acd565b82525050565b6000606082019050610da26000830186610d54565b610daf6020830185610d7e565b610dbc6040830184610d7e565b949350505050565b600081519050919050565b600081905092915050565b60005b83811015610df8578082015181840152602081019050610ddd565b60008484015250505050565b6000610e0f82610dc4565b610e198185610dcf565b9350610e29818560208601610dda565b80840191505092915050565b6000610e418284610e04565b915081905092915050565b6000602082019050610e616000830184610d7e565b92915050565b600081519050610e7681610ba4565b92915050565b600060208284031215610e9257610e9161097d565b5b6000610ea084828501610e67565b91505092915050565b600082825260208201905092915050565b7f6e6674206f776e657220213d206d73672e73656e646572000000000000000000600082015250565b6000610ef0601783610ea9565b9150610efb82610eba565b602082019050919050565b60006020820190508181036000830152610f1f81610ee3565b9050919050565b6000606082019050610f3b6000830186610d54565b610f486020830185610d54565b610f556040830184610d7e565b94935050505056fea26469706673582212202a302e8289df66db9b234ed23a271175c7636a6798b5b15da012ee46f60b4b1b64736f6c63430008110033",
					"opcodes": "PUSH1 0x80 PUSH1 0x40 MSTORE CALLVALUE DUP1 ISZERO PUSH2 0x10 JUMPI PUSH1 0x0 DUP1 REVERT JUMPDEST POP PUSH2 0xF93 DUP1 PUSH2 0x20 PUSH1 0x0 CODECOPY PUSH1 0x0 RETURN INVALID PUSH1 0x80 PUSH1 0x40 MSTORE PUSH1 0x4 CALLDATASIZE LT PUSH2 0x70 JUMPI PUSH1 0x0 CALLDATALOAD PUSH1 0xE0 SHR DUP1 PUSH4 0x62A638B9 GT PUSH2 0x4E JUMPI DUP1 PUSH4 0x62A638B9 EQ PUSH2 0xF0 JUMPI DUP1 PUSH4 0x6F45C033 EQ PUSH2 0x10C JUMPI DUP1 PUSH4 0x7CB95147 EQ PUSH2 0x149 JUMPI DUP1 PUSH4 0xD72DF326 EQ PUSH2 0x186 JUMPI PUSH2 0x70 JUMP JUMPDEST DUP1 PUSH4 0xF554EE1 EQ PUSH2 0x75 JUMPI DUP1 PUSH4 0x189AC995 EQ PUSH2 0x9E JUMPI DUP1 PUSH4 0x3C6A15A7 EQ PUSH2 0xC7 JUMPI JUMPDEST PUSH1 0x0 DUP1 REVERT JUMPDEST CALLVALUE DUP1 ISZERO PUSH2 0x81 JUMPI PUSH1 0x0 DUP1 REVERT JUMPDEST POP PUSH2 0x9C PUSH1 0x4 DUP1 CALLDATASIZE SUB DUP2 ADD SWAP1 PUSH2 0x97 SWAP2 SWAP1 PUSH2 0xB03 JUMP JUMPDEST PUSH2 0x1C5 JUMP JUMPDEST STOP JUMPDEST CALLVALUE DUP1 ISZERO PUSH2 0xAA JUMPI PUSH1 0x0 DUP1 REVERT JUMPDEST POP PUSH2 0xC5 PUSH1 0x4 DUP1 CALLDATASIZE SUB DUP2 ADD SWAP1 PUSH2 0xC0 SWAP2 SWAP1 PUSH2 0xBD0 JUMP JUMPDEST PUSH2 0x4A1 JUMP JUMPDEST STOP JUMPDEST CALLVALUE DUP1 ISZERO PUSH2 0xD3 JUMPI PUSH1 0x0 DUP1 REVERT JUMPDEST POP PUSH2 0xEE PUSH1 0x4 DUP1 CALLDATASIZE SUB DUP2 ADD SWAP1 PUSH2 0xE9 SWAP2 SWAP1 PUSH2 0xC53 JUMP JUMPDEST PUSH2 0x554 JUMP JUMPDEST STOP JUMPDEST PUSH2 0x10A PUSH1 0x4 DUP1 CALLDATASIZE SUB DUP2 ADD SWAP1 PUSH2 0x105 SWAP2 SWAP1 PUSH2 0xCAF JUMP JUMPDEST PUSH2 0x5B5 JUMP JUMPDEST STOP JUMPDEST CALLVALUE DUP1 ISZERO PUSH2 0x118 JUMPI PUSH1 0x0 DUP1 REVERT JUMPDEST POP PUSH2 0x133 PUSH1 0x4 DUP1 CALLDATASIZE SUB DUP2 ADD SWAP1 PUSH2 0x12E SWAP2 SWAP1 PUSH2 0xD0B JUMP JUMPDEST PUSH2 0x7AA JUMP JUMPDEST PUSH1 0x40 MLOAD PUSH2 0x140 SWAP2 SWAP1 PUSH2 0xD63 JUMP JUMPDEST PUSH1 0x40 MLOAD DUP1 SWAP2 SUB SWAP1 RETURN JUMPDEST CALLVALUE DUP1 ISZERO PUSH2 0x155 JUMPI PUSH1 0x0 DUP1 REVERT JUMPDEST POP PUSH2 0x170 PUSH1 0x4 DUP1 CALLDATASIZE SUB DUP2 ADD SWAP1 PUSH2 0x16B SWAP2 SWAP1 PUSH2 0xD0B JUMP JUMPDEST PUSH2 0x7F3 JUMP JUMPDEST PUSH1 0x40 MLOAD PUSH2 0x17D SWAP2 SWAP1 PUSH2 0xD63 JUMP JUMPDEST PUSH1 0x40 MLOAD DUP1 SWAP2 SUB SWAP1 RETURN JUMPDEST CALLVALUE DUP1 ISZERO PUSH2 0x192 JUMPI PUSH1 0x0 DUP1 REVERT JUMPDEST POP PUSH2 0x1AD PUSH1 0x4 DUP1 CALLDATASIZE SUB DUP2 ADD SWAP1 PUSH2 0x1A8 SWAP2 SWAP1 PUSH2 0xCAF JUMP JUMPDEST PUSH2 0x83A JUMP JUMPDEST PUSH1 0x40 MLOAD PUSH2 0x1BC SWAP4 SWAP3 SWAP2 SWAP1 PUSH2 0xD8D JUMP JUMPDEST PUSH1 0x40 MLOAD DUP1 SWAP2 SUB SWAP1 RETURN JUMPDEST CALLER PUSH20 0xFFFFFFFFFFFFFFFFFFFFFFFFFFFFFFFFFFFFFFFF AND PUSH1 0x0 DUP5 PUSH1 0x40 MLOAD PUSH2 0x1EC SWAP2 SWAP1 PUSH2 0xE35 JUMP JUMPDEST SWAP1 DUP2 MSTORE PUSH1 0x20 ADD PUSH1 0x40 MLOAD DUP1 SWAP2 SUB SWAP1 KECCAK256 PUSH1 0x0 SWAP1 SLOAD SWAP1 PUSH2 0x100 EXP SWAP1 DIV PUSH20 0xFFFFFFFFFFFFFFFFFFFFFFFFFFFFFFFFFFFFFFFF AND PUSH20 0xFFFFFFFFFFFFFFFFFFFFFFFFFFFFFFFFFFFFFFFF AND PUSH4 0x6352211E DUP5 PUSH1 0x40 MLOAD DUP3 PUSH4 0xFFFFFFFF AND PUSH1 0xE0 SHL DUP2 MSTORE PUSH1 0x4 ADD PUSH2 0x253 SWAP2 SWAP1 PUSH2 0xE4C JUMP JUMPDEST PUSH1 0x20 PUSH1 0x40 MLOAD DUP1 DUP4 SUB DUP2 DUP7 GAS STATICCALL ISZERO DUP1 ISZERO PUSH2 0x270 JUMPI RETURNDATASIZE PUSH1 0x0 DUP1 RETURNDATACOPY RETURNDATASIZE PUSH1 0x0 REVERT JUMPDEST POP POP POP POP PUSH1 0x40 MLOAD RETURNDATASIZE PUSH1 0x1F NOT PUSH1 0x1F DUP3 ADD AND DUP3 ADD DUP1 PUSH1 0x40 MSTORE POP DUP2 ADD SWAP1 PUSH2 0x294 SWAP2 SWAP1 PUSH2 0xE7C JUMP JUMPDEST PUSH20 0xFFFFFFFFFFFFFFFFFFFFFFFFFFFFFFFFFFFFFFFF AND EQ PUSH2 0x2EA JUMPI PUSH1 0x40 MLOAD PUSH32 0x8C379A000000000000000000000000000000000000000000000000000000000 DUP2 MSTORE PUSH1 0x4 ADD PUSH2 0x2E1 SWAP1 PUSH2 0xF06 JUMP JUMPDEST PUSH1 0x40 MLOAD DUP1 SWAP2 SUB SWAP1 REVERT JUMPDEST PUSH1 0x0 CALLER SWAP1 POP PUSH1 0x40 MLOAD DUP1 PUSH1 0x60 ADD PUSH1 0x40 MSTORE DUP1 DUP3 PUSH20 0xFFFFFFFFFFFFFFFFFFFFFFFFFFFFFFFFFFFFFFFF AND DUP2 MSTORE PUSH1 0x20 ADD DUP5 DUP2 MSTORE PUSH1 0x20 ADD DUP4 DUP2 MSTORE POP PUSH1 0x1 PUSH1 0x0 DUP1 DUP8 PUSH1 0x40 MLOAD PUSH2 0x333 SWAP2 SWAP1 PUSH2 0xE35 JUMP JUMPDEST SWAP1 DUP2 MSTORE PUSH1 0x20 ADD PUSH1 0x40 MLOAD DUP1 SWAP2 SUB SWAP1 KECCAK256 PUSH1 0x0 SWAP1 SLOAD SWAP1 PUSH2 0x100 EXP SWAP1 DIV PUSH20 0xFFFFFFFFFFFFFFFFFFFFFFFFFFFFFFFFFFFFFFFF AND PUSH20 0xFFFFFFFFFFFFFFFFFFFFFFFFFFFFFFFFFFFFFFFF AND PUSH20 0xFFFFFFFFFFFFFFFFFFFFFFFFFFFFFFFFFFFFFFFF AND DUP2 MSTORE PUSH1 0x20 ADD SWAP1 DUP2 MSTORE PUSH1 0x20 ADD PUSH1 0x0 KECCAK256 PUSH1 0x0 DUP6 DUP2 MSTORE PUSH1 0x20 ADD SWAP1 DUP2 MSTORE PUSH1 0x20 ADD PUSH1 0x0 KECCAK256 PUSH1 0x0 DUP3 ADD MLOAD DUP2 PUSH1 0x0 ADD PUSH1 0x0 PUSH2 0x100 EXP DUP2 SLOAD DUP2 PUSH20 0xFFFFFFFFFFFFFFFFFFFFFFFFFFFFFFFFFFFFFFFF MUL NOT AND SWAP1 DUP4 PUSH20 0xFFFFFFFFFFFFFFFFFFFFFFFFFFFFFFFFFFFFFFFF AND MUL OR SWAP1 SSTORE POP PUSH1 0x20 DUP3 ADD MLOAD DUP2 PUSH1 0x1 ADD SSTORE PUSH1 0x40 DUP3 ADD MLOAD DUP2 PUSH1 0x2 ADD SSTORE SWAP1 POP POP DUP1 PUSH20 0xFFFFFFFFFFFFFFFFFFFFFFFFFFFFFFFFFFFFFFFF AND PUSH32 0x76ACE3EA45AB2691269253CF4691623B115072483BD49FD7FC1F378F42F5A7A5 PUSH1 0x0 DUP7 PUSH1 0x40 MLOAD PUSH2 0x453 SWAP2 SWAP1 PUSH2 0xE35 JUMP JUMPDEST SWAP1 DUP2 MSTORE PUSH1 0x20 ADD PUSH1 0x40 MLOAD DUP1 SWAP2 SUB SWAP1 KECCAK256 PUSH1 0x0 SWAP1 SLOAD SWAP1 PUSH2 0x100 EXP SWAP1 DIV PUSH20 0xFFFFFFFFFFFFFFFFFFFFFFFFFFFFFFFFFFFFFFFF AND DUP6 DUP6 PUSH1 0x40 MLOAD PUSH2 0x493 SWAP4 SWAP3 SWAP2 SWAP1 PUSH2 0xD8D JUMP JUMPDEST PUSH1 0x40 MLOAD DUP1 SWAP2 SUB SWAP1 LOG2 POP POP POP POP JUMP JUMPDEST PUSH1 0x0 DUP5 PUSH1 0x40 MLOAD PUSH2 0x4B1 SWAP2 SWAP1 PUSH2 0xE35 JUMP JUMPDEST SWAP1 DUP2 MSTORE PUSH1 0x20 ADD PUSH1 0x40 MLOAD DUP1 SWAP2 SUB SWAP1 KECCAK256 PUSH1 0x0 SWAP1 SLOAD SWAP1 PUSH2 0x100 EXP SWAP1 DIV PUSH20 0xFFFFFFFFFFFFFFFFFFFFFFFFFFFFFFFFFFFFFFFF AND PUSH20 0xFFFFFFFFFFFFFFFFFFFFFFFFFFFFFFFFFFFFFFFF AND PUSH4 0x23B872DD DUP5 DUP5 DUP5 PUSH1 0x40 MLOAD DUP5 PUSH4 0xFFFFFFFF AND PUSH1 0xE0 SHL DUP2 MSTORE PUSH1 0x4 ADD PUSH2 0x51C SWAP4 SWAP3 SWAP2 SWAP1 PUSH2 0xF26 JUMP JUMPDEST PUSH1 0x0 PUSH1 0x40 MLOAD DUP1 DUP4 SUB DUP2 PUSH1 0x0 DUP8 DUP1 EXTCODESIZE ISZERO DUP1 ISZERO PUSH2 0x536 JUMPI PUSH1 0x0 DUP1 REVERT JUMPDEST POP GAS CALL ISZERO DUP1 ISZERO PUSH2 0x54A JUMPI RETURNDATASIZE PUSH1 0x0 DUP1 RETURNDATACOPY RETURNDATASIZE PUSH1 0x0 REVERT JUMPDEST POP POP POP POP POP POP POP POP JUMP JUMPDEST DUP1 PUSH1 0x0 DUP4 PUSH1 0x40 MLOAD PUSH2 0x565 SWAP2 SWAP1 PUSH2 0xE35 JUMP JUMPDEST SWAP1 DUP2 MSTORE PUSH1 0x20 ADD PUSH1 0x40 MLOAD DUP1 SWAP2 SUB SWAP1 KECCAK256 PUSH1 0x0 PUSH2 0x100 EXP DUP2 SLOAD DUP2 PUSH20 0xFFFFFFFFFFFFFFFFFFFFFFFFFFFFFFFFFFFFFFFF MUL NOT AND SWAP1 DUP4 PUSH20 0xFFFFFFFFFFFFFFFFFFFFFFFFFFFFFFFFFFFFFFFF AND MUL OR SWAP1 SSTORE POP POP POP JUMP JUMPDEST PUSH1 0x0 DUP1 PUSH1 0x0 PUSH2 0x5C4 DUP6 DUP6 PUSH2 0x83A JUMP JUMPDEST SWAP3 POP SWAP3 POP SWAP3 POP CALLVALUE DUP2 EQ PUSH2 0x5D6 JUMPI PUSH1 0x0 DUP1 REVERT JUMPDEST PUSH1 0x0 DUP4 SWAP1 POP PUSH1 0x0 CALLER SWAP1 POP DUP2 PUSH20 0xFFFFFFFFFFFFFFFFFFFFFFFFFFFFFFFFFFFFFFFF AND PUSH2 0x8FC CALLVALUE SWAP1 DUP2 ISZERO MUL SWAP1 PUSH1 0x40 MLOAD PUSH1 0x0 PUSH1 0x40 MLOAD DUP1 DUP4 SUB DUP2 DUP6 DUP9 DUP9 CALL SWAP4 POP POP POP POP ISZERO DUP1 ISZERO PUSH2 0x626 JUMPI RETURNDATASIZE PUSH1 0x0 DUP1 RETURNDATACOPY RETURNDATASIZE PUSH1 0x0 REVERT JUMPDEST POP PUSH2 0x633 DUP8 DUP7 DUP4 DUP10 PUSH2 0x4A1 JUMP JUMPDEST PUSH1 0x1 PUSH1 0x0 DUP1 DUP10 PUSH1 0x40 MLOAD PUSH2 0x646 SWAP2 SWAP1 PUSH2 0xE35 JUMP JUMPDEST SWAP1 DUP2 MSTORE PUSH1 0x20 ADD PUSH1 0x40 MLOAD DUP1 SWAP2 SUB SWAP1 KECCAK256 PUSH1 0x0 SWAP1 SLOAD SWAP1 PUSH2 0x100 EXP SWAP1 DIV PUSH20 0xFFFFFFFFFFFFFFFFFFFFFFFFFFFFFFFFFFFFFFFF AND PUSH20 0xFFFFFFFFFFFFFFFFFFFFFFFFFFFFFFFFFFFFFFFF AND PUSH20 0xFFFFFFFFFFFFFFFFFFFFFFFFFFFFFFFFFFFFFFFF AND DUP2 MSTORE PUSH1 0x20 ADD SWAP1 DUP2 MSTORE PUSH1 0x20 ADD PUSH1 0x0 KECCAK256 PUSH1 0x0 DUP6 DUP2 MSTORE PUSH1 0x20 ADD SWAP1 DUP2 MSTORE PUSH1 0x20 ADD PUSH1 0x0 KECCAK256 PUSH1 0x0 DUP1 DUP3 ADD PUSH1 0x0 PUSH2 0x100 EXP DUP2 SLOAD SWAP1 PUSH20 0xFFFFFFFFFFFFFFFFFFFFFFFFFFFFFFFFFFFFFFFF MUL NOT AND SWAP1 SSTORE PUSH1 0x1 DUP3 ADD PUSH1 0x0 SWAP1 SSTORE PUSH1 0x2 DUP3 ADD PUSH1 0x0 SWAP1 SSTORE POP POP DUP2 PUSH20 0xFFFFFFFFFFFFFFFFFFFFFFFFFFFFFFFFFFFFFFFF AND DUP2 PUSH20 0xFFFFFFFFFFFFFFFFFFFFFFFFFFFFFFFFFFFFFFFF AND PUSH32 0x4BBEE585C68C014080A294E95CC21A3BCB641B0DDF539F0CC2306B97B7EFB905 PUSH1 0x0 DUP11 PUSH1 0x40 MLOAD PUSH2 0x759 SWAP2 SWAP1 PUSH2 0xE35 JUMP JUMPDEST SWAP1 DUP2 MSTORE PUSH1 0x20 ADD PUSH1 0x40 MLOAD DUP1 SWAP2 SUB SWAP1 KECCAK256 PUSH1 0x0 SWAP1 SLOAD SWAP1 PUSH2 0x100 EXP SWAP1 DIV PUSH20 0xFFFFFFFFFFFFFFFFFFFFFFFFFFFFFFFFFFFFFFFF AND DUP8 DUP8 PUSH1 0x40 MLOAD PUSH2 0x799 SWAP4 SWAP3 SWAP2 SWAP1 PUSH2 0xD8D JUMP JUMPDEST PUSH1 0x40 MLOAD DUP1 SWAP2 SUB SWAP1 LOG3 POP POP POP POP POP POP POP JUMP JUMPDEST PUSH1 0x0 DUP2 DUP1 MLOAD PUSH1 0x20 DUP2 ADD DUP3 ADD DUP1 MLOAD DUP5 DUP3 MSTORE PUSH1 0x20 DUP4 ADD PUSH1 0x20 DUP6 ADD KECCAK256 DUP2 DUP4 MSTORE DUP1 SWAP6 POP POP POP POP POP POP PUSH1 0x0 SWAP2 POP SLOAD SWAP1 PUSH2 0x100 EXP SWAP1 DIV PUSH20 0xFFFFFFFFFFFFFFFFFFFFFFFFFFFFFFFFFFFFFFFF AND DUP2 JUMP JUMPDEST PUSH1 0x0 DUP1 DUP3 PUSH1 0x40 MLOAD PUSH2 0x804 SWAP2 SWAP1 PUSH2 0xE35 JUMP JUMPDEST SWAP1 DUP2 MSTORE PUSH1 0x20 ADD PUSH1 0x40 MLOAD DUP1 SWAP2 SUB SWAP1 KECCAK256 PUSH1 0x0 SWAP1 SLOAD SWAP1 PUSH2 0x100 EXP SWAP1 DIV PUSH20 0xFFFFFFFFFFFFFFFFFFFFFFFFFFFFFFFFFFFFFFFF AND SWAP1 POP SWAP2 SWAP1 POP JUMP JUMPDEST PUSH1 0x0 DUP1 PUSH1 0x0 DUP1 PUSH1 0x1 PUSH1 0x0 DUP1 DUP9 PUSH1 0x40 MLOAD PUSH2 0x853 SWAP2 SWAP1 PUSH2 0xE35 JUMP JUMPDEST SWAP1 DUP2 MSTORE PUSH1 0x20 ADD PUSH1 0x40 MLOAD DUP1 SWAP2 SUB SWAP1 KECCAK256 PUSH1 0x0 SWAP1 SLOAD SWAP1 PUSH2 0x100 EXP SWAP1 DIV PUSH20 0xFFFFFFFFFFFFFFFFFFFFFFFFFFFFFFFFFFFFFFFF AND PUSH20 0xFFFFFFFFFFFFFFFFFFFFFFFFFFFFFFFFFFFFFFFF AND PUSH20 0xFFFFFFFFFFFFFFFFFFFFFFFFFFFFFFFFFFFFFFFF AND DUP2 MSTORE PUSH1 0x20 ADD SWAP1 DUP2 MSTORE PUSH1 0x20 ADD PUSH1 0x0 KECCAK256 PUSH1 0x0 DUP7 DUP2 MSTORE PUSH1 0x20 ADD SWAP1 DUP2 MSTORE PUSH1 0x20 ADD PUSH1 0x0 KECCAK256 PUSH1 0x40 MLOAD DUP1 PUSH1 0x60 ADD PUSH1 0x40 MSTORE SWAP1 DUP2 PUSH1 0x0 DUP3 ADD PUSH1 0x0 SWAP1 SLOAD SWAP1 PUSH2 0x100 EXP SWAP1 DIV PUSH20 0xFFFFFFFFFFFFFFFFFFFFFFFFFFFFFFFFFFFFFFFF AND PUSH20 0xFFFFFFFFFFFFFFFFFFFFFFFFFFFFFFFFFFFFFFFF AND PUSH20 0xFFFFFFFFFFFFFFFFFFFFFFFFFFFFFFFFFFFFFFFF AND DUP2 MSTORE PUSH1 0x20 ADD PUSH1 0x1 DUP3 ADD SLOAD DUP2 MSTORE PUSH1 0x20 ADD PUSH1 0x2 DUP3 ADD SLOAD DUP2 MSTORE POP POP SWAP1 POP PUSH1 0x0 DUP2 PUSH1 0x0 ADD MLOAD SWAP1 POP PUSH1 0x0 DUP3 PUSH1 0x20 ADD MLOAD SWAP1 POP PUSH1 0x0 DUP4 PUSH1 0x40 ADD MLOAD SWAP1 POP DUP3 DUP3 DUP3 SWAP7 POP SWAP7 POP SWAP7 POP POP POP POP POP SWAP3 POP SWAP3 POP SWAP3 JUMP JUMPDEST PUSH1 0x0 PUSH1 0x40 MLOAD SWAP1 POP SWAP1 JUMP JUMPDEST PUSH1 0x0 DUP1 REVERT JUMPDEST PUSH1 0x0 DUP1 REVERT JUMPDEST PUSH1 0x0 DUP1 REVERT JUMPDEST PUSH1 0x0 DUP1 REVERT JUMPDEST PUSH1 0x0 PUSH1 0x1F NOT PUSH1 0x1F DUP4 ADD AND SWAP1 POP SWAP2 SWAP1 POP JUMP JUMPDEST PUSH32 0x4E487B7100000000000000000000000000000000000000000000000000000000 PUSH1 0x0 MSTORE PUSH1 0x41 PUSH1 0x4 MSTORE PUSH1 0x24 PUSH1 0x0 REVERT JUMPDEST PUSH2 0x9DA DUP3 PUSH2 0x991 JUMP JUMPDEST DUP2 ADD DUP2 DUP2 LT PUSH8 0xFFFFFFFFFFFFFFFF DUP3 GT OR ISZERO PUSH2 0x9F9 JUMPI PUSH2 0x9F8 PUSH2 0x9A2 JUMP JUMPDEST JUMPDEST DUP1 PUSH1 0x40 MSTORE POP POP POP JUMP JUMPDEST PUSH1 0x0 PUSH2 0xA0C PUSH2 0x973 JUMP JUMPDEST SWAP1 POP PUSH2 0xA18 DUP3 DUP3 PUSH2 0x9D1 JUMP JUMPDEST SWAP2 SWAP1 POP JUMP JUMPDEST PUSH1 0x0 PUSH8 0xFFFFFFFFFFFFFFFF DUP3 GT ISZERO PUSH2 0xA38 JUMPI PUSH2 0xA37 PUSH2 0x9A2 JUMP JUMPDEST JUMPDEST PUSH2 0xA41 DUP3 PUSH2 0x991 JUMP JUMPDEST SWAP1 POP PUSH1 0x20 DUP2 ADD SWAP1 POP SWAP2 SWAP1 POP JUMP JUMPDEST DUP3 DUP2 DUP4 CALLDATACOPY PUSH1 0x0 DUP4 DUP4 ADD MSTORE POP POP POP JUMP JUMPDEST PUSH1 0x0 PUSH2 0xA70 PUSH2 0xA6B DUP5 PUSH2 0xA1D JUMP JUMPDEST PUSH2 0xA02 JUMP JUMPDEST SWAP1 POP DUP3 DUP2 MSTORE PUSH1 0x20 DUP2 ADD DUP5 DUP5 DUP5 ADD GT ISZERO PUSH2 0xA8C JUMPI PUSH2 0xA8B PUSH2 0x98C JUMP JUMPDEST JUMPDEST PUSH2 0xA97 DUP5 DUP3 DUP6 PUSH2 0xA4E JUMP JUMPDEST POP SWAP4 SWAP3 POP POP POP JUMP JUMPDEST PUSH1 0x0 DUP3 PUSH1 0x1F DUP4 ADD SLT PUSH2 0xAB4 JUMPI PUSH2 0xAB3 PUSH2 0x987 JUMP JUMPDEST JUMPDEST DUP2 CALLDATALOAD PUSH2 0xAC4 DUP5 DUP3 PUSH1 0x20 DUP7 ADD PUSH2 0xA5D JUMP JUMPDEST SWAP2 POP POP SWAP3 SWAP2 POP POP JUMP JUMPDEST PUSH1 0x0 DUP2 SWAP1 POP SWAP2 SWAP1 POP JUMP JUMPDEST PUSH2 0xAE0 DUP2 PUSH2 0xACD JUMP JUMPDEST DUP2 EQ PUSH2 0xAEB JUMPI PUSH1 0x0 DUP1 REVERT JUMPDEST POP JUMP JUMPDEST PUSH1 0x0 DUP2 CALLDATALOAD SWAP1 POP PUSH2 0xAFD DUP2 PUSH2 0xAD7 JUMP JUMPDEST SWAP3 SWAP2 POP POP JUMP JUMPDEST PUSH1 0x0 DUP1 PUSH1 0x0 PUSH1 0x60 DUP5 DUP7 SUB SLT ISZERO PUSH2 0xB1C JUMPI PUSH2 0xB1B PUSH2 0x97D JUMP JUMPDEST JUMPDEST PUSH1 0x0 DUP5 ADD CALLDATALOAD PUSH8 0xFFFFFFFFFFFFFFFF DUP2 GT ISZERO PUSH2 0xB3A JUMPI PUSH2 0xB39 PUSH2 0x982 JUMP JUMPDEST JUMPDEST PUSH2 0xB46 DUP7 DUP3 DUP8 ADD PUSH2 0xA9F JUMP JUMPDEST SWAP4 POP POP PUSH1 0x20 PUSH2 0xB57 DUP7 DUP3 DUP8 ADD PUSH2 0xAEE JUMP JUMPDEST SWAP3 POP POP PUSH1 0x40 PUSH2 0xB68 DUP7 DUP3 DUP8 ADD PUSH2 0xAEE JUMP JUMPDEST SWAP2 POP POP SWAP3 POP SWAP3 POP SWAP3 JUMP JUMPDEST PUSH1 0x0 PUSH20 0xFFFFFFFFFFFFFFFFFFFFFFFFFFFFFFFFFFFFFFFF DUP3 AND SWAP1 POP SWAP2 SWAP1 POP JUMP JUMPDEST PUSH1 0x0 PUSH2 0xB9D DUP3 PUSH2 0xB72 JUMP JUMPDEST SWAP1 POP SWAP2 SWAP1 POP JUMP JUMPDEST PUSH2 0xBAD DUP2 PUSH2 0xB92 JUMP JUMPDEST DUP2 EQ PUSH2 0xBB8 JUMPI PUSH1 0x0 DUP1 REVERT JUMPDEST POP JUMP JUMPDEST PUSH1 0x0 DUP2 CALLDATALOAD SWAP1 POP PUSH2 0xBCA DUP2 PUSH2 0xBA4 JUMP JUMPDEST SWAP3 SWAP2 POP POP JUMP JUMPDEST PUSH1 0x0 DUP1 PUSH1 0x0 DUP1 PUSH1 0x80 DUP6 DUP8 SUB SLT ISZERO PUSH2 0xBEA JUMPI PUSH2 0xBE9 PUSH2 0x97D JUMP JUMPDEST JUMPDEST PUSH1 0x0 DUP6 ADD CALLDATALOAD PUSH8 0xFFFFFFFFFFFFFFFF DUP2 GT ISZERO PUSH2 0xC08 JUMPI PUSH2 0xC07 PUSH2 0x982 JUMP JUMPDEST JUMPDEST PUSH2 0xC14 DUP8 DUP3 DUP9 ADD PUSH2 0xA9F JUMP JUMPDEST SWAP5 POP POP PUSH1 0x20 PUSH2 0xC25 DUP8 DUP3 DUP9 ADD PUSH2 0xBBB JUMP JUMPDEST SWAP4 POP POP PUSH1 0x40 PUSH2 0xC36 DUP8 DUP3 DUP9 ADD PUSH2 0xBBB JUMP JUMPDEST SWAP3 POP POP PUSH1 0x60 PUSH2 0xC47 DUP8 DUP3 DUP9 ADD PUSH2 0xAEE JUMP JUMPDEST SWAP2 POP POP SWAP3 SWAP6 SWAP2 SWAP5 POP SWAP3 POP JUMP JUMPDEST PUSH1 0x0 DUP1 PUSH1 0x40 DUP4 DUP6 SUB SLT ISZERO PUSH2 0xC6A JUMPI PUSH2 0xC69 PUSH2 0x97D JUMP JUMPDEST JUMPDEST PUSH1 0x0 DUP4 ADD CALLDATALOAD PUSH8 0xFFFFFFFFFFFFFFFF DUP2 GT ISZERO PUSH2 0xC88 JUMPI PUSH2 0xC87 PUSH2 0x982 JUMP JUMPDEST JUMPDEST PUSH2 0xC94 DUP6 DUP3 DUP7 ADD PUSH2 0xA9F JUMP JUMPDEST SWAP3 POP POP PUSH1 0x20 PUSH2 0xCA5 DUP6 DUP3 DUP7 ADD PUSH2 0xBBB JUMP JUMPDEST SWAP2 POP POP SWAP3 POP SWAP3 SWAP1 POP JUMP JUMPDEST PUSH1 0x0 DUP1 PUSH1 0x40 DUP4 DUP6 SUB SLT ISZERO PUSH2 0xCC6 JUMPI PUSH2 0xCC5 PUSH2 0x97D JUMP JUMPDEST JUMPDEST PUSH1 0x0 DUP4 ADD CALLDATALOAD PUSH8 0xFFFFFFFFFFFFFFFF DUP2 GT ISZERO PUSH2 0xCE4 JUMPI PUSH2 0xCE3 PUSH2 0x982 JUMP JUMPDEST JUMPDEST PUSH2 0xCF0 DUP6 DUP3 DUP7 ADD PUSH2 0xA9F JUMP JUMPDEST SWAP3 POP POP PUSH1 0x20 PUSH2 0xD01 DUP6 DUP3 DUP7 ADD PUSH2 0xAEE JUMP JUMPDEST SWAP2 POP POP SWAP3 POP SWAP3 SWAP1 POP JUMP JUMPDEST PUSH1 0x0 PUSH1 0x20 DUP3 DUP5 SUB SLT ISZERO PUSH2 0xD21 JUMPI PUSH2 0xD20 PUSH2 0x97D JUMP JUMPDEST JUMPDEST PUSH1 0x0 DUP3 ADD CALLDATALOAD PUSH8 0xFFFFFFFFFFFFFFFF DUP2 GT ISZERO PUSH2 0xD3F JUMPI PUSH2 0xD3E PUSH2 0x982 JUMP JUMPDEST JUMPDEST PUSH2 0xD4B DUP5 DUP3 DUP6 ADD PUSH2 0xA9F JUMP JUMPDEST SWAP2 POP POP SWAP3 SWAP2 POP POP JUMP JUMPDEST PUSH2 0xD5D DUP2 PUSH2 0xB92 JUMP JUMPDEST DUP3 MSTORE POP POP JUMP JUMPDEST PUSH1 0x0 PUSH1 0x20 DUP3 ADD SWAP1 POP PUSH2 0xD78 PUSH1 0x0 DUP4 ADD DUP5 PUSH2 0xD54 JUMP JUMPDEST SWAP3 SWAP2 POP POP JUMP JUMPDEST PUSH2 0xD87 DUP2 PUSH2 0xACD JUMP JUMPDEST DUP3 MSTORE POP POP JUMP JUMPDEST PUSH1 0x0 PUSH1 0x60 DUP3 ADD SWAP1 POP PUSH2 0xDA2 PUSH1 0x0 DUP4 ADD DUP7 PUSH2 0xD54 JUMP JUMPDEST PUSH2 0xDAF PUSH1 0x20 DUP4 ADD DUP6 PUSH2 0xD7E JUMP JUMPDEST PUSH2 0xDBC PUSH1 0x40 DUP4 ADD DUP5 PUSH2 0xD7E JUMP JUMPDEST SWAP5 SWAP4 POP POP POP POP JUMP JUMPDEST PUSH1 0x0 DUP2 MLOAD SWAP1 POP SWAP2 SWAP1 POP JUMP JUMPDEST PUSH1 0x0 DUP2 SWAP1 POP SWAP3 SWAP2 POP POP JUMP JUMPDEST PUSH1 0x0 JUMPDEST DUP4 DUP2 LT ISZERO PUSH2 0xDF8 JUMPI DUP1 DUP3 ADD MLOAD DUP2 DUP5 ADD MSTORE PUSH1 0x20 DUP2 ADD SWAP1 POP PUSH2 0xDDD JUMP JUMPDEST PUSH1 0x0 DUP5 DUP5 ADD MSTORE POP POP POP POP JUMP JUMPDEST PUSH1 0x0 PUSH2 0xE0F DUP3 PUSH2 0xDC4 JUMP JUMPDEST PUSH2 0xE19 DUP2 DUP6 PUSH2 0xDCF JUMP JUMPDEST SWAP4 POP PUSH2 0xE29 DUP2 DUP6 PUSH1 0x20 DUP7 ADD PUSH2 0xDDA JUMP JUMPDEST DUP1 DUP5 ADD SWAP2 POP POP SWAP3 SWAP2 POP POP JUMP JUMPDEST PUSH1 0x0 PUSH2 0xE41 DUP3 DUP5 PUSH2 0xE04 JUMP JUMPDEST SWAP2 POP DUP2 SWAP1 POP SWAP3 SWAP2 POP POP JUMP JUMPDEST PUSH1 0x0 PUSH1 0x20 DUP3 ADD SWAP1 POP PUSH2 0xE61 PUSH1 0x0 DUP4 ADD DUP5 PUSH2 0xD7E JUMP JUMPDEST SWAP3 SWAP2 POP POP JUMP JUMPDEST PUSH1 0x0 DUP2 MLOAD SWAP1 POP PUSH2 0xE76 DUP2 PUSH2 0xBA4 JUMP JUMPDEST SWAP3 SWAP2 POP POP JUMP JUMPDEST PUSH1 0x0 PUSH1 0x20 DUP3 DUP5 SUB SLT ISZERO PUSH2 0xE92 JUMPI PUSH2 0xE91 PUSH2 0x97D JUMP JUMPDEST JUMPDEST PUSH1 0x0 PUSH2 0xEA0 DUP5 DUP3 DUP6 ADD PUSH2 0xE67 JUMP JUMPDEST SWAP2 POP POP SWAP3 SWAP2 POP POP JUMP JUMPDEST PUSH1 0x0 DUP3 DUP3 MSTORE PUSH1 0x20 DUP3 ADD SWAP1 POP SWAP3 SWAP2 POP POP JUMP JUMPDEST PUSH32 0x6E6674206F776E657220213D206D73672E73656E646572000000000000000000 PUSH1 0x0 DUP3 ADD MSTORE POP JUMP JUMPDEST PUSH1 0x0 PUSH2 0xEF0 PUSH1 0x17 DUP4 PUSH2 0xEA9 JUMP JUMPDEST SWAP2 POP PUSH2 0xEFB DUP3 PUSH2 0xEBA JUMP JUMPDEST PUSH1 0x20 DUP3 ADD SWAP1 POP SWAP2 SWAP1 POP JUMP JUMPDEST PUSH1 0x0 PUSH1 0x20 DUP3 ADD SWAP1 POP DUP2 DUP2 SUB PUSH1 0x0 DUP4 ADD MSTORE PUSH2 0xF1F DUP2 PUSH2 0xEE3 JUMP JUMPDEST SWAP1 POP SWAP2 SWAP1 POP JUMP JUMPDEST PUSH1 0x0 PUSH1 0x60 DUP3 ADD SWAP1 POP PUSH2 0xF3B PUSH1 0x0 DUP4 ADD DUP7 PUSH2 0xD54 JUMP JUMPDEST PUSH2 0xF48 PUSH1 0x20 DUP4 ADD DUP6 PUSH2 0xD54 JUMP JUMPDEST PUSH2 0xF55 PUSH1 0x40 DUP4 ADD DUP5 PUSH2 0xD7E JUMP JUMPDEST SWAP5 SWAP4 POP POP POP POP JUMP INVALID LOG2 PUSH5 0x6970667358 0x22 SLT KECCAK256 0x2A ADDRESS 0x2E DUP3 DUP10 0xDF PUSH7 0xDB9B234ED23A27 GT PUSH22 0xC7636A6798B5B15DA012EE46F60B4B1B64736F6C6343 STOP ADDMOD GT STOP CALLER "
				},
				"gasEstimates": {
					"creation": {
						"codeDepositCost": "797400",
						"executionCost": "831",
						"totalCost": "798231"
					},
					"external": {
						"addNftList(string,address)": "infinite",
						"applySale(string,uint256,uint256)": "infinite",
						"buySale(string,uint256)": "infinite",
						"getNftList(string)": "infinite",
						"getSales(string,uint256)": "infinite",
						"makeTransfer(string,address,address,uint256)": "infinite",
						"nftList(string)": "infinite"
					}
				},
				"methodIdentifiers": {
					"addNftList(string,address)": "3c6a15a7",
					"applySale(string,uint256,uint256)": "0f554ee1",
					"buySale(string,uint256)": "62a638b9",
					"getNftList(string)": "7cb95147",
					"getSales(string,uint256)": "d72df326",
					"makeTransfer(string,address,address,uint256)": "189ac995",
					"nftList(string)": "6f45c033"
				}
			},
			"storageLayout": {
				"storage": [
					{
						"astId": 179,
						"contract": "nftExchanger.sol:NftExchanger",
						"label": "nftList",
						"offset": 0,
						"slot": "0",
						"type": "t_mapping(t_string_memory_ptr,t_address)"
					},
					{
						"astId": 186,
						"contract": "nftExchanger.sol:NftExchanger",
						"label": "_sales",
						"offset": 0,
						"slot": "1",
						"type": "t_mapping(t_address,t_mapping(t_uint256,t_struct(SaleInfo)175_storage))"
					}
				],
				"types": {
					"t_address": {
						"encoding": "inplace",
						"label": "address",
						"numberOfBytes": "20"
					},
					"t_mapping(t_address,t_mapping(t_uint256,t_struct(SaleInfo)175_storage))": {
						"encoding": "mapping",
						"key": "t_address",
						"label": "mapping(address => mapping(uint256 => struct NftExchanger.SaleInfo))",
						"numberOfBytes": "32",
						"value": "t_mapping(t_uint256,t_struct(SaleInfo)175_storage)"
					},
					"t_mapping(t_string_memory_ptr,t_address)": {
						"encoding": "mapping",
						"key": "t_string_memory_ptr",
						"label": "mapping(string => address)",
						"numberOfBytes": "32",
						"value": "t_address"
					},
					"t_mapping(t_uint256,t_struct(SaleInfo)175_storage)": {
						"encoding": "mapping",
						"key": "t_uint256",
						"label": "mapping(uint256 => struct NftExchanger.SaleInfo)",
						"numberOfBytes": "32",
						"value": "t_struct(SaleInfo)175_storage"
					},
					"t_string_memory_ptr": {
						"encoding": "bytes",
						"label": "string",
						"numberOfBytes": "32"
					},
					"t_struct(SaleInfo)175_storage": {
						"encoding": "inplace",
						"label": "struct NftExchanger.SaleInfo",
						"members": [
							{
								"astId": 170,
								"contract": "nftExchanger.sol:NftExchanger",
								"label": "onwer",
								"offset": 0,
								"slot": "0",
								"type": "t_address"
							},
							{
								"astId": 172,
								"contract": "nftExchanger.sol:NftExchanger",
								"label": "tokenId",
								"offset": 0,
								"slot": "1",
								"type": "t_uint256"
							},
							{
								"astId": 174,
								"contract": "nftExchanger.sol:NftExchanger",
								"label": "price",
								"offset": 0,
								"slot": "2",
								"type": "t_uint256"
							}
						],
						"numberOfBytes": "96"
					},
					"t_uint256": {
						"encoding": "inplace",
						"label": "uint256",
						"numberOfBytes": "32"
					}
				}
			},
			"userdoc": {
				"kind": "user",
				"methods": {},
				"version": 1
			}
		}
	}
}