{
	"data": {
		"bytecode": {
			"linkReferences": {},
			"object": "608060405234801561001057600080fd5b5060326001819055506102b1806100286000396000f3fe608060405234801561001057600080fd5b506004361061004c5760003560e01c80636ac5db1914610051578063be9a65551461006f578063ccbac9f51461008d578063dbdff2c1146100ab575b600080fd5b6100596100c9565b6040516100669190610139565b60405180910390f35b6100776100cf565b6040516100849190610139565b60405180910390f35b6100956100d5565b6040516100a29190610139565b60405180910390f35b6100b36100db565b6040516100c09190610139565b60405180910390f35b60015481565b60025481565b60005481565b60008060015433436040516020016100f49291906101ef565b6040516020818303038152906040528051906020012060001c610117919061024a565b90508091505090565b6000819050919050565b61013381610120565b82525050565b600060208201905061014e600083018461012a565b92915050565b600073ffffffffffffffffffffffffffffffffffffffff82169050919050565b600061017f82610154565b9050919050565b60008160601b9050919050565b600061019e82610186565b9050919050565b60006101b082610193565b9050919050565b6101c86101c382610174565b6101a5565b82525050565b6000819050919050565b6101e96101e482610120565b6101ce565b82525050565b60006101fb82856101b7565b60148201915061020b82846101d8565b6020820191508190509392505050565b7f4e487b7100000000000000000000000000000000000000000000000000000000600052601260045260246000fd5b600061025582610120565b915061026083610120565b9250826102705761026f61021b565b5b82820690509291505056fea264697066735822122023a5d42c97f5a8d88e1caf6bf853cf7aa3958e093af0543f8a71ecacc469ae7664736f6c63430008110033",
			"opcodes": "PUSH1 0x80 PUSH1 0x40 MSTORE CALLVALUE DUP1 ISZERO PUSH2 0x10 JUMPI PUSH1 0x0 DUP1 REVERT JUMPDEST POP PUSH1 0x32 PUSH1 0x1 DUP2 SWAP1 SSTORE POP PUSH2 0x2B1 DUP1 PUSH2 0x28 PUSH1 0x0 CODECOPY PUSH1 0x0 RETURN INVALID PUSH1 0x80 PUSH1 0x40 MSTORE CALLVALUE DUP1 ISZERO PUSH2 0x10 JUMPI PUSH1 0x0 DUP1 REVERT JUMPDEST POP PUSH1 0x4 CALLDATASIZE LT PUSH2 0x4C JUMPI PUSH1 0x0 CALLDATALOAD PUSH1 0xE0 SHR DUP1 PUSH4 0x6AC5DB19 EQ PUSH2 0x51 JUMPI DUP1 PUSH4 0xBE9A6555 EQ PUSH2 0x6F JUMPI DUP1 PUSH4 0xCCBAC9F5 EQ PUSH2 0x8D JUMPI DUP1 PUSH4 0xDBDFF2C1 EQ PUSH2 0xAB JUMPI JUMPDEST PUSH1 0x0 DUP1 REVERT JUMPDEST PUSH2 0x59 PUSH2 0xC9 JUMP JUMPDEST PUSH1 0x40 MLOAD PUSH2 0x66 SWAP2 SWAP1 PUSH2 0x139 JUMP JUMPDEST PUSH1 0x40 MLOAD DUP1 SWAP2 SUB SWAP1 RETURN JUMPDEST PUSH2 0x77 PUSH2 0xCF JUMP JUMPDEST PUSH1 0x40 MLOAD PUSH2 0x84 SWAP2 SWAP1 PUSH2 0x139 JUMP JUMPDEST PUSH1 0x40 MLOAD DUP1 SWAP2 SUB SWAP1 RETURN JUMPDEST PUSH2 0x95 PUSH2 0xD5 JUMP JUMPDEST PUSH1 0x40 MLOAD PUSH2 0xA2 SWAP2 SWAP1 PUSH2 0x139 JUMP JUMPDEST PUSH1 0x40 MLOAD DUP1 SWAP2 SUB SWAP1 RETURN JUMPDEST PUSH2 0xB3 PUSH2 0xDB JUMP JUMPDEST PUSH1 0x40 MLOAD PUSH2 0xC0 SWAP2 SWAP1 PUSH2 0x139 JUMP JUMPDEST PUSH1 0x40 MLOAD DUP1 SWAP2 SUB SWAP1 RETURN JUMPDEST PUSH1 0x1 SLOAD DUP2 JUMP JUMPDEST PUSH1 0x2 SLOAD DUP2 JUMP JUMPDEST PUSH1 0x0 SLOAD DUP2 JUMP JUMPDEST PUSH1 0x0 DUP1 PUSH1 0x1 SLOAD CALLER NUMBER PUSH1 0x40 MLOAD PUSH1 0x20 ADD PUSH2 0xF4 SWAP3 SWAP2 SWAP1 PUSH2 0x1EF JUMP JUMPDEST PUSH1 0x40 MLOAD PUSH1 0x20 DUP2 DUP4 SUB SUB DUP2 MSTORE SWAP1 PUSH1 0x40 MSTORE DUP1 MLOAD SWAP1 PUSH1 0x20 ADD KECCAK256 PUSH1 0x0 SHR PUSH2 0x117 SWAP2 SWAP1 PUSH2 0x24A JUMP JUMPDEST SWAP1 POP DUP1 SWAP2 POP POP SWAP1 JUMP JUMPDEST PUSH1 0x0 DUP2 SWAP1 POP SWAP2 SWAP1 POP JUMP JUMPDEST PUSH2 0x133 DUP2 PUSH2 0x120 JUMP JUMPDEST DUP3 MSTORE POP POP JUMP JUMPDEST PUSH1 0x0 PUSH1 0x20 DUP3 ADD SWAP1 POP PUSH2 0x14E PUSH1 0x0 DUP4 ADD DUP5 PUSH2 0x12A JUMP JUMPDEST SWAP3 SWAP2 POP POP JUMP JUMPDEST PUSH1 0x0 PUSH20 0xFFFFFFFFFFFFFFFFFFFFFFFFFFFFFFFFFFFFFFFF DUP3 AND SWAP1 POP SWAP2 SWAP1 POP JUMP JUMPDEST PUSH1 0x0 PUSH2 0x17F DUP3 PUSH2 0x154 JUMP JUMPDEST SWAP1 POP SWAP2 SWAP1 POP JUMP JUMPDEST PUSH1 0x0 DUP2 PUSH1 0x60 SHL SWAP1 POP SWAP2 SWAP1 POP JUMP JUMPDEST PUSH1 0x0 PUSH2 0x19E DUP3 PUSH2 0x186 JUMP JUMPDEST SWAP1 POP SWAP2 SWAP1 POP JUMP JUMPDEST PUSH1 0x0 PUSH2 0x1B0 DUP3 PUSH2 0x193 JUMP JUMPDEST SWAP1 POP SWAP2 SWAP1 POP JUMP JUMPDEST PUSH2 0x1C8 PUSH2 0x1C3 DUP3 PUSH2 0x174 JUMP JUMPDEST PUSH2 0x1A5 JUMP JUMPDEST DUP3 MSTORE POP POP JUMP JUMPDEST PUSH1 0x0 DUP2 SWAP1 POP SWAP2 SWAP1 POP JUMP JUMPDEST PUSH2 0x1E9 PUSH2 0x1E4 DUP3 PUSH2 0x120 JUMP JUMPDEST PUSH2 0x1CE JUMP JUMPDEST DUP3 MSTORE POP POP JUMP JUMPDEST PUSH1 0x0 PUSH2 0x1FB DUP3 DUP6 PUSH2 0x1B7 JUMP JUMPDEST PUSH1 0x14 DUP3 ADD SWAP2 POP PUSH2 0x20B DUP3 DUP5 PUSH2 0x1D8 JUMP JUMPDEST PUSH1 0x20 DUP3 ADD SWAP2 POP DUP2 SWAP1 POP SWAP4 SWAP3 POP POP POP JUMP JUMPDEST PUSH32 0x4E487B7100000000000000000000000000000000000000000000000000000000 PUSH1 0x0 MSTORE PUSH1 0x12 PUSH1 0x4 MSTORE PUSH1 0x24 PUSH1 0x0 REVERT JUMPDEST PUSH1 0x0 PUSH2 0x255 DUP3 PUSH2 0x120 JUMP JUMPDEST SWAP2 POP PUSH2 0x260 DUP4 PUSH2 0x120 JUMP JUMPDEST SWAP3 POP DUP3 PUSH2 0x270 JUMPI PUSH2 0x26F PUSH2 0x21B JUMP JUMPDEST JUMPDEST DUP3 DUP3 MOD SWAP1 POP SWAP3 SWAP2 POP POP JUMP INVALID LOG2 PUSH5 0x6970667358 0x22 SLT KECCAK256 0x23 0xA5 0xD4 0x2C SWAP8 CREATE2 0xA8 0xD8 DUP15 SHR 0xAF PUSH12 0xF853CF7AA3958E093AF0543F DUP11 PUSH18 0xECACC469AE7664736F6C6343000811003300 "
		},
		"gasEstimates": {
			"creation": {
				"codeDepositCost": "137800",
				"executionCost": "22297",
				"totalCost": "160097"
			},
			"external": {
				"getRandomNumber()": "infinite",
				"max()": "2407",
				"randomNumber()": "2451",
				"start()": "2429"
			}
		},
		"methodIdentifiers": {
			"getRandomNumber()": "dbdff2c1",
			"max()": "6ac5db19",
			"randomNumber()": "ccbac9f5",
			"start()": "be9a6555"
		}
	},
	"abi": [
		{
			"inputs": [],
			"stateMutability": "nonpayable",
			"type": "constructor"
		},
		{
			"inputs": [],
			"name": "getRandomNumber",
			"outputs": [
				{
					"internalType": "uint256",
					"name": "",
					"type": "uint256"
				}
			],
			"stateMutability": "nonpayable",
			"type": "function"
		},
		{
			"inputs": [],
			"name": "max",
			"outputs": [
				{
					"internalType": "uint256",
					"name": "",
					"type": "uint256"
				}
			],
			"stateMutability": "view",
			"type": "function"
		},
		{
			"inputs": [],
			"name": "randomNumber",
			"outputs": [
				{
					"internalType": "uint256",
					"name": "",
					"type": "uint256"
				}
			],
			"stateMutability": "view",
			"type": "function"
		},
		{
			"inputs": [],
			"name": "start",
			"outputs": [
				{
					"internalType": "uint256",
					"name": "",
					"type": "uint256"
				}
			],
			"stateMutability": "view",
			"type": "function"
		}
	]
}